:020000040800F2
:1000000030260020C101000871150008490F0008C2
:100010006D15000849030008851D00080000000058
:10002000000000000000000000000000CD160008E5
:10003000210E000800000000F91500082118000832
:10004000DB010008DB010008DB010008DB01000820
:10005000DB010008DB010008DB010008DB01000810
:10006000DB010008DB010008DB010008CD0B000804
:10007000090C0008450C0008DB010008890C000889
:10008000CD0C0008110D0008DB010008DB010008A1
:10009000DB010008DB010008DB010008DB010008D0
:1000A000DB010008DB010008DB010008DB010008C0
:1000B000DB010008DB01000885180008DB010008EF
:1000C000DB010008DB010008DB010008DB010008A0
:1000D000DB010008DB010008DB010008DB01000890
:1000E000DB010008DB010008DB01000800F002F87A
:1000F00000F03CF80AA090E8000C82448344AAF186
:100100000107DA4501D100F031F8AFF2090EBAE883
:100110000F0013F0010F18BFFB1A43F0010318473B
:10012000103B0000303B0000103A24BF78C878C173
:10013000FAD8520724BF30C830C144BF04680C60ED
:10014000704700000023002400250026103A28BF35
:1001500078C1FBD8520728BF30C148BF0B60704739
:100160001FB500F062F81FBD10B510BD00F0B2F869
:100170001146FFF7F5FF01F06DFE00F0D0F803B473
:10018000FFF7F2FF03BC00F0D9F800000B49D1F8EB
:1001900000C04A685CF8043B1068184442F8040B3D
:1001A0008C4528BFA1F1DC0C8A4228BFA1F1DC02FA
:1001B000C1F800C04A6020F000407047C41F002012
:1001C0000948804709480047FEE7FEE7FEE7FEE7EB
:1001D000FEE7FEE7FEE7FEE7FEE7FEE70448054927
:1001E000054A064B7047000025180008ED0000087E
:1001F0003020002030260020302200203022002035
:100200000B4910B5A1F17C020A4CC2E93712372123
:1002100006E000EB104342F82130074B00FB03409F
:100220000B1EA1F10101F4DC10BD0120E8E7000084
:10023000641F0020E119D666CD0D01004FF00002C9
:100240000429C0F0128010F0030C00F01E80CCF1E5
:10025000040CBCF1020F18BF00F8012BA8BF20F856
:10026000022BA1EB0C0100F010B85FEAC17C24BFA7
:1002700000F8012B00F8012B48BF00F8012B704754
:100280007047704770474FF0000200B51346944620
:100290009646203922BFA0E80C50A0E80C50B1F1DE
:1002A0002001BFF4F7AF090728BFA0E80C5048BFF2
:1002B0000CC05DF804EB890028BF40F8042B08BF90
:1002C000704748BF20F8022B11F0804F18BF00F88C
:1002D000012B7047754600F02BF8AE4605006946C5
:1002E000534620F00700854618B020B5FFF776FF8B
:1002F000BDE820404FF000064FF000074FF0000827
:100300004FF0000B21F00701AC46ACE8C009ACE8A7
:10031000C009ACE8C009ACE8C0098D46704710B50B
:100320000446AFF300802046BDE81040FFF727BF2A
:1003300000487047CC1F002070470000014918207A
:10034000ABBEFEE72600020000BFFEE72DE9F84342
:1003500005460E46174626480068002845D101206C
:100360002349086023480560234806602348076046
:100370002348009000F534640223002269461046A9
:1003800001F01AFA1D4A1168009AA21A302392FB52
:10039000F3F0814201D20A4600E002469146C84687
:1003A0004346164A69461448DFF848C0DCF800C0E6
:1003B000E0470098A0420AD20098201A302190FB12
:1003C000F1F8434600226946104601F0F5F94FF472
:1003D000B4610C4800F015FD0121880701F088FA8E
:1003E0000121084800F0C4FC00BFBDE8F88300000C
:1003F0001C000020300000203400002038000020C5
:1004000054000020080002402DE9F3410C46234827
:10041000006860B900214FF0804001F069FA0021C6
:100420001F4800F0A5FC00201E49086034E01E486B
:10043000006870B90098201A302190FBF1F52B4626
:1004400000226946104601F0B7F900201349086000
:1004500022E0154A1068009AA21A302392FBF3F1A9
:10046000884201D2024600E00A46164635462B462F
:100470000D4A69460D48094F3F68B8470098A042A9
:100480000AD20098201A302190FBF1F52B46002269
:100490006946104601F090F9BDE8FC81300000206B
:1004A000080002401C00002038000020340000201A
:1004B0002DE9F84305460E461746284800680028EF
:1004C00049D1012025490860254805602548066076
:1004D000254807602548009000F534640223002277
:1004E0006946104601F068F91F4A1168009AA21A7D
:1004F000302392FBF3F0814201D20A4600E002462B
:100500009146C8464346184A69461648DFF850C027
:10051000DCF800C0E0470098A0420AD20098201AF8
:10052000302190FBF1F8434600226946104601F065
:1005300043F94FF4B4610E4800F063FC01210D480B
:1005400001F0D6F901210B4801F0DEF9012108483C
:1005500000F00EFC00BFBDE8F8830000280000207A
:10056000300000203400002038000020540000201B
:100570001C000240002C01402DE9F3410C462548A7
:10058000006878B90021244801F0B2F9012122481D
:1005900001F0BAF90021214800F0EAFB00202049CF
:1005A000086034E01F48006870B90098201A3021B4
:1005B00090FBF1F52B4600226946104601F0FCF84D
:1005C00000201449086022E0164A1068009AA21A16
:1005D000302392FBF3F1884201D2024600E00A4642
:1005E000164635462B460F4A69460F48094F3F6865
:1005F000B8470098A0420AD20098201A302190FBF8
:10060000F1F52B4600226946104601F0D5F8BDE809
:10061000FC81000030000020002C01401C00024042
:100620002800002038000020340000202DE9F84385
:1006300005460E46174626480068002845D1012089
:100640002349086023480560234806602348076063
:100650002348009000F534640223002269461046C6
:1006600001F0AAF81D4A1168009AA21A302392FBE1
:10067000F3F0814201D20A4600E002469146C846A4
:100680004346164A69461448DFF848C0DCF800C003
:10069000E0470098A0420AD20098201A302190FB2F
:1006A000F1F8434600226946104601F085F84FF400
:1006B000B4610C4800F0A5FB01210B4801F018F9CA
:1006C0000121084800F054FB00BFBDE8F88300009A
:1006D00024000020300000203400002038000020DA
:1006E0005400002030000240000400402DE9F34196
:1006F0000C462348006858B90021224801F0F8F858
:100700000021214800F034FB00202049086034E03B
:100710001F48006870B90098201A302190FBF1F54D
:100720002B4600226946104601F046F80020144985
:10073000086022E0164A1068009AA21A302392FB41
:10074000F3F1884201D2024600E00A4616463546D9
:100750002B460F4A69460F48094F3F68B847009833
:10076000A0420AD20098201A302190FBF1F52B46C6
:1007700000226946104601F01FF8BDE8FC81000028
:10078000300000200004004030000240240000201F
:1007900038000020340000202DE9F84305460E46BD
:1007A000174626480068002845D1012023490860E3
:1007B00023480560234806602348076023480090CB
:1007C00000F53464022300226946104600F0F4FF6D
:1007D0001D4A1168009AA21A302392FBF3F081425D
:1007E00001D20A4600E002469146C8464346164AF0
:1007F00069461448DFF848C0DCF800C0E0470098BC
:10080000A0420AD20098201A302190FBF1F843460A
:1008100000226946104600F0CFFF4FF4B4610C4847
:1008200000F0EFFA0121880701F062F80121084881
:1008300000F09EFA00BFBDE8F88300002C00002005
:100840003000002034000020380000205400002038
:10085000580002402DE9F3410C462348006860B976
:1008600000214FF0804001F043F800211F4800F0C4
:100870007FFA00201E49086034E01E48006870B905
:100880000098201A302190FBF1F52B460022694692
:10089000104600F091FF00201349086022E0154A3D
:1008A0001068009AA21A302392FBF3F1884201D219
:1008B000024600E00A46164635462B460D4A694672
:1008C0000D48094F3F68B8470098A0420AD20098E7
:1008D000201A302190FBF1F52B4600226946104684
:1008E00000F06AFFBDE8FC813000002058000240A3
:1008F0002C00002038000020340000202DE9F843AF
:1009000005460E46174626480068002845D10120B6
:100910002349086023480560234806602348076090
:100920002348009000F534640223002269461046F3
:1009300000F042FF1D4A1168009AA21A302392FB70
:10094000F3F0814201D20A4600E002469146C846D1
:100950004346164A69461448DFF848C0DCF800C030
:10096000E0470098A0420AD20098201A302190FB5C
:10097000F1F8434600226946104600F01DFF4FF48F
:10098000B4610C4800F03DFA01210B4800F0B0FFC3
:100990000121084800F0ECF900BFBDE8F883000031
:1009A000200000203000002034000020380000200B
:1009B000540000206C000240000400402DE9F34187
:1009C0000C462348006858B90021224800F090FFE7
:1009D0000021214800F0CCF900202049086034E0D3
:1009E0001F48006870B90098201A302190FBF1F57B
:1009F0002B4600226946104600F0DEFE0020144916
:100A0000086022E0164A1068009AA21A302392FB6E
:100A1000F3F1884201D2024600E00A461646354606
:100A20002B460F4A69460F48094F3F68B847009860
:100A3000A0420AD20098201A302190FBF1F52B46F3
:100A400000226946104600F0B7FEBDE8FC810000B8
:100A500030000020000400406C0002402000002014
:100A600038000020340000202DE9F84305460E46EA
:100A7000174626480068002845D101202349086010
:100A800023480560234806602348076023480090F8
:100A900000F53464022300226946104600F08CFE03
:100AA0001D4A1168009AA21A302392FBF3F081428A
:100AB00001D20A4600E002469146C8464346164A1D
:100AC00069461448DFF848C0DCF800C0E0470098E9
:100AD000A0420AD20098201A302190FBF1F8434638
:100AE00000226946104600F067FE4FF4B4610C48DE
:100AF00000F087F90121880700F0FAFE012108487B
:100B000000F036F900BFBDE8F883000018000020AF
:100B10003000002034000020380000205400002065
:100B2000800002402DE9F3410C462348006860B97B
:100B300000214FF0804000F0DBFE00211F4800F054
:100B400017F900201E49086034E01E48006870B99B
:100B50000098201A302190FBF1F52B4600226946BF
:100B6000104600F029FE00201349086022E0154AD3
:100B70001068009AA21A302392FBF3F1884201D246
:100B8000024600E00A46164635462B460D4A69469F
:100B90000D48094F3F68B8470098A0420AD2009814
:100BA000201A302190FBF1F52B46002269461046B1
:100BB00000F002FEBDE8FC81300000208000024011
:100BC00018000020380000203400002010B5042058
:100BD00000F0DAF838B1042000F0BCF80849A1F5BB
:100BE000B460FFF711FC022000F0CEF830B1022013
:100BF00000F0B0F803490248FFF706FC10BD000002
:100C0000F4050020940B002010B5402000F0BCF843
:100C100038B1402000F09EF80849A1F5B460FFF714
:100C2000ABFC202000F0B0F830B1202000F092F8AA
:100C300003490248FFF7A0FC10BD0000F4050020A6
:100C4000940B002010B54FF4806000F09DF840B187
:100C50004FF4806000F07EF80949A1F5B460FFF719
:100C600045FD4FF4007000F08FF838B14FF400707C
:100C700000F070F803490248FFF738FD10BD00008E
:100C8000F4050020940B002010B54FF4802000F0F4
:100C90007BF840B14FF4802000F05CF80949A1F5E1
:100CA000B460FFF7D7FD4FF4003000F06DF838B1B5
:100CB0004FF4003000F04EF803490248FFF7CAFD38
:100CC00010BD0000F4050020940B002010B54FF477
:100CD000800000F059F840B14FF4800000F03AF87D
:100CE0000949A1F5B460FFF769FE4FF4001000F068
:100CF0004BF838B14FF4001000F02CF803490248CB
:100D0000FFF75CFE10BD0000F4050020940B0020EE
:100D100010B54FF0806000F037F840B14FF08060C0
:100D200000F018F80949A1F5B460FFF7FBFE4FF099
:100D3000007000F029F838B14FF0007000F00AF8A8
:100D400003490248FFF7EEFE10BD0000F405002045
:100D5000940B002000F0805111B10349086001E0BC
:100D6000024948607047000004040240000002404D
:100D700021B1026842F00102026004E002684FF60D
:100D8000FE731A400260704701460020002201F005
:100D9000805313B1054B1A6801E0054B1A6802EA4B
:100DA00001030BB1012000E0002070470004024065
:100DB000000002401AB103680B43036002E00368BD
:100DC0008B430360704710B50022026847F6F0734A
:100DD0009A430C6A8B6823430C6923434C69234371
:100DE0008C692343CC6923434C6A23438C6A234395
:100DF0001A430260CB6843600B6883604B68C36032
:100E000010BD416070470021016041608160C16098
:100E1000016141618161C16101624162816270472A
:100E200070472DE9F04102460025002600200023EE
:100E30000024002791F803C00CF00F0591F803C0BF
:100E40000CF0100CBCF1000F03D091F802C04CEA7A
:100E5000050591F800C0BCF1000F31D014680020E6
:100E60002BE04FF0010C0CFA00F3B1F800C00CEAD3
:100E700003069E4220D183004FF00F0C0CFA03F7BB
:100E8000BC4305FA03FC4CEA040491F803C0BCF12E
:100E9000280F06D14FF0010C0CFA00FCC2F814C068
:100EA0000AE091F803C0BCF1480F05D14FF0010CE6
:100EB0000CFA00FCC2F810C0401C0828D1D3146002
:100EC000B1F800C0BCF1FF0F34DD546800202EE003
:100ED00000F1080C4FF0010808FA0CF3B1F800C05B
:100EE0000CEA03069E4221D183004FF00F0C0CFA4E
:100EF00003F7BC4305FA03FC4CEA040491F803C071
:100F0000BCF1280F05D100F1080C08FA0CF8C2F862
:100F1000148091F803C0BCF1480F07D100F1080C10
:100F20004FF0010808FA0CF8C2F81080401C08289D
:100F3000CED35460BDE8F0814FF6FF7101800221ED
:100F400081700421C170704700BFFEE7014601486F
:100F5000405C70472422000810B5044600F0CEFE25
:100F600000F0CCFF10480470007830B90F481049E9
:100F70000A8802808978817005E00C480D490A884A
:100F800002808978817000200AE000EB40010A4A63
:100F90001144064A13880B8092788A70411CC8B2AB
:100FA0004028F2DB10BD00004C000020490000206A
:100FB0002423000827230008271E002030B50246FE
:100FC00022B1012A11D0022A2DD11DE0002009E012
:100FD00000EB40030B44154C25881D80A4789C70C1
:100FE000431CD8B28728F3DB1EE0002009E000EBA9
:100FF00040030B440E4C25881D80A4789C70431C34
:10100000D8B28728F3DB0FE0002009E000EB4003B3
:101010000B44074C25881D80A4789C70431CD8B2D3
:101020008728F3DB00E000BF00BF30BD2A230008A3
:101030004900002030B5024622B1012A11D0022A0F
:101040002DD11DE0002009E000EB40030B44154CBE
:1010500025881D80A4789C70431CD8B27828F3DBC7
:101060001EE0002009E000EB40030B440E4C2588F5
:101070001D80A4789C70431CD8B27828F3DB0FE065
:10108000002009E000EB40030B44074C25881D803D
:10109000A4789C70431CD8B27828F3DB00E000BF32
:1010A00000BF30BD2A230008490000200B480C492E
:1010B0000A8802808978817000200AE000EB4001F4
:1010C000084A1144054A13880B8092788A70411CA3
:1010D00088B2B0F5C66FF1DD70470000490000200E
:1010E0002D230008940B002030B5024622B1012ABE
:1010F00011D0022A76D165E0002009E000EB400320
:101100000B443A4C25881D80A4789C70431C98B2EF
:10111000FF28F3DD67E036480078012804D1354820
:101120000078401E334B187032480078002803DDE9
:1011300000202F4B187008E02E48007828B90420B2
:101140002C4B187000202A4B1870002037E0294BD8
:101150001B7800EBC303FF2B0FDC264B1B7800EB47
:10116000C303254CE35C43B100EB40030B44234C29
:1011700025881D80A4789C701FE01E4B1B7800EB17
:10118000C303FF2B11DD1B4B1B7800EBC303A3F53F
:101190008073194CE35C43B100EB40030B44174CE4
:1011A00025881D80A4789C7007E000EB40030B4469
:1011B0000E4C25881D80A4789C70431C98B2FF2893
:1011C000C5DD10E0002009E000EB40030B440B4CB0
:1011D00025881D80A4789C70431C98B2FF28F3DDFD
:1011E00001E0FFE700BF00BF30BD00002A23000878
:1011F0003D0000204E000020303B00084900002048
:1012000030B5024622B1012A11D0022A2DD11DE0AB
:10121000002009E000EB40030B44154C25881D809D
:10122000A4789C70431CD8B23228F3DB1EE0002067
:1012300009E000EB40030B440D4C25881D80A47889
:101240009C70431CD8B23228F3DB0FE0002009E089
:1012500000EB40030B44074C25881D80A4789C704C
:10126000431CD8B23228F3DB00E000BF00BF30BD22
:101270002A2300084900002030B5024622B1012A85
:1012800012D0022A6FD12BE0002009E000EB4003CE
:101290000B446A4C25881D80A4789C70431C98B22E
:1012A000B0F5806FF2DBC6E0002015E0644B1B5CFC
:1012B00043B100EB40030B44624C25881D80A478A9
:1012C0009C7007E000EB40030B445C4C25881D80BC
:1012D000A4789C70431C98B2B0F5806FE6DBAAE05E
:1012E00059485A4B1B78C05CD8B9002015E0584BC0
:1012F0001B5C43B100EB40030B44524C25881D801E
:10130000A4789C7007E000EB40030B444B4C25880D
:101310001D80A4789C70431C98B2B0F5806FE6DB0A
:1013200087E04948494B1B78C05C01281CD100204C
:1013300015E0484B1B5C43B100EB40030B44414CB0
:1013400025881D80A4789C7007E000EB40030B44C7
:101350003A4C25881D80A4789C70431C98B2B0F547
:10136000806FE6DB65E065E03748384B1B78C05C92
:1013700002281BD1002015E0374B1B5C43B100EB6A
:1013800040030B442F4C25881D80A4789C7007E0F7
:1013900000EB40030B44294C25881D80A4789C70E9
:1013A000431C98B2B0F5806FE6DB42E02648274B3D
:1013B0001B78C05C03281BD1002015E0274B1B5C69
:1013C00043B100EB40030B441E4C25881D80A478DC
:1013D0009C7007E000EB40030B44184C25881D80EF
:1013E000A4789C70431C98B2B0F5806FE6DB20E0D7
:1013F0001548164B1B78C05C04281AD1002015E054
:10140000174B1B5C43B100EB40030B440D4C25888C
:101410001D80A4789C7007E000EB40030B44074C50
:1014200025881D80A4789C70431C98B2B0F5806F0D
:10143000E6DB00BF00BF00BF30BD00002A2300086C
:1014400030230008490000203E0000204300002017
:1014500030270008302B0008302F000830330008F8
:101460003037000810B500F08FFC00BF00F0ACFE74
:101470000028FBD035480078022802D1FFF716FE7D
:1014800023E03349334A1278885C3349FFF72CFE56
:101490002F49304A1278885C3049FFF7B1FE2C4959
:1014A0002C4A1278885C2D499631FFF787FD284930
:1014B000284A1278885C2A49FFF7DEFE2449254A2B
:1014C0001278885C2749FFF7B5FD22480078052887
:1014D00022D2DFE800F003090F151B0040F2316152
:1014E0001D4800F0CFFC18E040F231611A4800F0CE
:1014F000D5FC12E040F23161174800F0DBFC0CE053
:1015000040F23161144800F0E1FC06E040F2316144
:10151000114800F0E7FC00E010BD00BF0D48007866
:10152000042805DA0B480078401C0A4908700BE0D3
:1015300000BF00F049FE0028FBD040210A4800F01F
:1015400065FE00200349087000BFE5E74C0000205D
:101550004400002043000020940B0020940E002043
:10156000BF100020BF1C0020271E002000BFFEE788
:101570007047000070B5002100230F22C47804B327
:10158000154C246804F4E064C4F5E064210AC1F158
:101590000403CA40447804FA03F1847814402143D8
:1015A00009010E4C0678A155047804F01F050124AA
:1015B000AC4005786D11AD0005F1E025C5F800419E
:1015C00009E0047804F01F050124AC40044D0678BE
:1015D000761145F8264070BD0CED00E000E400E017
:1015E00080E100E002490143024A116070470000B7
:1015F0000000FA050CED00E07047000029B1064A32
:1016000052690243044B5A6104E0034A526982431F
:10161000014B5A61704700000010024029B1064A90
:10162000D2690243044BDA6104E0034AD26982437F
:10163000014BDA61704700000010024029B1064AF0
:1016400092690243044B9A6104E0034A926982431F
:10165000014B9A6170470000001002402DE9F047ED
:1016600005460E462878FFF771FC80466878FFF73C
:101670006DFC8146A878FFF769FC8246802700242C
:1016800020E008EA070008B1152100E0092106F171
:10169000100000EB4400018009EA070008B11520A2
:1016A00000E0092006EB440108800AEA070008B1BF
:1016B000152100E0092106F1200000EB4400018023
:1016C0007F10641C082CDCDBBDE8F087704710B588
:1016D00000F002F810BD00000CB500200190009051
:1016E0003348006840F480303149086000BF30481A
:1016F000006800F4003000900198401C01900098B0
:1017000018B90198B0F5A06FF1D12948006800F42C
:10171000003010B10120009001E0002000900098FE
:10172000012843D12348006840F010002149086097
:101730000846006820F0030008600846006840F092
:10174000020008601A484068194948600846406825
:1017500048600846406840F4806048600846406839
:1017600020F47C1048600846406840F4E810486067
:101770000846006840F08070086000BF0C480068B0
:1017800000F000700028F9D00948406820F00300FC
:10179000074948600846406840F00200486000BFC2
:1017A0000348406800F00C000828F9D10CBD000087
:1017B00000100240002002402DE9F04106460C4690
:1017C00017461D4605EB450211012068FEF736FD60
:1017D00005EB4501206800EB01102060BDE8F081B9
:1017E0002DE9F04704460D4616461F46D4F8008002
:1017F000D5F800903068C01B306007E0494609F119
:101800003009404608F10308FFF728FF381EA7F10A
:101810000107F3D1C4F80080C5F80090BDE8F08757
:101820007047000010B51348006840F001001149EE
:10183000086008464068104908400E49486008465C
:1018400000680E4908400B4908600846006820F40B
:10185000802008600846406820F4FE0048604FF48D
:101860001F008860FFF733FF4FF0006004490860F5
:1018700010BD0000001002400000FFF8FFFFF6FE60
:1018800008ED00E010B50121124800F055F80128DC
:101890001ED111480068401C0F49086008460068C6
:1018A00040F6C311884204D100F066FA01200B49CA
:1018B0000870094800686421B0FBF1F201FB1200D6
:1018C00010B90120064908700121024800F00DF806
:1018D00010BD000000080040140000203C00002063
:1018E0003D000020CA4302827047CA43028270470B
:1018F00021B1028842F00102028004E002884FF622
:10190000FE731A400280704731B1B0F8442042F4AF
:101910000042A0F8442005E0B0F84420C2F30E02D3
:10192000A0F8442070471AB183890B43838102E0F9
:1019300083898B438381704730B5024600200023A2
:101940000024158A05EA0103958905EA010413B10B
:101950000CB1012000E0002030BD1AB183890B4397
:10196000838102E083898B438381704701894FF62D
:10197000F87211400181704770B5002400220023E5
:10198000058C4FF6FE7635400584028C8388048BE7
:101990004FF68F752C40B51E2C400D882C43751EBC
:1019A0002A400D892A434D882A43144DA8420BD062
:1019B000134DA84208D0134DA84205D0124DA8429D
:1019C00002D0124DA84213D14FF6F7752A404D8927
:1019D0002A434FF6FB752A408D882A434FF6FF6550
:1019E0002B404FF6FF552B408D892B43CD892B4340
:1019F00083800483CD888586028470BD002C0140DD
:101A000000340140004001400044014000480140D2
:101A10000A460021018B4FF6F773194011430183E9
:101A20007047000070B5002400220023058C4FF69B
:101A3000EF7635400584028C8388048B48F6FF7569
:101A40002C404FF6FF452C400D884FF6FF7606EAF6
:101A500005252C434FF6DF752A400D8906EA05154A
:101A60002A434D8806EA05152A43154DA84202D09F
:101A7000144DA8421DD14FF67F752A404D894FF66F
:101A8000FF7606EA05152A434FF6BF752A408D8872
:101A900006EA05152A434FF6FF352B404FF2FF7536
:101AA0002B408D8906EA85052B43CD8906EA8505FD
:101AB0002B4383800483CD880587028470BD00009A
:101AC000002C0140003401400A460021018B4FF2F6
:101AD000FF7319404FF6FF7303EA02231943018392
:101AE0007047000070B5002400220023058C4FF6DB
:101AF000FF6635400584028C8388848B4FF68F7592
:101B00002C404FF6FC752C400D882C434FF6FF55AA
:101B10002A400D894FF6FF7606EA05252A434D88AF
:101B200006EA05252A43154DA84202D0144DA842C5
:101B30001DD14FF2FF752A404D894FF6FF7606EA18
:101B400005252A434FF6FF352A408D8806EA0525EC
:101B50002A434EF6FF752B404DF6FF752B408D89BD
:101B600006EA05152B43CD8906EA05152B4383802C
:101B70008483CD888587028470BD0000002C0140DD
:101B8000003401400A460021818B4FF6F77319405B
:101B9000114381837047000070B5002200230024A8
:101BA000058C4EF6FF7635400584038C8488828B45
:101BB00048F6FF752A404FF6FF452A400D884FF63C
:101BC000FF7606EA05252A434DF6FF752B400D8961
:101BD00006EA05352B434D8806EA05352B430B4DA8
:101BE000A84202D00A4DA84208D14BF6FF752C40FE
:101BF0008D894FF6FF7606EA85152C438480828313
:101C0000CD88A0F84050038470BD0000002C014036
:101C1000003401400A460021818B4FF2FF731940C6
:101C20004FF6FF7303EA02231943818370470021B3
:101C3000018041808180C180018141818181C18198
:101C400070470000002202881D4B98420ED01D4BA9
:101C500098420BD0B0F1804F08D01B4B984205D072
:101C60001A4B984202D01A4B984204D14FF68F7308
:101C70001A404B881A43174B984207D0164B98428C
:101C800004D04FF6FF431A40CB881A4302808B885A
:101C900083850B8803850A4B98420BD0094B9842E9
:101CA00008D00E4B984205D00D4B984202D00D4BF8
:101CB000984201D10B7A038601238382704700008A
:101CC000002C0140003401400004004000080040A6
:101CD000000C004000100040001400400040014093
:101CE00000440140004801404FF6FF71818000210F
:101CF0000180C18041800172704700001FB5012141
:101D00000420FFF78BFC1B48FFF730FE0020ADF8E6
:101D10000A00ADF8060040F2E730ADF808004720B1
:101D2000ADF8040000208DF80C0001A91148FFF760
:101D300089FF01210F48FFF7D5FD012211460D480B
:101D4000FFF70BFE4FF4A060FFF74CFC1E208DF850
:101D5000000001208DF8030003208DF801008DF8AC
:101D600002006846FFF706FC01210248FFF7C0FDAC
:101D70001FBD0000000800400020014908607047B6
:101D80001400002000BFFEE710B52C4800780028A2
:101D900035D12B480078012831D1FFF7EDFF002025
:101DA0002749087027480078401C264908700220FF
:101DB0002549264A127888542248007805280DD1F2
:101DC00000202049087000BF06E000211E4A11547F
:101DD0001F4A1154411CC8B20528F6DB0DE005204E
:101DE00000F040F804461848005D28B90120164963
:101DF00008551648047001E000BFF0E71DE00F48E9
:101E00000078012819D100200C4908700C4908708D
:101E10000C49087000BF06E000210B4A11540C4A1F
:101E20001154411CC8B20528F6DB052000F01AF851
:101E3000044601200449085500BF10BD3C000020A5
:101E40004D00002050000020440000204F000020E2
:101E50003E0000200020FFF77FF801E0FFF702FBC3
:101E6000FCE7000010B5044605480068FEF7C8F915
:101E7000FEF78CF990FBF4F104FB1100C0B210BD29
:101E80001400002070B504460D462A46214602483B
:101E9000FEF7EAFD70BD0000E117000870B50446CA
:101EA0000D462A4621460248FEF750FA70BD000052
:101EB000E117000870B504460D462A46214602483F
:101EC000FEF71CFD70BD0000E117000870B5044668
:101ED0000D462A4621460248FEF7A8FB70BD0000C9
:101EE000E117000870B504460D462A46214602480F
:101EF000FEF7DEFA70BD0000E117000800B595B0EE
:101F000001210846FFF78AFB01210220FFF786FB2B
:101F100001210420FFF792FB01210820FFF78EFB2F
:101F20000121C802FFF78AFB01210846FFF766FB83
:101F300014A8FFF701F840F24710ADF85000032055
:101F40008DF8520018208DF8530014A99548FEF71B
:101F500068FF0220ADF8500014A99348FEF761FF16
:101F600011A8FFF7C1FE914800689149B0FBF1F05C
:101F7000401E80B2ADF844000020ADF846001D20A0
:101F8000ADF848000020ADF84A0011A94FF080409C
:101F9000FFF758FE11A98748FFF754FE83480068F1
:101FA0008349B0FBF1F0401E80B2ADF8440011A9A6
:101FB0008148FFF747FE0DA8FFF739FE6020ADF816
:101FC00034000120ADF836000020ADF83A00ADF83D
:101FD0003C000DA94FF08040FFF724FD0821C80602
:101FE000FFF772FD0DA94FF08040FFF77BFD082140
:101FF000C806FFF7C7FD0DA96E48FFF7BDFC082115
:102000006C48FFF705FD0DA96A48FFF7C5FD0821DB
:102010006848FFF7FFFD0DA96748FFF7ADFC0821F1
:102020006548FFF7F5FC0DA94FF08040FFF7A4FCD1
:102030000821C806FFF7ECFC02A8FEF7E4FE5F48A3
:1020400002905F480390102004904FF4B460059014
:1020500000200690802007904000089080000990A2
:1020600020200A9000020B9000200C9002A95548F5
:10207000FEF7A9FE5148001D029002A95148783888
:10208000FEF7A1FE4B483430029002A94D481438A7
:10209000FEF799FE47484030029002A9494850385F
:1020A000FEF791FE44483430029002A94548643856
:1020B000FEF789FE4148001F029002A941482838D6
:1020C000FEF781FE012291020805FFF72CFC012298
:1020D000D102C804FFF727FC012251023548FFF75F
:1020E00022FC012211033348FFF71DFC012251029B
:1020F0003148FFF718FC012251024805FFF713FC95
:1021000011208DF8040000208DF805008DF80600E0
:1021100001208DF8070001A8FFF72CFA0B208DF89D
:10212000040001A8FFF726FA10208DF8040001A88A
:10213000FFF720FA0D208DF8040001A8FFF71AFA26
:102140000C208DF8040001A8FFF714FA0F208DF879
:10215000040001A8FFF70EFA012206211948FEF734
:1021600029FE0122062117487838FEF723FE0122B6
:10217000062114481438FEF71DFE012206211148DD
:102180005038FEF717FE012206210E486438FEF78C
:1021900011FE012206210B482838FEF70BFE15B070
:1021A00000BD000000080140000C014000000020BC
:1021B00000366E0100040040002C01403800004051
:1021C00054000020800002400A48006880B90A4894
:1021D000006868B90948006850B90948006838B90A
:1021E0000848006820B90848006808B9012070470D
:1021F0000020FCE71C000020180000202000002028
:1022000024000020280000202C00002070B5044687
:102210000D462A4621460248FEF7BEFA70BD000070
:10222000E1170008000000000000000000000000AE
:102230000101010101010101020202020202030384
:10224000030304040404050505050606060707073D
:102250000808080909090A0A0B0B0B0C0C0D0D0ED6
:102260000E0F0F101011111212131314141515164E
:1022700017171818191A1A1B1C1C1D1E1E1F2020A8
:1022800021222323242526262728292A2A2B2C2DE0
:102290002E2F2F30313233343536373838393A3BF8
:1022A0003C3D3E3F4041424344454647494A4B4CF2
:1022B0004D4E4F5051525455565758595B5C5D5EC8
:1022C0005F61626364666768696B6C6D6F70717380
:1022D00074757778797B7C7E7F8082838586888918
:1022E0008B8C8E8F9192949597989A9B9D9EA0A28D
:1022F000A3A5A6A8AAABADAFB0B2B4B5B7B9BABCE6
:10230000BEC0C1C3C5C7C8CACCCECFD1D3D5D7D91B
:10231000DADCDEE0E2E4E6E8E9EBEDEFF1F3F5F735
:10232000F9FBFDFFFF00000000FF0000003200008D
:10233000010100000000000000000000000000009B
:10234000000000000000000000000000000001018B
:102350000101010101010000000000000000000077
:102360000000000000000000010101010101010165
:102370000101000000010101010000000000000057
:102380000000000000000101010000000000000149
:102390000100000000000000010101000000000039
:1023A0000000000001010100000000000000000129
:1023B0000101000000000000000001010100000018
:1023C0000000000101000000000000000101010107
:1023D00001000001010000000000000101010000F7
:1023E00000000101000000000000010100000000E9
:1023F00000000000000101000000000001010000D9
:1024000000000101000000000001000000000101C7
:1024100000010100000001010000000101010101B3
:1024200001010101010101010101010000010000A0
:10243000010100000000000000000000000000009A
:10244000000000000000000000000000000001018A
:102450000101010101010000000000000000000076
:102460000000000000000000010101010101010164
:102470000101000000010101010000000000000056
:102480000000000000000101010000000000000148
:102490000100000000000000010101000000000038
:1024A0000000000001010100000000000000000128
:1024B0000101000000000000000001010100000017
:1024C0000000000101000000000000000101010106
:1024D00001000001010000000000000101010000F6
:1024E00000000101000000000000010100000000E8
:1024F00000000000000101000000000001010000D8
:1025000000000101000000000001000000000101C6
:1025100000010100000001010000000101010101B2
:10252000010101010101010101010100000100009F
:102530000101000000000000000000000000000099
:102540000000000000000000000000000000010189
:102550000101010101010000000000000000000075
:102560000000000000000000010101010101010163
:102570000101000000010101010000000000000055
:102580000000000000000101010000000000000147
:102590000100000000000000010101000000000037
:1025A0000000000001010100000000000000000127
:1025B0000101000000000000000001010100000016
:1025C0000000000101000000000000000101010105
:1025D00001000001010000000000000101010000F5
:1025E00000000101000000000000010100000000E7
:1025F00000000000000101000000000001010000D7
:1026000000000101000000000001000000000101C5
:1026100000010100000001010000000101010101B1
:10262000010101010101010101010100000100009E
:102630000101000000000000000000000000000098
:102640000000000000000000000000000000010188
:102650000101010101010000000000000000000074
:102660000000000000000000010101010101010162
:102670000101000000010101010000000000000054
:102680000000000000000101010000000000000146
:102690000100000000000000010101000000000036
:1026A0000000000001010100000000000000000126
:1026B0000101000000000000000001010100000015
:1026C0000000000101000000000000000101010104
:1026D00001000001010000000000000101010000F4
:1026E00000000101000000000000010100000000E6
:1026F00000000000000101000000000001010000D6
:1027000000000101000000000001000000000101C4
:1027100000010100000001010000000101010101B0
:10272000010101010101010101010100000100009D
:102730000000000000000000000000000000000099
:102740000000000000000000000000000000010187
:102750000101010101010000000000000000000073
:102760000000000000000000010101010101000063
:102770000000000000010101010000000000000055
:102780000000000000000101010000000000000046
:102790000000000000000000010101000000000036
:1027A0000000000001010100000000000000000026
:1027B0000000000000000000000001010100000016
:1027C0000000000101000000000000000000000007
:1027D00000000000000000000000000101010000F6
:1027E00000000101000000000000000000000000E7
:1027F00000000000000000000000000001010000D7
:1028000000000101000000000000000000000000C6
:1028100000000000000000000000000001010100B5
:1028200000010100000000000000000000000000A6
:102830000000000000000000000000000000000098
:102840000000000000000000000000000000010186
:102850000101010101010000000000000000000072
:102860000000000000000000010101010101000062
:102870000000000000010101010000000000000054
:102880000000000000000101010000000000000045
:102890000000000000000000010101000000000035
:1028A0000000000001010100000000000000000025
:1028B0000000000000000000000001010100000015
:1028C0000000000101000000000000000000000006
:1028D00000000000000000000000000101010000F5
:1028E00000000101000000000000000000000000E6
:1028F00000000000000000000000000001010000D6
:1029000000000101000000000000000000000000C5
:1029100000000000000000000000000001010100B4
:1029200000010100000000000000000000000000A5
:102930000000000000000000000000000000000097
:102940000000000000000000000000000000010185
:102950000101010101010000000000000000000071
:102960000000000000000000010101010101000061
:102970000000000000010101010000000000000053
:102980000000000000000101010000000000000044
:102990000000000000000000010101000000000034
:1029A0000000000001010100000000000000000024
:1029B0000000000000000000000001010100000014
:1029C0000000000101000000000000000000000005
:1029D00000000000000000000000000101010000F4
:1029E00000000101000000000000000000000000E5
:1029F00000000000000000000000000001010000D5
:102A000000000101000000000000000000000000C4
:102A100000000000000000000000000001010100B3
:102A200000010100000000000000000000000000A4
:102A30000000000000000000000000000000000096
:102A40000000000000000000000000000000010184
:102A50000101010101010000000000000000000070
:102A60000000000000000000010101010101000060
:102A70000000000000010101010000000000000052
:102A80000000000000000101010000000000000043
:102A90000000000000000000010101000000000033
:102AA0000000000001010100000000000000000023
:102AB0000000000000000000000001010100000013
:102AC0000000000101000000000000000000000004
:102AD00000000000000000000000000101010000F3
:102AE00000000101000000000000000000000000E4
:102AF00000000000000000000000000001010000D4
:102B000000000101000000000000000000000000C3
:102B100000000000000000000000000001010100B2
:102B200000010100000000000000000000000000A3
:102B30000000000000000000000000000000000095
:102B40000000000000000000000000000000000085
:102B50000000000000000000000000000000000075
:102B60000000000000000000000000000000000065
:102B70000000000000000000000000000000000055
:102B80000000000000000000000000000001010142
:102B90000000010101010000000000000000000031
:102BA0000000000000000000000101000000000023
:102BB0000000000000000101000000000000000013
:102BC0000000000000000001010000000000000003
:102BD00000000000000000000101000000000000F3
:102BE00000000000000001000000000000000000E4
:102BF00000000000000000000001000000000000D4
:102C000000000000000101000000000000000000C2
:102C100000000000000000000000010000000000B3
:102C200000000000000100000000000000000000A3
:102C30000000000000000000000000000000000094
:102C40000000000000000000000000000000000084
:102C50000000000000000000000000000000000074
:102C60000000000000000000000000000000000064
:102C70000000000000000000000000000000000054
:102C80000000000000000000000000000001010141
:102C90000000010101010000000000000000000030
:102CA0000000000000000000000101000000000022
:102CB0000000000000000101000000000000000012
:102CC0000000000000000001010000000000000002
:102CD00000000000000000000101000000000000F2
:102CE00000000000000001000000000000000000E3
:102CF00000000000000000000001000000000000D3
:102D000000000000000101000000000000000000C1
:102D100000000000000000000000010000000000B2
:102D200000000000000100000000000000000000A2
:102D30000000000000000000000000000000000093
:102D40000000000000000000000000000000000083
:102D50000000000000000000000000000000000073
:102D60000000000000000000000000000000000063
:102D70000000000000000000000000000000000053
:102D80000000000000000000000000000001010140
:102D9000000001010101000000000000000000002F
:102DA0000000000000000000000101000000000021
:102DB0000000000000000101000000000000000011
:102DC0000000000000000001010000000000000001
:102DD00000000000000000000101000000000000F1
:102DE00000000000000001000000000000000000E2
:102DF00000000000000000000001000000000000D2
:102E000000000000000101000000000000000000C0
:102E100000000000000000000000010000000000B1
:102E200000000000000100000000000000000000A1
:102E30000000000000000000000000000000000092
:102E40000000000000000000000000000000000082
:102E50000000000000000000000000000000000072
:102E60000000000000000000000000000000000062
:102E70000000000000000000000000000000000052
:102E8000000000000000000000000000000101013F
:102E9000000001010101000000000000000000002E
:102EA0000000000000000000000101000000000020
:102EB0000000000000000101000000000000000010
:102EC0000000000000000001010000000000000000
:102ED00000000000000000000101000000000000F0
:102EE00000000000000001000000000000000000E1
:102EF00000000000000000000001000000000000D1
:102F000000000000000101000000000000000000BF
:102F100000000000000000000000010000000000B0
:102F200000000000000100000000000000000000A0
:102F30000000000000000000000000000000000091
:102F40000000000000000000000000000000000081
:102F50000000000000000000000000000000000071
:102F60000000000000000000000000000000000061
:102F70000000000000000000000000000000000051
:102F80000000000000000000000000000000000041
:102F90000000000000000000000000000000000031
:102FA0000000000000000000000000000000000021
:102FB0000000000000000000000000000000000011
:102FC00000000000000000000000000000000101FF
:102FD00000010101000000000000000000000000EE
:102FE00000000000000000000000000101000000DF
:102FF00000000000010100000000000000000000CF
:1030000000000000000000000000010000000000BF
:1030100000000000000101000000000000000000AE
:10302000000000000000000000010000000000009F
:103030000000000000000000000000000000000090
:103040000000000000000000000000000000000080
:103050000000000000000000000000000000000070
:103060000000000000000000000000000000000060
:103070000000000000000000000000000000000050
:103080000000000000000000000000000000000040
:103090000000000000000000000000000000000030
:1030A0000000000000000000000000000000000020
:1030B0000000000000000000000000000000000010
:1030C00000000000000000000000000000000101FE
:1030D00000010101000000000000000000000000ED
:1030E00000000000000000000000000101000000DE
:1030F00000000000010100000000000000000000CE
:1031000000000000000000000000010000000000BE
:1031100000000000000101000000000000000000AD
:10312000000000000000000000010000000000009E
:10313000000000000000000000000000000000008F
:10314000000000000000000000000000000000007F
:10315000000000000000000000000000000000006F
:10316000000000000000000000000000000000005F
:10317000000000000000000000000000000000004F
:10318000000000000000000000000000000000003F
:10319000000000000000000000000000000000002F
:1031A000000000000000000000000000000000001F
:1031B000000000000000000000000000000000000F
:1031C00000000000000000000000000000000101FD
:1031D00000010101000000000000000000000000EC
:1031E00000000000000000000000000101000000DD
:1031F00000000000010100000000000000000000CD
:1032000000000000000000000000010000000000BD
:1032100000000000000101000000000000000000AC
:10322000000000000000000000010000000000009D
:10323000000000000000000000000000000000008E
:10324000000000000000000000000000000000007E
:10325000000000000000000000000000000000006E
:10326000000000000000000000000000000000005E
:10327000000000000000000000000000000000004E
:10328000000000000000000000000000000000003E
:10329000000000000000000000000000000000002E
:1032A000000000000000000000000000000000001E
:1032B000000000000000000000000000000000000E
:1032C00000000000000000000000000000000101FC
:1032D00000010101000000000000000000000000EB
:1032E00000000000000000000000000101000000DC
:1032F00000000000010100000000000000000000CC
:1033000000000000000000000000010000000000BC
:1033100000000000000101000000000000000000AB
:10332000000000000000000000010000000000009C
:10333000000000000000000000000000000000008D
:10334000000000000000000000000000000000007D
:10335000000000000000000000000000000000006D
:10336000000000000000000000000000000000005D
:10337000000000000000000000000000000000004D
:10338000000000000000000000000000000000003D
:10339000000000000000000000000000000000002D
:1033A000000000000000000000000000000000001D
:1033B000000000000000000000000000000000000D
:1033C00000000000000000000000000000000000FD
:1033D00000000000000000000000000000000000ED
:1033E00000000000000000000000000000010101DA
:1033F00000000101000000000000000000000000CB
:1034000000000000000000000000000101000000BA
:1034100000000000010000000000000000000000AB
:10342000000000000000000000000001000000009B
:10343000000000000000000000000000000000008C
:10344000000000000000000000000000000000007C
:10345000000000000000000000000000000000006C
:10346000000000000000000000000000000000005C
:10347000000000000000000000000000000000004C
:10348000000000000000000000000000000000003C
:10349000000000000000000000000000000000002C
:1034A000000000000000000000000000000000001C
:1034B000000000000000000000000000000000000C
:1034C00000000000000000000000000000000000FC
:1034D00000000000000000000000000000000000EC
:1034E00000000000000000000000000000010101D9
:1034F00000000101000000000000000000000000CA
:1035000000000000000000000000000101000000B9
:1035100000000000010000000000000000000000AA
:10352000000000000000000000000001000000009A
:10353000000000000000000000000000000000008B
:10354000000000000000000000000000000000007B
:10355000000000000000000000000000000000006B
:10356000000000000000000000000000000000005B
:10357000000000000000000000000000000000004B
:10358000000000000000000000000000000000003B
:10359000000000000000000000000000000000002B
:1035A000000000000000000000000000000000001B
:1035B000000000000000000000000000000000000B
:1035C00000000000000000000000000000000000FB
:1035D00000000000000000000000000000000000EB
:1035E00000000000000000000000000000010101D8
:1035F00000000101000000000000000000000000C9
:1036000000000000000000000000000101000000B8
:1036100000000000010000000000000000000000A9
:103620000000000000000000000000010000000099
:10363000000000000000000000000000000000008A
:10364000000000000000000000000000000000007A
:10365000000000000000000000000000000000006A
:10366000000000000000000000000000000000005A
:10367000000000000000000000000000000000004A
:10368000000000000000000000000000000000003A
:10369000000000000000000000000000000000002A
:1036A000000000000000000000000000000000001A
:1036B000000000000000000000000000000000000A
:1036C00000000000000000000000000000000000FA
:1036D00000000000000000000000000000000000EA
:1036E00000000000000000000000000000010101D7
:1036F00000000101000000000000000000000000C8
:1037000000000000000000000000000101000000B7
:1037100000000000010000000000000000000000A8
:103720000000000000000000000000010000000098
:103730000000000000000000000000000000000089
:103740000000000000000000000000000000000079
:103750000000000000000000000000000000000069
:103760000000000000000000000000000000000059
:103770000000000000000000000000000000000049
:103780000000000000000000000000000000000039
:103790000000000000000000000000000000000029
:1037A0000000000000000000000000000000000019
:1037B0000000000000000000000000000000000009
:1037C00000000000000000000000000000000000F9
:1037D00000000000000000000000000000000000E9
:1037E00000000000000000000000000000000000D9
:1037F00000000000000000000000000000000000C9
:1038000000000000000000000000000000000000B8
:1038100001000000000000000000000000000000A7
:103820000000000000000000000000000000010097
:103830000000000000000000000000000000000088
:103840000000000000000000000000000000000078
:103850000000000000000000000000000000000068
:103860000000000000000000000000000000000058
:103870000000000000000000000000000000000048
:103880000000000000000000000000000000000038
:103890000000000000000000000000000000000028
:1038A0000000000000000000000000000000000018
:1038B0000000000000000000000000000000000008
:1038C00000000000000000000000000000000000F8
:1038D00000000000000000000000000000000000E8
:1038E00000000000000000000000000000000000D8
:1038F00000000000000000000000000000000000C8
:1039000000000000000000000000000000000000B7
:1039100001000000000000000000000000000000A6
:103920000000000000000000000000000000010096
:103930000000000000000000000000000000000087
:103940000000000000000000000000000000000077
:103950000000000000000000000000000000000067
:103960000000000000000000000000000000000057
:103970000000000000000000000000000000000047
:103980000000000000000000000000000000000037
:103990000000000000000000000000000000000027
:1039A0000000000000000000000000000000000017
:1039B0000000000000000000000000000000000007
:1039C00000000000000000000000000000000000F7
:1039D00000000000000000000000000000000000E7
:1039E00000000000000000000000000000000000D7
:1039F00000000000000000000000000000000000C7
:103A000000000000000000000000000000000000B6
:103A100001000000000000000000000000000000A5
:103A20000000000000000000000000000000010095
:103A30000000000000000000000000000000000086
:103A40000000000000000000000000000000000076
:103A50000000000000000000000000000000000066
:103A60000000000000000000000000000000000056
:103A70000000000000000000000000000000000046
:103A80000000000000000000000000000000000036
:103A90000000000000000000000000000000000026
:103AA0000000000000000000000000000000000016
:103AB0000000000000000000000000000000000006
:103AC00000000000000000000000000000000000F6
:103AD00000000000000000000000000000000000E6
:103AE00000000000000000000000000000000000D6
:103AF00000000000000000000000000000000000C6
:103B000000000000000000000000000000000000B5
:103B100001000000000000000000000000000000A4
:103B20000000000000000000000000000000010094
:103B30000000000101000000000100000000010081
:103B4000000101000001010000000101010100006D
:103B50000000000101000000000100000000010061
:103B6000000101000001010000000101010100004D
:103B70000000000101000000000100000000010041
:103B8000000101000001010000000101010100002D
:103B90000000000101000000000100000000010021
:103BA000000101000001010000000101010100000D
:103BB0000000000101000000000100000000010001
:103BC00000010100000101000000010101010000ED
:103BD00000000001010000000001000000000100E1
:103BE00000010100000101000000010101010000CD
:103BF00000000001010000000001000000000100C1
:103C000000010100000101000000010101010000AC
:103C100000000001010000000001000000000100A0
:103C2000000101000001010000000101010100008C
:103C3000503C00080000002054000000280100084B
:103C4000A43C000854000020DC25000044010008CA
:103C500000A24A040000000000000000010203046A
:103C60000607080900000000000000000000000036
:103C70000000000000000000000000000000000044
:103C80000000000000000000000000000000000034
:103C90000000000000000000000000000000040020
:043CA0000000000020
:04000005080000ED02
:00000001FF
