:020000040800F2
:10000000D811002089010008AB0500088B05000805
:10001000A7050008D30200088909000800000000B5
:100020000000000000000000000000008106000841
:1000300073040008000000001D0600089507000872
:10004000A3010008A3010008A3010008A301000800
:10005000A3010008A3010008A3010008A3010008F0
:10006000A3010008A3010008A3010008A3010008E0
:10007000A3010008A3010008A3010008A3010008D0
:10008000A3010008D9020008A3010008A301000889
:10009000A3010008A3010008A3010008A3010008B0
:1000A000A3010008A3010008A3010008A3010008A0
:1000B000A3010008A3010008A3010008A301000890
:1000C000A3010008A3010008A3010008A301000880
:1000D000A3010008A3010008A3010008A301000870
:1000E000A3010008A3010008A301000800F002F822
:1000F00000F03AF80AA090E8000C82448344AAF188
:100100000107DA4501D100F02FF8AFF2090EBAE885
:100110000F0013F0010F18BFFB1A43F0010318473B
:100120008C090000AC090000103A24BF78C878C1DF
:10013000FAD8520724BF30C830C144BF04680C60ED
:10014000704700000023002400250026103A28BF35
:1001500078C1FBD8520728BF30C148BF0B60704739
:100160001FB51FBD10B510BD00F07AF81146FFF79E
:10017000F7FF00F00BFC00F098F803B4FFF7F2FF74
:1001800003BC00F09FF80000094880470948004779
:10019000FEE7FEE7FEE7FEE7FEE7FEE7FEE7FEE737
:1001A000FEE7FEE704480549054A064B7047000094
:1001B00099070008ED000008D80B0020D811002096
:1001C000D80D0020D80D00204FF000020429C0F007
:1001D000128010F0030C00F01E80CCF1040CBCF176
:1001E000020F18BF00F8012BA8BF20F8022BA1EBCB
:1001F0000C0100F010B85FEAC17C24BF00F8012BAD
:1002000000F8012B48BF00F8012B7047704770477A
:1002100070474FF0000200B51346944696462039C9
:1002200022BFA0E80C50A0E80C50B1F12001BFF4AF
:10023000F7AF090728BFA0E80C5048BF0CC05DF815
:1002400004EB890028BF40F8042B08BF704748BF63
:1002500020F8022B11F0804F18BF00F8012B7047D7
:10026000754600F02BF8AE4605006946534620F06F
:100270000700854618B020B5FFF794FFBDE8204081
:100280004FF000064FF000074FF000084FF0000B52
:1002900021F00701AC46ACE8C009ACE8C009ACE805
:1002A000C009ACE8C0098D46704710B50446AFF3ED
:1002B00000802046BDE81040FFF75FBF0048704750
:1002C000740B002001491820ABBEFEE72600020097
:1002D000704700BFFEE7000010B54FF0806000F0EF
:1002E0008BF840B14FF0806000F06CF80949A1F53F
:1002F000B46000F013F84FF0007000F07DF838B1F2
:100300004FF0007000F05EF80349024800F006F874
:1003100010BD0000D4050020740B00202DE9F3412E
:100320000C462348006860B900214FF0804000F07F
:1003300063FA00211F4800F053F800201E490860AE
:1003400034E01E48006870B90098201A302190FBF4
:10035000F1F52B4600226946104600F007FA00200E
:100360001349086022E0154A1068009AA21A302347
:1003700092FBF3F1884201D2024600E00A4616469B
:1003800035462B460D4A69460D48094F3F68B84728
:100390000098A0420AD20098201A302190FBF1F573
:1003A0002B4600226946104600F0E0F9BDE8FC81CA
:1003B00018000020800002401400002020000020CF
:1003C0001C00002000F0805111B10349086001E0D9
:1003D00002494860704700000404024000000240E7
:1003E00021B1026842F00102026004E002684FF6A7
:1003F000FE731A400260704701460020002201F09F
:10040000805313B1054B1A6801E0054B1A6802EAE4
:1004100001030BB1012000E00020704700040240FE
:10042000000002401AB103680B43036002E0036856
:100430008B430360704710B50022026847F6F073E3
:100440009A430C6A8B6823430C6923434C6923430A
:100450008C692343CC6923434C6A23438C6A23432E
:100460001A430260CB6843600B6883604B68C360CB
:1004700010BD70472DE9F0410246002500260020FE
:1004800000230024002791F803C00CF00F0591F819
:1004900003C00CF0100CBCF1000F03D091F802C0A7
:1004A0004CEA050591F800C0BCF1000F31D014688A
:1004B00000202BE04FF0010C0CFA00F3B1F800C063
:1004C0000CEA03069E4220D183004FF00F0C0CFA79
:1004D00003F7BC4305FA03FC4CEA040491F803C09B
:1004E000BCF1280F06D14FF0010C0CFA00FCC2F849
:1004F00014C00AE091F803C0BCF1480F05D14FF0D9
:10050000010C0CFA00FCC2F810C0401C0828D1D322
:100510001460B1F800C0BCF1FF0F34DD5468002056
:100520002EE000F1080C4FF0010808FA0CF3B1F8C6
:1005300000C00CEA03069E4221D183004FF00F0C4D
:100540000CFA03F7BC4305FA03FC4CEA040491F8E7
:1005500003C0BCF1280F05D100F1080C08FA0CF813
:10056000C2F8148091F803C0BCF1480F07D100F124
:10057000080C4FF0010808FA0CF8C2F81080401C73
:100580000828CED35460BDE8F08100BFFEE700002C
:1005900010B5044600F002FA0148047010BD0000D6
:1005A00030000020704700BFFEE7704770B50021A3
:1005B00000230F22C47804B3154C246804F4E064CB
:1005C000C4F5E064210AC1F10403CA40447804FA86
:1005D00003F184781440214309010E4C0678A1559B
:1005E000047804F01F050124AC4005786D11AD00BE
:1005F00005F1E025C5F8004109E0047804F01F0585
:100600000124AC40044D0678761145F8264070BDB3
:100610000CED00E000E400E080E100E07047000045
:1006200029B1064A52690243044B5A6104E0034A65
:1006300052698243014B5A6170470000001002402A
:1006400029B1064AD2690243044BDA6104E0034A45
:10065000D2698243014BDA6170470000001002400A
:1006600029B1064A92690243044B9A6104E0034AA5
:1006700092698243014B9A6170470000001002406A
:10068000704710B500F002F810BD00000CB5002056
:10069000019000903348006840F480303149086090
:1006A00000BF3048006800F4003000900198401C02
:1006B0000190009818B90198B0F5A06FF1D12948C0
:1006C000006800F4003010B10120009001E000202B
:1006D00000900098012843D12348006840F01000A2
:1006E000214908600846006820F0030008600846B9
:1006F000006840F0020008601A48406819494860E4
:100700000846406848600846406840F48060486099
:100710000846406820F47C1048600846406840F471
:10072000E81048600846006840F08070086000BF2C
:100730000C48006800F000700028F9D009484068B3
:1007400020F00300074948600846406840F0020076
:10075000486000BF0348406800F00C000828F9D149
:100760000CBD000000100240002002402DE9F041C5
:1007700006460C4617461D4605EB4502110120684A
:10078000FFF722FD05EB4501206800EB011020601A
:10079000BDE8F0817047000010B51348006840F0D4
:1007A00001001149086008464068104908400E4998
:1007B0004860084600680E4908400B490860084632
:1007C000006820F4802008600846406820F4FE009D
:1007D00048604FF41F008860FFF753FF4FF0006040
:1007E0000449086010BD0000001002400000FFF83E
:1007F000FFFFF6FE08ED00E021B1028842F00102A1
:10080000028004E002884FF6FE731A4002807047AF
:100810001AB183890B43838102E083898B438381EF
:100820007047000070B5002400220023058C4FF6AD
:10083000EF7635400584028C8388048B48F6FF757B
:100840002C404FF6FF452C400D884FF6FF7606EA08
:1008500005252C434FF6DF752A400D8906EA05155C
:100860002A434D8806EA05152A43154DA84202D0B1
:10087000144DA8421DD14FF67F752A404D894FF681
:10088000FF7606EA05152A434FF6BF752A408D8884
:1008900006EA05152A434FF6FF352B404FF2FF7548
:1008A0002B408D8906EA85052B43CD8906EA85050F
:1008B0002B4383800483CD880587028470BD0000AC
:1008C000002C0140003401400A460021018B4FF208
:1008D000FF7319404FF6FF7303EA022319430183A4
:1008E00070470000002202881D4B98420ED01D4B1D
:1008F00098420BD0B0F1804F08D01B4B984205D0E6
:100900001A4B984202D01A4B984204D14FF68F737B
:100910001A404B881A43174B984207D0164B9842FF
:1009200004D04FF6FF431A40CB881A4302808B88CD
:1009300083850B8803850A4B98420BD0094B98425C
:1009400008D00E4B984205D00D4B984202D00D4B6B
:10095000984201D10B7A03860123838270470000FD
:10096000002C014000340140000400400008004019
:10097000000C004000100040001400400040014006
:10098000004401400048014000BFFEE70020FFF79F
:10099000FFFD01E0FFF706FEFCE7000000B595B0A3
:1009A00001210846FFF74CFE01210420FFF758FE05
:1009B00001210846FFF734FE0220ADF85000032065
:1009C0008DF8520018208DF8530014A93148FFF714
:1009D00051FD314800683149B0FBF1F0401E80B252
:1009E000ADF844000020ADF846001D20ADF84800E9
:1009F0000020ADF84A0011A94FF08040FFF772FFC8
:100A00006020ADF834000120ADF836000020ADF8CC
:100A10003A00ADF83C000DA94FF08040FFF702FF0F
:100A20000821C806FFF750FF1D4802901D4803909B
:100A3000102004904FF4B4600590002006908020B0
:100A40000790400008908000099020200A90000242
:100A50000B9000200C9002A91348FFF7ECFC012238
:100A600091020805FFF7D4FE11208DF80400002044
:100A70008DF805008DF8060001208DF8070001A80B
:100A8000FFF794FD012206210748FFF7CBFC15B0C4
:100A900000BD0000000801400000002000366E018B
:100AA000380000403400002080000240CC0A0008DA
:100AB000000000203400000028010008000B00089E
:100AC00034000020A41100004401000800A24A04E0
:100AD00000000000000000000102030406070809EE
:100AE0000000000000000000000000000000000006
:100AF000FF00000000FF32000000000000000000C6
:04000005080000ED02
:00000001FF
