:020000040800F2
:10000000D01D002089010008610600084B06000889
:100010005D060008D3020008DD0A000800000000A9
:10002000000000000000000000000000A907000818
:100030003305000800000000D5060008FD08000890
:10004000A3010008A3010008A3010008A301000800
:10005000A3010008A3010008A3010008A3010008F0
:10006000A3010008A3010008A3010008D9020008A9
:10007000A3010008A3010008A3010008A3010008D0
:10008000A3010008A3010008A3010008A3010008C0
:10009000A3010008A3010008A3010008A3010008B0
:1000A000A3010008A3010008A3010008A3010008A0
:1000B000A3010008A3010008A3010008A301000890
:1000C000A3010008A3010008A3010008A301000880
:1000D000A3010008A3010008A3010008A301000870
:1000E000A3010008A3010008A301000800F002F822
:1000F00000F03AF80AA090E8000C82448344AAF188
:100100000107DA4501D100F02FF8AFF2090EBAE885
:100110000F0013F0010F18BFFB1A43F0010318473B
:100120003C0C00005C0C0000103A24BF78C878C179
:10013000FAD8520724BF30C830C144BF04680C60ED
:10014000704700000023002400250026103A28BF35
:1001500078C1FBD8520728BF30C148BF0B60704739
:100160001FB51FBD10B510BD00F07AF81146FFF79E
:10017000F7FF00F0B5FC00F098F803B4FFF7F2FFCA
:1001800003BC00F09FF80000094880470948004779
:10019000FEE7FEE7FEE7FEE7FEE7FEE7FEE7FEE737
:1001A000FEE7FEE704480549054A064B7047000094
:1001B00001090008ED000008D0170020D01D002024
:1001C000D0190020D01900204FF000020429C0F0FF
:1001D000128010F0030C00F01E80CCF1040CBCF176
:1001E000020F18BF00F8012BA8BF20F8022BA1EBCB
:1001F0000C0100F010B85FEAC17C24BF00F8012BAD
:1002000000F8012B48BF00F8012B7047704770477A
:1002100070474FF0000200B51346944696462039C9
:1002200022BFA0E80C50A0E80C50B1F12001BFF4AF
:10023000F7AF090728BFA0E80C5048BF0CC05DF815
:1002400004EB890028BF40F8042B08BF704748BF63
:1002500020F8022B11F0804F18BF00F8012B7047D7
:10026000754600F02BF8AE4605006946534620F06F
:100270000700854618B020B5FFF794FFBDE8204081
:100280004FF000064FF000074FF000084FF0000B52
:1002900021F00701AC46ACE8C009ACE8C009ACE805
:1002A000C009ACE8C0098D46704710B50446AFF3ED
:1002B00000802046BDE81040FFF75FBF0048704750
:1002C0006C17002001491820ABBEFEE72600020093
:1002D000704700BFFEE7000010B5042000F0EAF808
:1002E00038B1042000F0CCF80849A1F5B46000F062
:1002F00071F8022000F0DEF830B1022000F0C0F802
:100300000349024800F066F810BD0000CC1100203F
:100310006C1700202DE9F84305460E46174626487F
:100320000068002845D10120234908602348056062
:1003300023480660234807602348009000F5346492
:10034000022300226946104600F0A4FA1D4A1168F3
:10035000009AA21A302392FBF3F0814201D20A469E
:1003600000E002469146C8464346164A694614488C
:10037000DFF848C0DCF800C0E0470098A0420AD28D
:100380000098201A302190FBF1F84346002269467C
:10039000104600F07FFA4FF4B4610C4800F0C7F843
:1003A00001210B4800F0DCFA0121084800F076F842
:1003B00000BFBDE8F88300001C00002020000020E2
:1003C00024000020280000202C0C002008000240FF
:1003D000000800402DE9F3410C462348006858B955
:1003E0000021224800F0BCFA0021214800F056F814
:1003F00000202049086034E01F48006870B9009868
:10040000201A302190FBF1F52B4600226946104658
:1004100000F040FA00201449086022E0164A1068F3
:10042000009AA21A302392FBF3F1884201D20246CD
:1004300000E00A46164635462B460F4A69460F48E5
:10044000094F3F68B8470098A0420AD20098201A86
:10045000302190FBF1F52B4600226946104600F052
:1004600019FABDE8FC8100002000002000080040CF
:10047000080002401C00002028000020240000206A
:1004800000F0805111B10349086001E00249486061
:1004900070470000040402400000024021B10268DD
:1004A00042F00102026004E002684FF6FE731A4057
:1004B0000260704701460020002201F0805313B112
:1004C000054B1A6801E0054B1A6802EA01030BB1FB
:1004D000012000E0002070470004024000000240BC
:1004E0001AB103680B43036002E003688B430360A7
:1004F000704710B50022026847F6F0739A430C6A01
:100500008B6823430C6923434C6923438C69234341
:10051000CC6923434C6A23438C6A23431A43026009
:10052000CB6843600B6883604B68C36010BD41605B
:10053000704770472DE9F041024600250026002053
:1005400000230024002791F803C00CF00F0591F858
:1005500003C00CF0100CBCF1000F03D091F802C0E6
:100560004CEA050591F800C0BCF1000F31D01468C9
:1005700000202BE04FF0010C0CFA00F3B1F800C0A2
:100580000CEA03069E4220D183004FF00F0C0CFAB8
:1005900003F7BC4305FA03FC4CEA040491F803C0DA
:1005A000BCF1280F06D14FF0010C0CFA00FCC2F888
:1005B00014C00AE091F803C0BCF1480F05D14FF018
:1005C000010C0CFA00FCC2F810C0401C0828D1D362
:1005D0001460B1F800C0BCF1FF0F34DD5468002096
:1005E0002EE000F1080C4FF0010808FA0CF3B1F806
:1005F00000C00CEA03069E4221D183004FF00F0C8D
:100600000CFA03F7BC4305FA03FC4CEA040491F826
:1006100003C0BCF1280F05D100F1080C08FA0CF852
:10062000C2F8148091F803C0BCF1480F07D100F163
:10063000080C4FF0010808FA0CF8C2F81080401CB2
:100640000828CED35460BDE8F08100BFFEE700006B
:1006500001460148405C70475C0C000800BFFEE7A3
:100660007047000070B5002100230F22C47804B346
:10067000154C246804F4E064C4F5E064210AC1F177
:100680000403CA40447804FA03F1847814402143F7
:1006900009010E4C0678A155047804F01F050124C9
:1006A000AC4005786D11AD0005F1E025C5F80041BD
:1006B00009E0047804F01F050124AC40044D0678DD
:1006C000761145F8264070BD0CED00E000E400E036
:1006D00080E100E07047000029B1064A52690243F8
:1006E000044B5A6104E0034A52698243014B5A6148
:1006F000704700000010024029B1064AD269024347
:10070000044BDA6104E0034AD2698243014BDA61A7
:10071000704700000010024029B1064A9269024366
:10072000044B9A6104E0034A92698243014B9A6147
:1007300070470000001002402DE9F04705460E46C4
:100740002878FFF785FF80466878FFF781FF8146AC
:10075000A878FFF77DFF82468027002420E008EA82
:10076000070008B1152100E0092106F1100000EB97
:100770004400018009EA070008B1152000E00920C3
:1007800006EB440108800AEA070008B1152100E0E1
:10079000092106F1200000EB440001807F10641C59
:1007A000082CDCDBBDE8F087704710B500F002F8DC
:1007B00010BD00000CB50020019000903348006887
:1007C00040F480303149086000BF3048006800F4D0
:1007D000003000900198401C0190009818B90198D1
:1007E000B0F5A06FF1D12948006800F4003010B1D5
:1007F0000120009001E0002000900098012843D1E2
:100800002348006840F0100021490860084600684D
:1008100020F0030008600846006840F0020008600D
:100820001A484068194948600846406848600846C8
:10083000406840F4806048600846406820F47C10BE
:1008400048600846406840F4E81048600846006880
:1008500040F08070086000BF0C48006800F0007035
:100860000028F9D00948406820F003000749486093
:100870000846406840F00200486000BF03484068F6
:1008800000F00C000828F9D10CBD00000010024057
:10089000002002402DE9F04106460C4617461D4651
:1008A00005EB450211012068FFF78EFC05EB4501C1
:1008B000206800EB01102060BDE8F0812DE9F047D1
:1008C00004460D4616461F46D4F80080D5F8009021
:1008D0003068C01B306007E0494609F130094046E6
:1008E00008F10308FFF728FF381EA7F10107F3D12D
:1008F000C4F80080C5F80090BDE8F087704700009C
:1009000010B51348006840F001001149086008461E
:100910004068104908400E494860084600680E4982
:1009200008400B4908600846006820F480200860F1
:100930000846406820F4FE0048604FF41F008860BD
:10094000FFF733FF4FF000600449086010BD00005E
:10095000001002400000FFF8FFFFF6FE08ED00E087
:1009600021B1028842F00102028004E002884FF6C1
:10097000FE731A40028070471AB183890B4383814A
:1009800002E083898B4383817047000070B50024A7
:1009900000220023058C4FF6FE7635400584028C3C
:1009A0008388048B4FF68F752C40B51E2C400D8824
:1009B0002C43751E2A400D892A434D882A43144D25
:1009C000A8420BD0134DA84208D0134DA84205D021
:1009D000124DA84202D0124DA84213D14FF6F7751E
:1009E0002A404D892A434FF6FB752A408D882A43B9
:1009F0004FF6FF652B404FF6FF552B408D892B435B
:100A0000CD892B4383800483CD888586028470BD85
:100A1000002C0140003401400040014000440140EE
:100A2000004801400A460021018B4FF6F773194038
:100A30001143018370470000002202881D4B984239
:100A40000ED01D4B98420BD0B0F1804F08D01B4BFD
:100A5000984205D01A4B984202D01A4B984204D1C2
:100A60004FF68F731A404B881A43174B984207D0A2
:100A7000164B984204D04FF6FF431A40CB881A43D6
:100A800002808B8883850B8803850A4B98420BD0A4
:100A9000094B984208D00E4B984205D00D4B984216
:100AA00002D00D4B984201D10B7A03860123838239
:100AB00070470000002C0140003401400004004059
:100AC00000080040000C00400010004000140040EE
:100AD00000400140004401400048014000BFFEE7E3
:100AE00000F020F818E000BF00F0A2F80028FBD0CA
:100AF000002009E000EB4001084A1144084A13882D
:100B00000B8092788A70401CB0F5806FF2DB4FF456
:100B10008061024800F096F8E5E700002C00002014
:100B20001400002000B595B001210420FFF7E4FD7A
:100B300001210820FFF7F0FD01210846FFF7CCFD59
:100B40004020ADF8500003208DF8520018208DF899
:100B5000530014A93048FFF7EDFC304800683049D5
:100B6000B0FBF1F0401E80B2ADF844000020ADF8BB
:100B700046001D20ADF848000020ADF84A0011A93C
:100B80002848FFF759FF6020ADF834000120ADF888
:100B900036000020ADF83A00ADF83C000DA9214820
:100BA000FFF7F4FE08211F48FFF73CFF1D483430D3
:100BB00002901D480390102004904FF4B4600590FB
:100BC0000020069080200790400008908000099047
:100BD00020200A9000020B9000200C9002A91348DC
:100BE000FFF787FC012251020E48FFF7C5FE0B20DC
:100BF0008DF8040000208DF805008DF80600012016
:100C00008DF8070001A8FFF72DFD012206210748F6
:100C1000FFF766FC15B000BD000C0140000000208D
:100C200000366E01000800402C0C00200800024035
:100C30000348006808B9012070470020FCE7000065
:100C40001C00002070B504460D462A462146024885
:100C5000FFF760FB70BD0000BD0800080000000049
:100C6000000000000000000001010101010101017C
:100C70000202020202020303030304040404050542
:100C800005050606060707070808080909090A0AEC
:100C90000B0B0B0C0C0D0D0E0E0F0F101011111273
:100CA000121313141415151617171818191A1A1BDE
:100CB0001C1C1D1E1E1F2020212223232425262626
:100CC0002728292A2A2B2C2D2E2F2F30313233344E
:100CD0003536373838393A3B3C3D3E3F4041424358
:100CE00044454647494A4B4C4D4E4F50515254553E
:100CF000565758595B5C5D5E5F6162636466676806
:100D0000696B6C6D6F70717374757778797B7C7EAD
:100D10007F808283858688898B8C8E8F9192949533
:100D200097989A9B9D9EA0A2A3A5A6A8AAABADAF9B
:100D3000B0B2B4B5B7B9BABCBEC0C1C3C5C7C8CAE2
:100D4000CCCECFD1D3D5D7D9DADCDEE0E2E4E6E809
:100D5000E9EBEDEFF1F3F5F7F9FBFDFF7C0D000892
:100D6000000000202C00000028010008A80D000849
:100D70002C000020A41D00004401000800A24A0429
:100D8000000000000000000001020304060708093B
:100D9000FF00000000FF0000000000000000000055
:080DA00000000000000000004B
:04000005080000ED02
:00000001FF
