:020000040800F2
:10000000C0120020C10100089D08000895080008E2
:100010009908000849030008AD0C00080000000022
:100020000000000000000000000000004909000876
:100030004D08000800000000250900085D0A0008BE
:10004000DB010008DB010008DB010008DB01000820
:10005000DB010008DB010008DB010008DB01000810
:10006000DB010008DB010008DB010008A90600082D
:10007000E506000821070008DB010008DB01000895
:1000800065070008A9070008DB010008DB0100087C
:10009000DB010008DB010008DB010008DB010008D0
:1000A000DB010008DB010008DB010008DB010008C0
:1000B000DB010008DB010008C10A0008DB010008C1
:1000C000DB010008DB010008DB010008DB010008A0
:1000D000DB010008DB010008DB010008DB01000890
:1000E000DB010008DB010008DB01000800F002F87A
:1000F00000F03CF80AA090E8000C82448344AAF186
:100100000107DA4501D100F031F8AFF2090EBAE883
:100110000F0013F0010F18BFFB1A43F0010318473B
:10012000D00B0000F00B0000103A24BF78C878C153
:10013000FAD8520724BF30C830C144BF04680C60ED
:10014000704700000023002400250026103A28BF35
:1001500078C1FBD8520728BF30C148BF0B60704739
:100160001FB500F062F81FBD10B510BD00F0B2F869
:100170001146FFF7F5FF00F09BFD00F0D0F803B447
:10018000FFF7F2FF03BC00F0D9F800000B49D1F8EB
:1001900000C04A685CF8043B1068184442F8040B3D
:1001A0008C4528BFA1F1DC0C8A4228BFA1F1DC02FA
:1001B000C1F800C04A6020F000407047580C002091
:1001C0000948804709480047FEE7FEE7FEE7FEE7EB
:1001D000FEE7FEE7FEE7FEE7FEE7FEE70448054927
:1001E000054A064B70470000610A0008ED00000850
:1001F000C00C0020C0120020C00E0020C00E002045
:100200000B4910B5A1F17C020A4CC2E93712372123
:1002100006E000EB104342F82130074B00FB03409F
:100220000B1EA1F10101F4DC10BD0120E8E7000084
:10023000F80B0020E119D666CD0D01004FF0000249
:100240000429C0F0128010F0030C00F01E80CCF1E5
:10025000040CBCF1020F18BF00F8012BA8BF20F856
:10026000022BA1EB0C0100F010B85FEAC17C24BFA7
:1002700000F8012B00F8012B48BF00F8012B704754
:100280007047704770474FF0000200B51346944620
:100290009646203922BFA0E80C50A0E80C50B1F1DE
:1002A0002001BFF4F7AF090728BFA0E80C5048BFF2
:1002B0000CC05DF804EB890028BF40F8042B08BF90
:1002C000704748BF20F8022B11F0804F18BF00F88C
:1002D000012B7047754600F02BF8AE4605006946C5
:1002E000534620F00700854618B020B5FFF776FF8B
:1002F000BDE820404FF000064FF000074FF0000827
:100300004FF0000B21F00701AC46ACE8C009ACE8A7
:10031000C009ACE8C009ACE8C0098D46704710B50B
:100320000446AFF300802046BDE81040FFF727BF2A
:1003300000487047600C00207047000001491820F9
:10034000ABBEFEE72600020000BFFEE72DE9F34149
:100350000C462348006860B900214FF0804000F04F
:10036000D9FB00211F4800F04FFA00201E49086009
:1003700034E01E48006870B90098201A302190FBC4
:10038000F1F52B4600226946104600F053FB002091
:100390001349086022E0154A1068009AA21A302317
:1003A00092FBF3F1884201D2024600E00A4616466B
:1003B00035462B460D4A69460D48094F3F68B847F8
:1003C0000098A0420AD20098201A302190FBF1F543
:1003D0002B4600226946104600F02CFBBDE8FC814C
:1003E0002400002008000240140000202C000020FF
:1003F000280000202DE9F3410C462548006878B913
:100400000021244800F086FB0121224800F08EFBE9
:100410000021214800F0F8F900202049086034E06C
:100420001F48006870B90098201A302190FBF1F540
:100430002B4600226946104600F0FCFA00201449C1
:10044000086022E0164A1068009AA21A302392FB34
:10045000F3F1884201D2024600E00A4616463546CC
:100460002B460F4A69460F48094F3F68B847009826
:10047000A0420AD20098201A302190FBF1F52B46B9
:1004800000226946104600F0D5FABDE8FC81000064
:1004900024000020002C01401C000240200000200D
:1004A0002C000020280000202DE9F3410C462348B1
:1004B000006858B90021224800F02CFB0021214897
:1004C00000F0A2F900202049086034E01F480068CD
:1004D00070B90098201A302190FBF1F52B460022CC
:1004E0006946104600F0A6FA00201449086022E090
:1004F000164A1068009AA21A302392FBF3F1884240
:1005000001D2024600E00A46164635462B460F4AFF
:1005100069460F48094F3F68B8470098A0420AD281
:100520000098201A302190FBF1F52B4600226946F5
:10053000104600F07FFABDE8FC8100002400002096
:1005400000040040300002401C0000202C0000206D
:10055000280000202DE9F3410C462348006858B9D3
:100560000021224800F0D6FA0021214800F04CF981
:1005700000202049086034E01F48006870B90098E6
:10058000201A302190FBF1F52B46002269461046D7
:1005900000F050FA00201449086022E0164A106862
:1005A000009AA21A302392FBF3F1884201D202464C
:1005B00000E00A46164635462B460F4A69460F4864
:1005C000094F3F68B8470098A0420AD20098201A05
:1005D000302190FBF1F52B4600226946104600F0D1
:1005E00029FABDE8FC81000024000020000400403E
:1005F0006C000240180000202C0000202800002081
:100600002DE9F3410C462348006860B900214FF002
:10061000804000F07FFA00211F4800F0F5F800202C
:100620001E49086034E01E48006870B90098201A1E
:10063000302190FBF1F52B4600226946104600F070
:10064000F9F900201349086022E0154A1068009A61
:10065000A21A302392FBF3F1884201D2024600E055
:100660000A46164635462B460D4A69460D48094F3F
:100670003F68B8470098A0420AD20098201A30215B
:1006800090FBF1F52B4600226946104600F0D2F9A6
:10069000BDE8FC8124000020800002401000002002
:1006A0002C0000202800002010B5042000F0B8F82D
:1006B00038B1042000F09AF80849A1F5B460FFF7BA
:1006C00045FE022000F0ACF830B1022000F08EF8B8
:1006D00003490248FFF73AFE10BD0000DC05002088
:1006E0007C0B002010B5402000F09AF838B1402073
:1006F00000F07CF80849A1F5B460FFF77BFE2020EC
:1007000000F08EF830B1202000F070F80349024864
:10071000FFF770FE10BD0000DC0500207C0B002000
:1007200010B54FF4806000F07BF840B14FF480606A
:1007300000F05CF80949A1F5B460FFF7B5FE4FF48D
:10074000007000F06DF838B14FF4007000F04EF812
:1007500003490248FFF7A8FE10BD0000DC05002099
:100760007C0B002010B54FF4800000F059F840B128
:100770004FF4800000F03AF80949A1F5B460FFF7A2
:10078000E9FE4FF4001000F04BF838B14FF40010C0
:1007900000F02CF803490248FFF7DCFE10BD000012
:1007A000DC0500207C0B002010B54FF0806000F0CD
:1007B00037F840B14FF0806000F018F80949A1F512
:1007C000B460FFF71DFF4FF0007000F029F838B15A
:1007D0004FF0007000F00AF803490248FFF710FFDD
:1007E00010BD0000DC0500207C0B002000F08051D3
:1007F00011B10349086001E00249486070470000F8
:10080000040402400000024021B1026842F00102EB
:10081000026004E002684FF6FE731A4002607047FF
:1008200001460020002201F0805313B1054B1A68E5
:1008300001E0054B1A6802EA01030BB1012000E058
:10084000002070470004024000000240704700B5DD
:10085000034603E04FF47A7000F005F8181EA3F188
:100860000103F7D100BD00EBC001C9004FF0E02249
:100870005161002191610521116100BF4FF0E0211C
:10088000096901F480310029F8D004214FF0E022F9
:100890001161704700BFFEE700BFFEE77047000030
:1008A00070B5002100230F22C47804B3154C2468CE
:1008B00004F4E064C4F5E064210AC1F10403CA4011
:1008C000447804FA03F184781440214309010E4C62
:1008D0000678A155047804F01F050124AC40057882
:1008E0006D11AD0005F1E025C5F8004109E004787F
:1008F00004F01F050124AC40044D0678761145F83C
:10090000264070BD0CED00E000E400E080E100E076
:1009100002490143024A1160704700000000FA05D5
:100920000CED00E07047000029B1064AD26902438D
:10093000044BDA6104E0034AD2698243014BDA6175
:100940007047000000100240704710B500F002F838
:1009500010BD00000CB500200190009033480068E5
:1009600040F480303149086000BF3048006800F42E
:10097000003000900198401C0190009818B901982F
:10098000B0F5A06FF1D12948006800F4003010B133
:100990000120009001E0002000900098012843D140
:1009A0002348006840F010002149086008460068AC
:1009B00020F0030008600846006840F0020008606C
:1009C0001A48406819494860084640684860084627
:1009D000406840F4806048600846406820F47C101D
:1009E00048600846406840F4E810486008460068DF
:1009F00040F08070086000BF0C48006800F0007094
:100A00000028F9D00948406820F0030007494860F1
:100A10000846406840F00200486000BF0348406854
:100A200000F00C000828F9D10CBD000000100240B5
:100A3000002002402DE9F04106460C4617461D46AF
:100A400005EB450211012068FFF7F8FB05EB4501B6
:100A5000206800EB01102060BDE8F08170470000C5
:100A600010B51348006840F00100114908600846BD
:100A70004068104908400E494860084600680E4921
:100A800008400B4908600846006820F48020086090
:100A90000846406820F4FE0048604FF41F0088605C
:100AA000FFF753FF4FF000600449086010BD0000DD
:100AB000001002400000FFF8FFFFF6FE08ED00E026
:100AC00010B501210D4800F040F8012814D10C4860
:100AD0000068401C0A4908600846006840F6C411D6
:100AE000884205D1002006490860012005490870A8
:100AF0000121024800F00BF810BD00000008004082
:100B0000000000203A000020CA4302827047CA4316
:100B10000282704721B1028842F00102028004E0A3
:100B200002884FF6FE731A400280704731B1B0F868
:100B3000442042F40042A0F8442005E0B0F84420EC
:100B4000C2F30E02A0F84420704730B502460020E0
:100B500000230024158A05EA0103958905EA0104AA
:100B600013B10CB1012000E0002030BD1AB183891F
:100B70000B43838102E083898B4383817047018922
:100B80004FF6F87211400181704700000022028880
:100B90001D4B98420ED01D4B98420BD0B0F1804FA8
:100BA00008D01B4B984205D01A4B984202D01A4BE2
:100BB000984204D14FF68F731A404B881A43174B53
:100BC000984207D0164B984204D04FF6FF431A4084
:100BD000CB881A4302808B8883850B8803850A4B58
:100BE00098420BD0094B984208D00E4B984205D042
:100BF0000D4B984202D00D4B984201D10B7A0386DF
:100C00000123838270470000002C01400034014022
:100C10000004004000080040000C004000100040AC
:100C200000140040004001400044014000480140E1
:100C30001FB501210420FFF777FE1B48FFF79FFF38
:100C40000020ADF80A00ADF8060040F2E730ADF83C
:100C500008004720ADF8040000208DF80C0001A921
:100C60001148FFF793FF01210F48FFF74DFF0122C5
:100C700011460D48FFF77AFF4FF4A060FFF748FEDA
:100C80001E208DF8000001208DF8030002208DF851
:100C9000010001208DF802006846FFF701FE0121E6
:100CA0000148FFF737FF1FBD0008004000BFFEE707
:100CB000FFF7BEFF08E0052000F00AF803490870BE
:100CC0004FF4FA70FFF7C3FDF5E700000E000020B7
:100CD00010B5044605480068FFF792FAFFF756FA88
:100CE00090FBF4F104FB1100C0B210BD0000002025
:100CF000100D0008000000203C0000002801000842
:100D00004C0D00083C000020841200004401000843
:100D100000000000000000000000000000000000D3
:100D200000000000000000000000000000000000C3
:100D300000000000000000000000000000000000B3
:0C0D4000000000000000000000000000A7
:04000005080000ED02
:00000001FF
