:020000040800F2
:1000000048260020C1010008F1190008BD120008AF
:10001000ED190008490300086122000800000000F3
:100020000000000000000000000000004D1B000860
:10003000210E000800000000791A0008A11C000829
:10004000DB010008DB010008DB010008DB01000820
:10005000DB010008DB010008DB010008DB01000810
:10006000DB010008250E0008DB010008CD0B0008AD
:10007000090C0008450C0008DB010008890C000889
:10008000CD0C0008110D0008DB010008DB010008A1
:10009000DB010008DB010008DB010008DB010008D0
:1000A000DB010008DB010008DB010008DB010008C0
:1000B000DB010008DB010008311D0008DB0100083E
:1000C000DB010008DB010008DB010008DB010008A0
:1000D000DB010008DB010008DB010008DB01000890
:1000E000DB010008DB010008DB01000800F002F87A
:1000F00000F03CF80AA090E8000C82448344AAF186
:100100000107DA4501D100F031F8AFF2090EBAE883
:100110000F0013F0010F18BFFB1A43F0010318473B
:100120005840000078400000103A24BF78C878C1D9
:10013000FAD8520724BF30C830C144BF04680C60ED
:10014000704700000023002400250026103A28BF35
:1001500078C1FBD8520728BF30C148BF0B60704739
:100160001FB500F062F81FBD10B510BD00F0B2F869
:100170001146FFF7F5FF02F009F900F0D0F803B4DB
:10018000FFF7F2FF03BC00F0D9F800000B49D1F8EB
:1001900000C04A685CF8043B1068184442F8040B3D
:1001A0008C4528BFA1F1DC0C8A4228BFA1F1DC02FA
:1001B000C1F800C04A6020F000407047DC1F0020FA
:1001C0000948804709480047FEE7FEE7FEE7FEE7EB
:1001D000FEE7FEE7FEE7FEE7FEE7FEE70448054927
:1001E000054A064B70470000A51C0008ED000008FA
:1001F00048200020482600204822002048220020D5
:100200000B4910B5A1F17C020A4CC2E93712372123
:1002100006E000EB104342F82130074B00FB03409F
:100220000B1EA1F10101F4DC10BD0120E8E7000084
:100230007C1F0020E119D666CD0D01004FF00002B1
:100240000429C0F0128010F0030C00F01E80CCF1E5
:10025000040CBCF1020F18BF00F8012BA8BF20F856
:10026000022BA1EB0C0100F010B85FEAC17C24BFA7
:1002700000F8012B00F8012B48BF00F8012B704754
:100280007047704770474FF0000200B51346944620
:100290009646203922BFA0E80C50A0E80C50B1F1DE
:1002A0002001BFF4F7AF090728BFA0E80C5048BFF2
:1002B0000CC05DF804EB890028BF40F8042B08BF90
:1002C000704748BF20F8022B11F0804F18BF00F88C
:1002D000012B7047754600F02BF8AE4605006946C5
:1002E000534620F00700854618B020B5FFF776FF8B
:1002F000BDE820404FF000064FF000074FF0000827
:100300004FF0000B21F00701AC46ACE8C009ACE8A7
:10031000C009ACE8C009ACE8C0098D46704710B50B
:100320000446AFF300802046BDE81040FFF727BF2A
:1003300000487047E41F0020704700000149182062
:10034000ABBEFEE72600020000BFFEE72DE9F84342
:1003500005460E46174626480068002845D101206C
:100360002349086023480560234806602348076046
:100370002348009000F534640223002269461046A9
:1003800001F05AFC1D4A1168009AA21A302392FB10
:10039000F3F0814201D20A4600E002469146C84687
:1003A0004346164A69461448DFF848C0DCF800C0E6
:1003B000E0470098A0420AD20098201A302190FB12
:1003C000F1F8434600226946104601F035FC4FF42F
:1003D000B4610C4800F015FD0121880701F0F2FC22
:1003E0000121084800F0C4FC00BFBDE8F88300000C
:1003F0002000002034000020380000203C000020B5
:100400006C000020080002402DE9F3410C4623480F
:10041000006860B900214FF0804001F0D3FC00215A
:100420001F4800F0A5FC00201E49086034E01E486B
:10043000006870B90098201A302190FBF1F52B4626
:1004400000226946104601F0F7FB002013490860BE
:1004500022E0154A1068009AA21A302392FBF3F1A9
:10046000884201D2024600E00A46164635462B462F
:100470000D4A69460D48094F3F68B8470098A042A9
:100480000AD20098201A302190FBF1F52B46002269
:100490006946104601F0D0FBBDE8FC813400002025
:1004A00008000240200000203C000020380000200E
:1004B0002DE9F84305460E461746284800680028EF
:1004C00049D1012025490860254805602548066076
:1004D000254807602548009000F534640223002277
:1004E0006946104601F0A8FB1F4A1168009AA21A3B
:1004F000302392FBF3F0814201D20A4600E002462B
:100500009146C8464346184A69461648DFF850C027
:10051000DCF800C0E0470098A0420AD20098201AF8
:10052000302190FBF1F8434600226946104601F065
:1005300083FB4FF4B4610E4800F063FC01210D48C9
:1005400001F040FC01210B4801F048FC0121084862
:1005500000F00EFC00BFBDE8F88300002C00002076
:1005600034000020380000203C0000206C000020F7
:100570001C000240002C01402DE9F3410C462548A7
:10058000006878B90021244801F01CFC01212248B0
:1005900001F024FC0021214800F0EAFB0020204962
:1005A000086034E01F48006870B90098201A3021B4
:1005B00090FBF1F52B4600226946104601F03CFB0A
:1005C00000201449086022E0164A1068009AA21A16
:1005D000302392FBF3F1884201D2024600E00A4642
:1005E000164635462B460F4A69460F48094F3F6865
:1005F000B8470098A0420AD20098201A302190FBF8
:10060000F1F52B4600226946104601F015FBBDE8C6
:10061000FC81000034000020002C01401C0002403E
:100620002C0000203C000020380000202DE9F84379
:1006300005460E46174626480068002845D1012089
:100640002349086023480560234806602348076063
:100650002348009000F534640223002269461046C6
:1006600001F0EAFA1D4A1168009AA21A302392FB9F
:10067000F3F0814201D20A4600E002469146C846A4
:100680004346164A69461448DFF848C0DCF800C003
:10069000E0470098A0420AD20098201A302190FB2F
:1006A000F1F8434600226946104601F0C5FA4FF4BE
:1006B000B4610C4800F0A5FB01210B4801F082FB5E
:1006C0000121084800F054FB00BFBDE8F88300009A
:1006D0002800002034000020380000203C000020CA
:1006E0006C00002030000240000400402DE9F3417E
:1006F0000C462348006858B90021224801F062FBEB
:100700000021214800F034FB00202049086034E03B
:100710001F48006870B90098201A302190FBF1F54D
:100720002B4600226946104601F086FA0020144943
:10073000086022E0164A1068009AA21A302392FB41
:10074000F3F1884201D2024600E00A4616463546D9
:100750002B460F4A69460F48094F3F68B847009833
:10076000A0420AD20098201A302190FBF1F52B46C6
:1007700000226946104601F05FFABDE8FC810000E6
:100780003400002000040040300002402800002017
:100790003C000020380000202DE9F84305460E46B5
:1007A000174626480068002845D1012023490860E3
:1007B00023480560234806602348076023480090CB
:1007C00000F53464022300226946104601F034FA31
:1007D0001D4A1168009AA21A302392FBF3F081425D
:1007E00001D20A4600E002469146C8464346164AF0
:1007F00069461448DFF848C0DCF800C0E0470098BC
:10080000A0420AD20098201A302190FBF1F843460A
:1008100000226946104601F00FFA4FF4B4610C480B
:1008200000F0EFFA0121880701F0CCFA0121084815
:1008300000F09EFA00BFBDE8F88300003000002001
:1008400034000020380000203C0000206C00002014
:10085000580002402DE9F3410C462348006860B976
:1008600000214FF0804001F0ADFA00211F4800F058
:100870007FFA00201E49086034E01E48006870B905
:100880000098201A302190FBF1F52B460022694692
:10089000104601F0D1F900201349086022E0154A02
:1008A0001068009AA21A302392FBF3F1884201D219
:1008B000024600E00A46164635462B460D4A694672
:1008C0000D48094F3F68B8470098A0420AD20098E7
:1008D000201A302190FBF1F52B4600226946104684
:1008E00001F0AAF9BDE8FC81340000205800024064
:1008F000300000203C000020380000202DE9F843A3
:1009000005460E46174626480068002845D10120B6
:100910002349086023480560234806602348076090
:100920002348009000F534640223002269461046F3
:1009300001F082F91D4A1168009AA21A302392FB35
:10094000F3F0814201D20A4600E002469146C846D1
:100950004346164A69461448DFF848C0DCF800C030
:10096000E0470098A0420AD20098201A302190FB5C
:10097000F1F8434600226946104601F05DF94FF454
:10098000B4610C4800F03DFA01210B4801F01AFA5D
:100990000121084800F0ECF900BFBDE8F883000031
:1009A0002400002034000020380000203C000020FB
:1009B0006C0000206C000240000400402DE9F3416F
:1009C0000C462348006858B90021224801F0FAF982
:1009D0000021214800F0CCF900202049086034E0D3
:1009E0001F48006870B90098201A302190FBF1F57B
:1009F0002B4600226946104601F01EF900201449DA
:100A0000086022E0164A1068009AA21A302392FB6E
:100A1000F3F1884201D2024600E00A461646354606
:100A20002B460F4A69460F48094F3F68B847009860
:100A3000A0420AD20098201A302190FBF1F52B46F3
:100A400000226946104601F0F7F8BDE8FC8100007D
:100A500034000020000400406C000240240000200C
:100A60003C000020380000202DE9F84305460E46E2
:100A7000174626480068002845D101202349086010
:100A800023480560234806602348076023480090F8
:100A900000F53464022300226946104601F0CCF8C8
:100AA0001D4A1168009AA21A302392FBF3F081428A
:100AB00001D20A4600E002469146C8464346164A1D
:100AC00069461448DFF848C0DCF800C0E0470098E9
:100AD000A0420AD20098201A302190FBF1F8434638
:100AE00000226946104601F0A7F84FF4B4610C48A3
:100AF00000F087F90121880701F064F90121084815
:100B000000F036F900BFBDE8F88300001C000020AB
:100B100034000020380000203C0000206C00002041
:100B2000800002402DE9F3410C462348006860B97B
:100B300000214FF0804001F045F900211F4800F0EE
:100B400017F900201E49086034E01E48006870B99B
:100B50000098201A302190FBF1F52B4600226946BF
:100B6000104601F069F800201349086022E0154A98
:100B70001068009AA21A302392FBF3F1884201D246
:100B8000024600E00A46164635462B460D4A69469F
:100B90000D48094F3F68B8470098A0420AD2009814
:100BA000201A302190FBF1F52B46002269461046B1
:100BB00001F042F8BDE8FC813400002080000240D2
:100BC0001C0000203C0000203800002010B504204C
:100BD00000F0DAF838B1042000F0BCF80849A1F5BB
:100BE000B460FFF711FC022000F0CEF830B1022013
:100BF00000F0B0F803490248FFF706FC10BD000002
:100C00000C060020AC0B002010B5402000F0BCF812
:100C100038B1402000F09EF80849A1F5B460FFF714
:100C2000ABFC202000F0B0F830B1202000F092F8AA
:100C300003490248FFF7A0FC10BD00000C0600208D
:100C4000AC0B002010B54FF4806000F09DF840B16F
:100C50004FF4806000F07EF80949A1F5B460FFF719
:100C600045FD4FF4007000F08FF838B14FF400707C
:100C700000F070F803490248FFF738FD10BD00008E
:100C80000C060020AC0B002010B54FF4802000F0C3
:100C90007BF840B14FF4802000F05CF80949A1F5E1
:100CA000B460FFF7D7FD4FF4003000F06DF838B1B5
:100CB0004FF4003000F04EF803490248FFF7CAFD38
:100CC00010BD00000C060020AC0B002010B54FF446
:100CD000800000F059F840B14FF4800000F03AF87D
:100CE0000949A1F5B460FFF769FE4FF4001000F068
:100CF0004BF838B14FF4001000F02CF803490248CB
:100D0000FFF75CFE10BD00000C060020AC0B0020BD
:100D100010B54FF0806000F037F840B14FF08060C0
:100D200000F018F80949A1F5B460FFF7FBFE4FF099
:100D3000007000F029F838B14FF0007000F00AF8A8
:100D400003490248FFF7EEFE10BD00000C0600202C
:100D5000AC0B002000F0805111B10349086001E0A4
:100D6000024948607047000004040240000002404D
:100D700021B1026842F00102026004E002684FF60D
:100D8000FE731A400260704701460020002201F005
:100D9000805313B1054B1A6801E0054B1A6802EA4B
:100DA00001030BB1012000E0002070470004024065
:100DB000000002401AB103680B43036002E00368BD
:100DC0008B430360704710B50022026847F6F0734A
:100DD0009A430C6A8B6823430C6923434C69234371
:100DE0008C692343CC6923434C6A23438C6A234395
:100DF0001A430260CB6843600B6883604B68C36032
:100E000010BD416070470021016041608160C16098
:100E1000016141618161C16101624162816270472A
:100E20007047000010B5082000F02EF9012875D198
:100E30000821694800F031FA002807D16748007896
:100E400028B900F0A9FF012064490870C0E0634898
:100E5000007801282CD100F055FF6149088000F08E
:100E60009BFF5F48008843F2C821884209DD5C4847
:100E7000008843F2B061884203DA022057490870C3
:100E8000A6E05748008842F6FE1188420CDD54481F
:100E9000008842F6E651884206DA0120514908707E
:100EA00000204E49087093E001204C4908708FE003
:100EB0004A4800780228C9D100F024FF4849088038
:100EC00000F06AFF46480088B0F51B7F27DD4448E4
:100ED000008840F28C51884221DA434A1078C217C8
:100EE00000EB5272D210414B9A5C3F4B1978CB17F2
:100EF00001EB5373DB10A1EBC3040123A3409A431E
:100F0000394B1878C31700EB5373DB10374CE2549E
:100F100035480078401C3449087033E05BE03048C5
:100F2000008840F2D661884226DD2D48008840F6D0
:100F3000BE21884220DA2C4A1078C21700EB527288
:100F4000D2102A4B9A5C284B1978CB1701EB5373BC
:100F5000DB10A1EBC3040123A3401A43224B1878F2
:100F6000C31700EB5373DB10204CE2541E4800788B
:100F7000401C1D49087005E000201B490870012035
:100F80001649087018480078202821DB00201649EF
:100F900008701648007816490870144840781549BA
:100FA000087012488078144908701048C0781349B6
:100FB00008700120124908700020084908700C4888
:100FC000007828B90F480078052801D000F0A8FC67
:100FD000082000F053F810BD000801405E0000201A
:100FE0005C00002065000020630000205F000020FE
:100FF00066000020680000206700002069000020D3
:1010000064000020530000201FB50121042000F0DF
:1010100055FD0121084600F051FD48208DF80F00D4
:101020000820ADF80C0003208DF80E0003A912482B
:1010300000F0A8F80321002000F084F808200190B7
:1010400001208DF80A0000208DF808000C208DF892
:10105000090001A800F02CF809208DF800000120FB
:101060008DF8030000208DF801008DF8020068461D
:1010700000F0C0FC1FBD00000008014001490860ED
:101080007047000014040140014600200022074B75
:101090001B6803EA0102054B14331B680B4013B1B4
:1010A0000AB1012000E00020704700000004014068
:1010B000002123498279002A3AD00A46126803683F
:1010C0009A430B461A600A1D126803689A430B1D67
:1010D0001A60027911440A6803681A430A60184AC0
:1010E0000832126803689A43154B08331A601A1DB8
:1010F000126803689A43124B0C331A604279102A23
:101100000ED11A1F126803681A430D4B08331A6078
:101110001A1D126803681A43094B0C331A600DE05C
:101120000749427911440A6803681A430A6005E0D6
:10113000027911440A6803689A430A607047000004
:101140000004014030B500228B071C0F0F2303FA67
:1011500004F20B4B8C1053F824309343084C8D1041
:1011600044F8253023468C1053F824308C07240F84
:1011700000FA04F42343024C8D1044F8253030BDAE
:10118000080001402DE9F04102460025002600201C
:1011900000230024002791F803C00CF00F0591F8FC
:1011A00003C00CF0100CBCF1000F03D091F802C08A
:1011B0004CEA050591F800C0BCF1000F31D014686D
:1011C00000202BE04FF0010C0CFA00F3B1F800C046
:1011D0000CEA03069E4220D183004FF00F0C0CFA5C
:1011E00003F7BC4305FA03FC4CEA040491F803C07E
:1011F000BCF1280F06D14FF0010C0CFA00FCC2F82C
:1012000014C00AE091F803C0BCF1480F05D14FF0BB
:10121000010C0CFA00FCC2F810C0401C0828D1D305
:101220001460B1F800C0BCF1FF0F34DD5468002039
:101230002EE000F1080C4FF0010808FA0CF3B1F8A9
:1012400000C00CEA03069E4221D183004FF00F0C30
:101250000CFA03F7BC4305FA03FC4CEA040491F8CA
:1012600003C0BCF1280F05D100F1080C08FA0CF8F6
:10127000C2F8148091F803C0BCF1480F07D100F107
:10128000080C4FF0010808FA0CF8C2F81080401C56
:101290000828CED35460BDE8F08102460020936850
:1012A0000B400BB1012000E0002070474FF6FF71AA
:1012B0000180022181700421C170704700BFFEE7E8
:1012C00010B5FFF7A1FE10BD01460148405C704714
:1012D0006027000810B5044600F07EFF01F0ACF86E
:1012E00010480470007830B90F4810490A8802800D
:1012F0008978817005E00C480D490A880280897858
:10130000817000200AE000EB40010A4A1144064ABD
:1013100013880B8092788A70411CC8B24028F2DB97
:1013200010BD0000500000204D0000206028000883
:10133000632800083F1E002030B5024622B1012A72
:1013400011D0022A2DD11DE0002009E000EB40035E
:101350000B44154C25881D80A4789C70431CD8B282
:101360008728F3DB1EE0002009E000EB40030B447C
:101370000E4C25881D80A4789C70431CD8B2872809
:10138000F3DB0FE0002009E000EB40030B44074CC7
:1013900025881D80A4789C70431CD8B28728F3DB75
:1013A00000E000BF00BF30BD662800084D000020EF
:1013B00030B5024622B1012A11D0022A2DD11DE0FA
:1013C000002009E000EB40030B44154C25881D80EC
:1013D000A4789C70431CD8B27828F3DB1EE0002070
:1013E00009E000EB40030B440E4C25881D80A478D7
:1013F0009C70431CD8B27828F3DB0FE0002009E092
:1014000000EB40030B44074C25881D80A4789C709A
:10141000431CD8B27828F3DB00E000BF00BF30BD2A
:10142000662800084D0000200B480C490A880280FD
:101430008978817000200AE000EB4001084A1144DD
:10144000054A13880B8092788A70411C88B2B0F5E7
:10145000C66FF1DD704700004D00002069280008CC
:10146000AC0B002030B5024622B1012A11D0022A6D
:1014700076D165E0002009E000EB40030B443A4CD4
:1014800025881D80A4789C70431C98B2FF28F3DD4A
:1014900067E036480078012804D135480078401EBE
:1014A000334B187032480078002803DD00202F4BA2
:1014B000187008E02E48007828B904202C4B1870CA
:1014C00000202A4B1870002037E0294B1B7800EBD6
:1014D000C303FF2B0FDC264B1B7800EBC303254C0B
:1014E000E35C43B100EB40030B44234C25881D8093
:1014F000A4789C701FE01E4B1B7800EBC303FF2BEE
:1015000011DD1B4B1B7800EBC303A3F58073194C53
:10151000E35C43B100EB40030B44174C25881D806E
:10152000A4789C7007E000EB40030B440E4C258828
:101530001D80A4789C70431C98B2FF28C5DD10E084
:10154000002009E000EB40030B440B4C25881D8074
:10155000A4789C70431C98B2FF28F3DD01E0FFE7FC
:1015600000BF00BF30BD0000662800084100002019
:10157000540000206F4000084D00002030B50246A6
:1015800022B1012A11D0022A2DD11DE0002009E04C
:1015900000EB40030B44154C25881D80A4789C70FB
:1015A000431CD8B23228F3DB1EE0002009E000EB38
:1015B00040030B440D4C25881D80A4789C70431C6F
:1015C000D8B23228F3DB0FE0002009E000EB400343
:1015D0000B44074C25881D80A4789C70431CD8B20E
:1015E0003228F3DB00E000BF00BF30BD66280008F2
:1015F0004D00002030B5024677480078012806D11A
:101600007648774B1C8804809B78837005E073488C
:10161000744B1C8804809B78837022B1012A12D0FD
:10162000022A6FD12BE0002009E000EB40030B44BD
:101630006D4C25881D80A4789C70431C98B2B0F531
:10164000806FF2DBC6E0002015E0684B1B5C43B105
:1016500000EB40030B44614C25881D80A4789C70EE
:1016600007E000EB40030B445F4C25881D80A47805
:101670009C70431C98B2B0F5806FE6DBAAE05C4832
:101680005C4B1B78C05CD8B9002015E05A4B1B5C42
:1016900043B100EB40030B44504C25881D80A478D7
:1016A0009C7007E000EB40030B444F4C25881D80E5
:1016B000A4789C70431C98B2B0F5806FE6DB87E09D
:1016C0004B484C4B1B78C05C01281CD1002015E016
:1016D0004A4B1B5C43B100EB40030B443F4C258855
:1016E0001D80A4789C7007E000EB40030B443E4C47
:1016F00025881D80A4789C70431C98B2B0F5806F3B
:10170000E6DB65E065E03A483A4B1B78C05C0228AE
:101710001BD1002015E03A4B1B5C43B100EB4003AA
:101720000B442E4C25881D80A4789C7007E000EBAC
:1017300040030B442C4C25881D80A4789C70431CCE
:1017400098B2B0F5806FE6DB42E02948294B1B7860
:10175000C05C03281BD1002015E02A4B1B5C43B161
:1017600000EB40030B441D4C25881D80A4789C7021
:1017700007E000EB40030B441B4C25881D80A47838
:101780009C70431C98B2B0F5806FE6DB20E01848EF
:10179000184B1B78C05C04281AD1002015E01A4BA6
:1017A0001B5C43B100EB40030B440C4C25881D80AF
:1017B000A4789C7007E000EB40030B440A4C25889A
:1017C0001D80A4789C70431C98B2B0F5806FE6DB56
:1017D00000BF00BF00BF30BD5000002055000020FA
:1017E0006C28000869280008662800086F2800088F
:1017F00042000020470000206F2C00086F300008D6
:101800006F3400086F3800086F3C000810B500BF47
:1018100000F078FF0028FBD000F024FD00BF00F0AE
:1018200071FF0028FBD036480078022802D1FFF76C
:10183000FBFD23E03349344A1278885C3349FFF7D3
:1018400011FE3049304A1278885C3149FFF796FE24
:101850002C492D4A1278885C2D499631FFF76CFD92
:101860002849294A1278885C2A49FFF7C3FE25498E
:10187000254A1278885C2849FFF79AFD22480078AB
:10188000052822D2DFE800F003090F151B0040F203
:1018900031611E4800F094FD18E040F231611B48B0
:1018A00000F09AFD12E040F23161184800F0A0FD0E
:1018B0000CE040F23161154800F0A6FD06E040F270
:1018C0003161124800F0ACFD00E010BD00BF0E48D1
:1018D0000078042805DA0C480078401C0A49087092
:1018E0000BE000BF00F00EFF0028FBD040210B48AA
:1018F00000F02AFF00200449087000BFE5E700005F
:10190000500000204800002047000020AC0B0020C1
:10191000AC0E0020D7100020D71C00203F1E002056
:101920002A48007818281DD006DC152809D016286A
:1019300010D0172848D11EE0192825D0942843D16B
:101940002BE001202249087000202249224A127807
:10195000885439E001201E4908701E491E4A127839
:10196000885431E001201A490870022119481A4AA6
:101970001278815428E00120154908700321154888
:10198000154A127881541FE0012011490870042182
:101990001048114A1278815416E01048007848B96E
:1019A00001200E4908700E480E490A880280897885
:1019B000817008E000200949087009480A490A882E
:1019C00002808978817000BF00BF704767000020E7
:1019D0005100002042000020520000205000002052
:1019E0004D000020724100086F41000800BFFEE773
:1019F0007047000070B5002100230F22C47804B3A3
:101A0000154C246804F4E064C4F5E064210AC1F1D3
:101A10000403CA40447804FA03F184781440214353
:101A200009010E4C0678A155047804F01F05012425
:101A3000AC4005786D11AD0005F1E025C5F8004119
:101A400009E0047804F01F050124AC40044D067839
:101A5000761145F8264070BD0CED00E000E400E092
:101A600080E100E002490143024A11607047000032
:101A70000000FA050CED00E07047000029B1064AAD
:101A800052690243044B5A6104E0034A526982439B
:101A9000014B5A61704700000010024029B1064A0C
:101AA000D2690243044BDA6104E0034AD2698243FB
:101AB000014BDA61704700000010024029B1064A6C
:101AC00092690243044B9A6104E0034A926982439B
:101AD000014B9A6170470000001002402DE9F04769
:101AE00005460E462878FFF7EFFB80466878FFF73B
:101AF000EBFB8146A878FFF7E7FB824680270024AE
:101B000020E008EA070008B1152100E0092106F1EC
:101B1000100000EB4400018009EA070008B115201D
:101B200000E0092006EB440108800AEA070008B13A
:101B3000152100E0092106F1200000EB440001809E
:101B40007F10641C082CDCDBBDE8F087704710B503
:101B500000F002F810BD00000CB5002001900090CC
:101B60003348006840F480303149086000BF304895
:101B7000006800F4003000900198401C019000982B
:101B800018B90198B0F5A06FF1D12948006800F4A8
:101B9000003010B10120009001E00020009000987A
:101BA000012843D12348006840F010002149086013
:101BB0000846006820F0030008600846006840F00E
:101BC000020008601A4840681949486008464068A1
:101BD00048600846406840F48060486008464068B5
:101BE00020F47C1048600846406840F4E8104860E3
:101BF0000846006840F08070086000BF0C4800682C
:101C000000F000700028F9D00948406820F0030077
:101C1000074948600846406840F00200486000BF3D
:101C20000348406800F00C000828F9D10CBD000002
:101C300000100240002002402DE9F04106460C460B
:101C400017461D4605EB450211012068FEF7F6FA1E
:101C500005EB4501206800EB01102060BDE8F08134
:101C60002DE9F04704460D4616461F46D4F800807D
:101C7000D5F800903068C01B306007E0494609F194
:101C80003009404608F10308FFF728FF381EA7F186
:101C90000107F3D1C4F80080C5F80090BDE8F087D3
:101CA0007047000010B51348006840F0010011496A
:101CB000086008464068104908400E4948600846D8
:101CC00000680E4908400B4908600846006820F487
:101CD000802008600846406820F4FE0048604FF409
:101CE0001F008860FFF733FF4FF000600449086071
:101CF00010BD0000001002400000FFF8FFFFF6FEDC
:101D000008ED00E010B5074800F080F806490988A2
:101D100040F27122514300EB011004490988401A36
:101D200080B210BD00080040180000201A000020FA
:101D300010B50121134800F06CF801281CD112489D
:101D40000068401C1049086008460068FA2804D161
:101D500000F080FA01200D4908700B4800680A2144
:101D6000B0FBF1F201FB120010B901200849087024
:101D70000121044800F023F806480088401C05496A
:101D8000088010BD00080040140000204000002022
:101D9000410000201800002010B5002003490880F1
:101DA000034800F033F80349088010BD18000020F4
:101DB000000800401A000020CA4302827047CA434C
:101DC0000282704721B1028842F00102028004E0E1
:101DD00002884FF6FE731A400280704731B1B0F8A6
:101DE000442042F40042A0F8442005E0B0F844202A
:101DF000C2F30E02A0F8442070471AB183890B4346
:101E0000838102E083898B43838170470146888CFC
:101E1000704730B50246002000230024158A05EAE9
:101E20000103958905EA010413B10CB1012000E01A
:101E3000002030BD1AB183890B43838102E083897E
:101E40008B438381704701894FF6F87211400181FD
:101E50007047000070B5002400220023058C4FF667
:101E6000FE7635400584028C8388048B4FF68F758F
:101E70002C40B51E2C400D882C43751E2A400D8920
:101E80002A434D882A43144DA8420BD0134DA84233
:101E900008D0134DA84205D0124DA84202D0124DD1
:101EA000A84213D14FF6F7752A404D892A434FF6C1
:101EB000FB752A408D882A434FF6FF652B404FF66D
:101EC000FF552B408D892B43CD892B438380048381
:101ED000CD888586028470BD002C0140003401400D
:101EE0000040014000440140004801400A460021F2
:101EF000018B4FF6F77319401143018370470000BF
:101F000070B5002400220023058C4FF6EF76354093
:101F10000584028C8388048B48F6FF752C404FF6AD
:101F2000FF452C400D884FF6FF7606EA05252C4329
:101F30004FF6DF752A400D8906EA05152A434D88BC
:101F400006EA05152A43154DA84202D0144DA842B1
:101F50001DD14FF67F752A404D894FF6FF7606EA70
:101F600005152A434FF6BF752A408D8806EA0515E8
:101F70002A434FF6FF352B404FF2FF752B408D89DA
:101F800006EA85052B43CD8906EA85052B43838028
:101F90000483CD880587028470BD0000002C0140B9
:101FA000003401400A460021018B4FF2FF731940B3
:101FB0004FF6FF7303EA02231943018370470000C1
:101FC00070B5002400220023058C4FF6FF663540D3
:101FD0000584028C8388848B4FF68F752C404FF6D6
:101FE000FC752C400D882C434FF6FF552A400D8977
:101FF0004FF6FF7606EA05252A434D8806EA0525B1
:102000002A43154DA84202D0144DA8421DD14FF2CB
:10201000FF752A404D894FF6FF7606EA05252A43CB
:102020004FF6FF352A408D8806EA05252A434EF6ED
:10203000FF752B404DF6FF752B408D8906EA05157F
:102040002B43CD8906EA05152B4383808483CD88F5
:102050008587028470BD0000002C014000340140DF
:102060000A460021818B4FF6F77319401143818393
:102070007047000070B5002200230024058C4EF646
:10208000FF7635400584038C8488828B48F6FF7583
:102090002A404FF6FF452A400D884FF6FF7606EAA4
:1020A00005252A434DF6FF752B400D8906EA0535B7
:1020B0002B434D8806EA05352B430B4DA84202D031
:1020C0000A4DA84208D14BF6FF752C408D894FF67A
:1020D000FF7606EA85152C4384808283CD88A0F89C
:1020E0004050038470BD0000002C014000340140CA
:1020F0000A460021818B4FF2FF7319404FF6FF73A0
:1021000003EA022319438183704700210180418043
:102110008180C180018141818181C181704700003E
:10212000002202881D4B98420ED01D4B98420BD0C6
:10213000B0F1804F08D01B4B984205D01A4B984203
:1021400002D01A4B984204D14FF68F731A404B8835
:102150001A43174B984207D0164B984204D04FF6BB
:10216000FF431A40CB881A4302808B8883850B88F3
:1021700003850A4B98420BD0094B984208D00E4B6E
:10218000984205D00D4B984202D00D4B984201D198
:102190000B7A03860123838270470000002C0140E4
:1021A000003401400004004000080040000C0040E2
:1021B0000010004000140040004001400044014075
:1021C000004801404FF6FF71818000210180C180ED
:1021D00041800172704700001FB501210420FFF704
:1021E0005DFC1B48FFF72FFE0020ADF80A00ADF89C
:1021F000060042F20F70ADF808004720ADF8040069
:1022000000208DF80C0001A91148FFF789FF01217A
:102210000F48FFF7D1FD012211460D48FFF70AFED6
:102220004FF4A060FFF71EFC1E208DF80000012077
:102230008DF8030000208DF801008DF8020068463B
:10224000FFF7D8FB01210248FFF7BCFD1FBD0000CE
:102250000008004000200149086070471400002079
:1022600000BFFEE710B54248007858BB41480078EF
:10227000012827D1FFF7EEFF00203E4908703E48B5
:102280000078401C3C49087002203C493C4A1278C6
:10229000885412E0052000F083F83A490870374866
:1022A0000978405C48B901203449364A127888548C
:1022B000344800783249087003E02F480078052838
:1022C000E8D153E02A48007801282DD12A48007827
:1022D000052829D00020264908702649087026497B
:1022E000087000BF06E00021244A1154264A115408
:1022F000411CC8B20528F6DB14E0052000F050F8B8
:1023000020490870084600781D490978884209D09C
:1023100001201A491B4A127888541A480078184933
:10232000087000E0E9E721E01148007801281DD19C
:1023300011480078052819D100200D4908700E4970
:10234000087000BF06E000210C4A11540E4A1154D7
:10235000411CC8B20528F6DB052000F021F8084929
:10236000087001200549064A1278885410BD000003
:1023700040000020510000205300002048000020B1
:10238000520000205800002042000020FEF798FF75
:102390000020FEF79FFF01E0FFF738FAFCE700009E
:1023A00010B5044605480068FDF72AFFFDF7EEFE6C
:1023B00090FBF4F104FB1100C0B210BD140000202A
:1023C00070B504460D462A4621460248FEF74CFBEE
:1023D00070BD0000611C000870B504460D462A4619
:1023E00021460248FDF7B2FF70BD0000611C0008E5
:1023F00070B504460D462A4621460248FEF77EFA8D
:1024000070BD0000611C000870B504460D462A46E8
:1024100021460248FEF70AF970BD0000611C000861
:1024200070B504460D462A4621460248FEF740F89C
:1024300070BD0000611C000800B595B00121084680
:10244000FFF72CFB01210220FFF728FB01210420CC
:10245000FFF734FB01210820FFF730FB0121C80200
:10246000FFF72CFB01210846FFF708FB14A8FEF735
:102470001DFF40F24710ADF8500003208DF85200C8
:1024800018208DF8530014A99548FEF77BFE022012
:10249000ADF8500014A99348FEF774FE11A8FFF799
:1024A00091FE914800689149B0FBF1F0401E80B266
:1024B000ADF844000020ADF846001D20ADF84800FE
:1024C0000020ADF84A0011A94FF08040FFF728FE28
:1024D00011A98748FFF724FE834800688349B0FBB1
:1024E000F1F0401E80B2ADF8440011A98148FFF719
:1024F00017FE0DA8FFF709FE6020ADF8340001209B
:10250000ADF836000020ADF83A00ADF83C000DA95A
:102510004FF08040FFF7F4FC0821C806FFF742FDAA
:102520000DA94FF08040FFF74BFD0821C806FFF7CB
:1025300097FD0DA96E48FFF78DFC08216C48FFF749
:10254000D5FC0DA96A48FFF795FD08216848FFF7FB
:10255000CFFD0DA96748FFF77DFC08216548FFF70F
:10256000C5FC0DA94FF08040FFF774FC0821C80698
:10257000FFF7BCFC02A8FEF746FC5F4802905F48EC
:102580000390102004904FF4B46005900020069052
:1025900080200790400008908000099020200A9039
:1025A00000020B9000200C9002A95548FEF70BFC8E
:1025B0005148001D029002A951487838FEF703FCEB
:1025C0004B483430029002A94D481438FEF7FBFB0B
:1025D00047484030029002A949485038FEF7F3FBC3
:1025E00044483430029002A945486438FEF7EBFBBA
:1025F0004148001F029002A941482838FEF7E3FB3A
:10260000012291020805FFF7F8FB0122D102C8045C
:10261000FFF7F3FB012251023548FFF7EEFB0122E1
:1026200011033348FFF7E9FB012251023148FFF75C
:10263000E4FB012251024805FFF7DFFB11208DF872
:10264000040003208DF805008DF8060001208DF8A8
:10265000070001A8FFF7CEF90B208DF8040001A8B0
:10266000FFF7C8F910208DF8040001A8FFF7C2F9A0
:102670000D208DF8040001A8FFF7BCF90C208DF89F
:10268000040001A8FFF7B6F90F208DF8040001A897
:10269000FFF7B0F9012206211948FEF78BFB012252
:1026A000062117487838FEF785FB012206211448D9
:1026B0001438FEF77FFB0122062111485038FEF73F
:1026C00079FB012206210E486438FEF773FB0122D4
:1026D00006210B482838FEF76DFB15B000BD000041
:1026E00000080140000C01400000002000366E018F
:1026F00000040040002C0140380000406C00002025
:10270000800002400A48006880B90A48006868B939
:102710000948006850B90948006838B90848006895
:1027200020B90848006808B9012070470020FCE77C
:10273000200000201C000020240000202800002091
:102740002C0000203000002070B504460D462A46BB
:1027500021460248FEF720F870BD0000611C000809
:102760000000000000000000000000000101010165
:102770000101010102020202020203030303040435
:1027800004040505050506060607070708080809E5
:1027900009090A0A0B0B0B0C0C0D0D0E0E0F0F1076
:1027A00010111112121313141415151617171818E7
:1027B000191A1A1B1C1C1D1E1E1F20202122232338
:1027C000242526262728292A2A2B2C2D2E2F2F3068
:1027D000313233343536373838393A3B3C3D3E3F79
:1027E0004041424344454647494A4B4C4D4E4F5069
:1027F00051525455565758595B5C5D5E5F61626338
:1028000064666768696B6C6D6F70717374757778E7
:10281000797B7C7E7F808283858688898B8C8E8F76
:102820009192949597989A9B9D9EA0A2A3A5A6A8E5
:10283000AAABADAFB0B2B4B5B7B9BABCBEC0C1C334
:10284000C5C7C8CACCCECFD1D3D5D7D9DADCDEE064
:10285000E2E4E6E8E9EBEDEFF1F3F5F7F9FBFDFF74
:10286000B900000000B90000005000000000500155
:102870000100000000000000000000000000000057
:102880000000000000000000000000000001010145
:102890000101010101000000000000000000000033
:1028A000000000000000000101010101010101011F
:1028B0000100000001010101000000000000000013
:1028C0000000000000010101000000000000010103
:1028D00000000000000000010101000000000000F5
:1028E00000000001010100000000000000000101E3
:1028F00001000000000000000001010100000000D4
:1029000000000101000000000000000101010101C0
:1029100000000101000000000000010101000000B2
:1029200000010100000000000001010000000000A3
:102930000000000001010000000000010100000093
:102940000001010000000000010000000001010082
:10295000010100000001010000000101010101016D
:10296000010101010101010101010000010000015B
:102970000100000000000000000000000000000056
:102980000000000000000000000000000001010144
:102990000101010101000000000000000000000032
:1029A000000000000000000101010101010101011E
:1029B0000100000001010101000000000000000012
:1029C0000000000000010101000000000000010102
:1029D00000000000000000010101000000000000F4
:1029E00000000001010100000000000000000101E2
:1029F00001000000000000000001010100000000D3
:102A000000000101000000000000000101010101BF
:102A100000000101000000000000010101000000B1
:102A200000010100000000000001010000000000A2
:102A30000000000001010000000000010100000092
:102A40000001010000000000010000000001010081
:102A5000010100000001010000000101010101016C
:102A6000010101010101010101010000010000015A
:102A70000100000000000000000000000000000055
:102A80000000000000000000000000000001010143
:102A90000101010101000000000000000000000031
:102AA000000000000000000101010101010101011D
:102AB0000100000001010101000000000000000011
:102AC0000000000000010101000000000000010101
:102AD00000000000000000010101000000000000F3
:102AE00000000001010100000000000000000101E1
:102AF00001000000000000000001010100000000D2
:102B000000000101000000000000000101010101BE
:102B100000000101000000000000010101000000B0
:102B200000010100000000000001010000000000A1
:102B30000000000001010000000000010100000091
:102B40000001010000000000010000000001010080
:102B5000010100000001010000000101010101016B
:102B60000101010101010101010100000100000159
:102B70000100000000000000000000000000000054
:102B80000000000000000000000000000001010142
:102B90000101010101000000000000000000000030
:102BA000000000000000000101010101010101011C
:102BB0000100000001010101000000000000000010
:102BC0000000000000010101000000000000010100
:102BD00000000000000000010101000000000000F2
:102BE00000000001010100000000000000000101E0
:102BF00001000000000000000001010100000000D1
:102C000000000101000000000000000101010101BD
:102C100000000101000000000000010101000000AF
:102C200000010100000000000001010000000000A0
:102C30000000000001010000000000010100000090
:102C4000000101000000000001000000000101007F
:102C5000010100000001010000000101010101016A
:102C60000101010101010101010100000100000059
:102C70000000000000000000000000000000000054
:102C80000000000000000000000000000001010141
:102C9000010101010100000000000000000000002F
:102CA000000000000000000101010101010000001E
:102CB0000000000001010101000000000000000010
:102CC0000000000000010101000000000000000001
:102CD00000000000000000010101000000000000F1
:102CE00000000001010100000000000000000000E1
:102CF00000000000000000000001010100000000D1
:102D000000000101000000000000000000000000C1
:102D100000000000000000000000010101000000B0
:102D200000010100000000000000000000000000A1
:102D30000000000000000000000000010100000091
:102D40000001010000000000000000000000000081
:102D50000000000000000000000000010101000070
:102D60000101000000000000000000000000000061
:102D70000000000000000000000000000000000053
:102D80000000000000000000000000000001010140
:102D9000010101010100000000000000000000002E
:102DA000000000000000000101010101010000001D
:102DB000000000000101010100000000000000000F
:102DC0000000000000010101000000000000000000
:102DD00000000000000000010101000000000000F0
:102DE00000000001010100000000000000000000E0
:102DF00000000000000000000001010100000000D0
:102E000000000101000000000000000000000000C0
:102E100000000000000000000000010101000000AF
:102E200000010100000000000000000000000000A0
:102E30000000000000000000000000010100000090
:102E40000001010000000000000000000000000080
:102E5000000000000000000000000001010100006F
:102E60000101000000000000000000000000000060
:102E70000000000000000000000000000000000052
:102E8000000000000000000000000000000101013F
:102E9000010101010100000000000000000000002D
:102EA000000000000000000101010101010000001C
:102EB000000000000101010100000000000000000E
:102EC00000000000000101010000000000000000FF
:102ED00000000000000000010101000000000000EF
:102EE00000000001010100000000000000000000DF
:102EF00000000000000000000001010100000000CF
:102F000000000101000000000000000000000000BF
:102F100000000000000000000000010101000000AE
:102F2000000101000000000000000000000000009F
:102F3000000000000000000000000001010000008F
:102F4000000101000000000000000000000000007F
:102F5000000000000000000000000001010100006E
:102F6000010100000000000000000000000000005F
:102F70000000000000000000000000000000000051
:102F8000000000000000000000000000000101013E
:102F9000010101010100000000000000000000002C
:102FA000000000000000000101010101010000001B
:102FB000000000000101010100000000000000000D
:102FC00000000000000101010000000000000000FE
:102FD00000000000000000010101000000000000EE
:102FE00000000001010100000000000000000000DE
:102FF00000000000000000000001010100000000CE
:1030000000000101000000000000000000000000BE
:1030100000000000000000000000010101000000AD
:10302000000101000000000000000000000000009E
:10303000000000000000000000000001010000008E
:10304000000101000000000000000000000000007E
:10305000000000000000000000000001010100006D
:10306000010100000000000000000000000000005E
:103070000000000000000000000000000000000050
:103080000000000000000000000000000000000040
:103090000000000000000000000000000000000030
:1030A0000000000000000000000000000000000020
:1030B0000000000000000000000000000000000010
:1030C00000000000000000000000000001010100FD
:1030D00000010101010000000000000000000000EC
:1030E00000000000000000000101000000000000DE
:1030F00000000000000101000000000000000000CE
:1031000000000000000001010000000000000000BD
:1031100000000000000000010100000000000000AD
:10312000000000000001000000000000000000009E
:10313000000000000000000001000000000000008E
:10314000000000000101000000000000000000007D
:10315000000000000000000000010000000000006E
:10316000000000000100000000000000000000005E
:10317000000000000000000000000000000000004F
:10318000000000000000000000000000000000003F
:10319000000000000000000000000000000000002F
:1031A000000000000000000000000000000000001F
:1031B000000000000000000000000000000000000F
:1031C00000000000000000000000000001010100FC
:1031D00000010101010000000000000000000000EB
:1031E00000000000000000000101000000000000DD
:1031F00000000000000101000000000000000000CD
:1032000000000000000001010000000000000000BC
:1032100000000000000000010100000000000000AC
:10322000000000000001000000000000000000009D
:10323000000000000000000001000000000000008D
:10324000000000000101000000000000000000007C
:10325000000000000000000000010000000000006D
:10326000000000000100000000000000000000005D
:10327000000000000000000000000000000000004E
:10328000000000000000000000000000000000003E
:10329000000000000000000000000000000000002E
:1032A000000000000000000000000000000000001E
:1032B000000000000000000000000000000000000E
:1032C00000000000000000000000000001010100FB
:1032D00000010101010000000000000000000000EA
:1032E00000000000000000000101000000000000DC
:1032F00000000000000101000000000000000000CC
:1033000000000000000001010000000000000000BB
:1033100000000000000000010100000000000000AB
:10332000000000000001000000000000000000009C
:10333000000000000000000001000000000000008C
:10334000000000000101000000000000000000007B
:10335000000000000000000000010000000000006C
:10336000000000000100000000000000000000005C
:10337000000000000000000000000000000000004D
:10338000000000000000000000000000000000003D
:10339000000000000000000000000000000000002D
:1033A000000000000000000000000000000000001D
:1033B000000000000000000000000000000000000D
:1033C00000000000000000000000000001010100FA
:1033D00000010101010000000000000000000000E9
:1033E00000000000000000000101000000000000DB
:1033F00000000000000101000000000000000000CB
:1034000000000000000001010000000000000000BA
:1034100000000000000000010100000000000000AA
:10342000000000000001000000000000000000009B
:10343000000000000000000001000000000000008B
:10344000000000000101000000000000000000007A
:10345000000000000000000000010000000000006B
:10346000000000000100000000000000000000005B
:10347000000000000000000000000000000000004C
:10348000000000000000000000000000000000003C
:10349000000000000000000000000000000000002C
:1034A000000000000000000000000000000000001C
:1034B000000000000000000000000000000000000C
:1034C00000000000000000000000000000000000FC
:1034D00000000000000000000000000000000000EC
:1034E00000000000000000000000000000000000DC
:1034F00000000000000000000000000000000000CC
:1035000000000000000000000000000000010100B9
:1035100001010100000000000000000000000000A8
:103520000000000000000000000001010000000099
:103530000000000101000000000000000000000089
:10354000000000000000000000010000000000007A
:103550000000000001010000000000000000000069
:10356000000000000000000001000000000000005A
:10357000000000000000000000000000000000004B
:10358000000000000000000000000000000000003B
:10359000000000000000000000000000000000002B
:1035A000000000000000000000000000000000001B
:1035B000000000000000000000000000000000000B
:1035C00000000000000000000000000000000000FB
:1035D00000000000000000000000000000000000EB
:1035E00000000000000000000000000000000000DB
:1035F00000000000000000000000000000000000CB
:1036000000000000000000000000000000010100B8
:1036100001010100000000000000000000000000A7
:103620000000000000000000000001010000000098
:103630000000000101000000000000000000000088
:103640000000000000000000000100000000000079
:103650000000000001010000000000000000000068
:103660000000000000000000010000000000000059
:10367000000000000000000000000000000000004A
:10368000000000000000000000000000000000003A
:10369000000000000000000000000000000000002A
:1036A000000000000000000000000000000000001A
:1036B000000000000000000000000000000000000A
:1036C00000000000000000000000000000000000FA
:1036D00000000000000000000000000000000000EA
:1036E00000000000000000000000000000000000DA
:1036F00000000000000000000000000000000000CA
:1037000000000000000000000000000000010100B7
:1037100001010100000000000000000000000000A6
:103720000000000000000000000001010000000097
:103730000000000101000000000000000000000087
:103740000000000000000000000100000000000078
:103750000000000001010000000000000000000067
:103760000000000000000000010000000000000058
:103770000000000000000000000000000000000049
:103780000000000000000000000000000000000039
:103790000000000000000000000000000000000029
:1037A0000000000000000000000000000000000019
:1037B0000000000000000000000000000000000009
:1037C00000000000000000000000000000000000F9
:1037D00000000000000000000000000000000000E9
:1037E00000000000000000000000000000000000D9
:1037F00000000000000000000000000000000000C9
:1038000000000000000000000000000000010100B6
:1038100001010100000000000000000000000000A5
:103820000000000000000000000001010000000096
:103830000000000101000000000000000000000086
:103840000000000000000000000100000000000077
:103850000000000001010000000000000000000066
:103860000000000000000000010000000000000057
:103870000000000000000000000000000000000048
:103880000000000000000000000000000000000038
:103890000000000000000000000000000000000028
:1038A0000000000000000000000000000000000018
:1038B0000000000000000000000000000000000008
:1038C00000000000000000000000000000000000F8
:1038D00000000000000000000000000000000000E8
:1038E00000000000000000000000000000000000D8
:1038F00000000000000000000000000000000000C8
:1039000000000000000000000000000000000000B7
:1039100000000000000000000000000000000000A7
:103920000000000000000000000000000101010094
:103930000001010000000000000000000000000085
:103940000000000000000000000001010000000075
:103950000000000100000000000000000000000066
:103960000000000000000000000001000000000056
:103970000000000000000000000000000000000047
:103980000000000000000000000000000000000037
:103990000000000000000000000000000000000027
:1039A0000000000000000000000000000000000017
:1039B0000000000000000000000000000000000007
:1039C00000000000000000000000000000000000F7
:1039D00000000000000000000000000000000000E7
:1039E00000000000000000000000000000000000D7
:1039F00000000000000000000000000000000000C7
:103A000000000000000000000000000000000000B6
:103A100000000000000000000000000000000000A6
:103A20000000000000000000000000000101010093
:103A30000001010000000000000000000000000084
:103A40000000000000000000000001010000000074
:103A50000000000100000000000000000000000065
:103A60000000000000000000000001000000000055
:103A70000000000000000000000000000000000046
:103A80000000000000000000000000000000000036
:103A90000000000000000000000000000000000026
:103AA0000000000000000000000000000000000016
:103AB0000000000000000000000000000000000006
:103AC00000000000000000000000000000000000F6
:103AD00000000000000000000000000000000000E6
:103AE00000000000000000000000000000000000D6
:103AF00000000000000000000000000000000000C6
:103B000000000000000000000000000000000000B5
:103B100000000000000000000000000000000000A5
:103B20000000000000000000000000000101010092
:103B30000001010000000000000000000000000083
:103B40000000000000000000000001010000000073
:103B50000000000100000000000000000000000064
:103B60000000000000000000000001000000000054
:103B70000000000000000000000000000000000045
:103B80000000000000000000000000000000000035
:103B90000000000000000000000000000000000025
:103BA0000000000000000000000000000000000015
:103BB0000000000000000000000000000000000005
:103BC00000000000000000000000000000000000F5
:103BD00000000000000000000000000000000000E5
:103BE00000000000000000000000000000000000D5
:103BF00000000000000000000000000000000000C5
:103C000000000000000000000000000000000000B4
:103C100000000000000000000000000000000000A4
:103C20000000000000000000000000000101010091
:103C30000001010000000000000000000000000082
:103C40000000000000000000000001010000000072
:103C50000000000100000000000000000000000063
:103C60000000000000000000000001000000000053
:103C70000000000000000000000000000000000044
:103C80000000000000000000000000000000000034
:103C90000000000000000000000000000000000024
:103CA0000000000000000000000000000000000014
:103CB0000000000000000000000000000000000004
:103CC00000000000000000000000000000000000F4
:103CD00000000000000000000000000000000000E4
:103CE00000000000000000000000000000000000D4
:103CF00000000000000000000000000000000000C4
:103D000000000000000000000000000000000000B3
:103D100000000000000000000000000000000000A3
:103D20000000000000000000000000000000000093
:103D30000000000000000000000000000000000083
:103D40000000000000000000000000000000000172
:103D50000000000000000000000000000000000063
:103D60000000000000000000000000000001000052
:103D70000000000000000000000000000000000043
:103D80000000000000000000000000000000000033
:103D90000000000000000000000000000000000023
:103DA0000000000000000000000000000000000013
:103DB0000000000000000000000000000000000003
:103DC00000000000000000000000000000000000F3
:103DD00000000000000000000000000000000000E3
:103DE00000000000000000000000000000000000D3
:103DF00000000000000000000000000000000000C3
:103E000000000000000000000000000000000000B2
:103E100000000000000000000000000000000000A2
:103E20000000000000000000000000000000000092
:103E30000000000000000000000000000000000082
:103E40000000000000000000000000000000000171
:103E50000000000000000000000000000000000062
:103E60000000000000000000000000000001000051
:103E70000000000000000000000000000000000042
:103E80000000000000000000000000000000000032
:103E90000000000000000000000000000000000022
:103EA0000000000000000000000000000000000012
:103EB0000000000000000000000000000000000002
:103EC00000000000000000000000000000000000F2
:103ED00000000000000000000000000000000000E2
:103EE00000000000000000000000000000000000D2
:103EF00000000000000000000000000000000000C2
:103F000000000000000000000000000000000000B1
:103F100000000000000000000000000000000000A1
:103F20000000000000000000000000000000000091
:103F30000000000000000000000000000000000081
:103F40000000000000000000000000000000000170
:103F50000000000000000000000000000000000061
:103F60000000000000000000000000000001000050
:103F70000000000000000000000000000000000041
:103F80000000000000000000000000000000000031
:103F90000000000000000000000000000000000021
:103FA0000000000000000000000000000000000011
:103FB0000000000000000000000000000000000001
:103FC00000000000000000000000000000000000F1
:103FD00000000000000000000000000000000000E1
:103FE00000000000000000000000000000000000D1
:103FF00000000000000000000000000000000000C1
:1040000000000000000000000000000000000000B0
:1040100000000000000000000000000000000000A0
:104020000000000000000000000000000000000090
:104030000000000000000000000000000000000080
:10404000000000000000000000000000000000016F
:104050000000000000000000000000000000000060
:10406000000000000000000000000000000100004F
:10407000000001010000000001000000000100003C
:104080000101000001010000000101010100000028
:10409000000001010000000001000000000100001C
:1040A0000101000001010000000101010100000008
:1040B00000000101000000000100000000010000FC
:1040C00001010000010100000001010101000000E8
:1040D00000000101000000000100000000010000DC
:1040E00001010000010100000001010101000000C8
:1040F00000000101000000000100000000010000BC
:1041000001010000010100000001010101000000A7
:10411000000001010000000001000000000100009B
:104120000101000001010000000101010100000087
:10413000000001010000000001000000000100007B
:104140000101000001010000000101010100000067
:10415000000001010000000001000000000100005B
:10416000010100000101000000010101010000B98E
:1041700000000000B9000000984100080000002085
:104180006C00000028010008044200086C000020B8
:10419000DC2500004401000800A24A0400000000E1
:1041A00000000000010203040607080900000000E7
:1041B00000000000000000000000000000000000FF
:1041C00000000000000000000000000000000000EF
:1041D00000000000000000000000000000000000DF
:1041E000000000000000000000000000045000007B
:1041F00000000100000000000000000000000000BE
:0442000000000000BA
:04000005080000ED02
:00000001FF
