:020000040800F2
:100000007813002089010008890D0008730D00088D
:10001000850D0008D3020008271500080000000025
:10002000000000000000000000000000A50F000814
:10003000050C000800000000FD0D0008F910000884
:10004000A3010008A3010008A3010008A301000800
:10005000A3010008A3010008A3010008A3010008F0
:10006000A3010008A3010008A3010008F509000886
:10007000310A00086D0A0008A3010008A301000866
:10008000B10A0008F50A0008A3010008A30100084E
:10009000A3010008A3010008A3010008A3010008B0
:1000A000A3010008A3010008A3010008A3010008A0
:1000B000A3010008A3010008A3010008A301000890
:1000C000A3010008A3010008A3010008A301000880
:1000D000A3010008A3010008A3010008A301000870
:1000E000A3010008A3010008A301000800F002F822
:1000F00000F03AF80AA090E8000C82448344AAF188
:100100000107DA4501D100F02FF8AFF2090EBAE885
:100110000F0013F0010F18BFFB1A43F0010318473B
:10012000F818000018190000103A24BF78C878C1E8
:10013000FAD8520724BF30C830C144BF04680C60ED
:10014000704700000023002400250026103A28BF35
:1001500078C1FBD8520728BF30C148BF0B60704739
:100160001FB51FBD10B510BD00F07AF81146FFF79E
:10017000F7FF01F0DBF900F098F803B4FFF7F2FFA6
:1001800003BC00F09FF80000094880470948004779
:10019000FEE7FEE7FEE7FEE7FEE7FEE7FEE7FEE737
:1001A000FEE7FEE704480549054A064B7047000094
:1001B000FD100008ED000008780D002078130020E5
:1001C000780F0020780F00204FF000020429C0F0C3
:1001D000128010F0030C00F01E80CCF1040CBCF176
:1001E000020F18BF00F8012BA8BF20F8022BA1EBCB
:1001F0000C0100F010B85FEAC17C24BF00F8012BAD
:1002000000F8012B48BF00F8012B7047704770477A
:1002100070474FF0000200B51346944696462039C9
:1002200022BFA0E80C50A0E80C50B1F12001BFF4AF
:10023000F7AF090728BFA0E80C5048BF0CC05DF815
:1002400004EB890028BF40F8042B08BF704748BF63
:1002500020F8022B11F0804F18BF00F8012B7047D7
:10026000754600F02BF8AE4605006946534620F06F
:100270000700854618B020B5FFF794FFBDE8204081
:100280004FF000064FF000074FF000084FF0000B52
:1002900021F00701AC46ACE8C009ACE8C009ACE805
:1002A000C009ACE8C0098D46704710B50446AFF3ED
:1002B00000802046BDE81040FFF75FBF0048704750
:1002C000140D002001491820ABBEFEE726000200F5
:1002D000704700BFFEE700002DE9F84305460E46D3
:1002E000174626480068002845D1012023490860A8
:1002F0002348056023480660234807602348009090
:1003000000F53464022300226946104600F0C0FE66
:100310001D4A1168009AA21A302392FBF3F0814221
:1003200001D20A4600E002469146C8464346164AB4
:1003300069461448DFF848C0DCF800C0E047009880
:10034000A0420AD20098201A302190FBF1F84346CF
:1003500000226946104600F09BFE4FF4B4610C4841
:1003600000F041FC0121880700F0F8FE0121084857
:1003700000F0F0FB00BFBDE8F88300003C00002067
:100380004C0000205000002054000020D401002028
:10039000080002402DE9F3410C462348006860B98B
:1003A00000214FF0804000F0D9FE00211F4800F0EE
:1003B000D1FB00201E49086034E01E48006870B977
:1003C0000098201A302190FBF1F52B460022694657
:1003D000104600F05DFE00201349086022E0154A37
:1003E0001068009AA21A302392FBF3F1884201D2DE
:1003F000024600E00A46164635462B460D4A694637
:100400000D48094F3F68B8470098A0420AD20098AB
:10041000201A302190FBF1F52B4600226946104648
:1004200000F036FEBDE8FC814C00002008000240D0
:100430003C00002054000020500000202DE9F8432B
:1004400005460E46174628480068002849D1012075
:10045000254908602548056025480660254807604D
:100460002548009000F534640223002269461046B6
:1004700000F00EFE1F4A1168009AA21A302392FB68
:10048000F3F0814201D20A4600E002469146C84696
:100490004346184A69461648DFF850C0DCF800C0E9
:1004A000E0470098A0420AD20098201A302190FB21
:1004B000F1F8434600226946104600F0E9FD4FF48A
:1004C000B4610E4800F08FFB01210D4800F046FE9C
:1004D00001210B4800F04EFE0121084800F03AFBD4
:1004E00000BFBDE8F8830000480000204C00002059
:1004F0005000002054000020D40100201C000240C5
:10050000002C01402DE9F3410C462548006878B9DC
:100510000021244800F022FE0121224800F02AFE9A
:100520000021214800F016FB00202049086034E03B
:100530001F48006870B90098201A302190FBF1F52F
:100540002B4600226946104600F0A2FD0020144907
:10055000086022E0164A1068009AA21A302392FB23
:10056000F3F1884201D2024600E00A4616463546BB
:100570002B460F4A69460F48094F3F68B847009815
:10058000A0420AD20098201A302190FBF1F52B46A8
:1005900000226946104600F07BFDBDE8FC810000AA
:1005A0004C000020002C01401C00024048000020AC
:1005B00054000020500000202DE9F84305460E4667
:1005C000174626480068002845D1012023490860C5
:1005D00023480560234806602348076023480090AD
:1005E00000F53464022300226946104600F050FDF5
:1005F0001D4A1168009AA21A302392FBF3F081423F
:1006000001D20A4600E002469146C8464346164AD1
:1006100069461448DFF848C0DCF800C0E04700989D
:10062000A0420AD20098201A302190FBF1F84346EC
:1006300000226946104600F02BFD4FF4B4610C48CF
:1006400000F0D1FA01210B4800F088FD0121084893
:1006500000F080FA00BFBDE8F883000044000020ED
:100660004C0000205000002054000020D401002045
:1006700030000240000400402DE9F3410C462348BD
:10068000006858B90021224800F068FD0021214887
:1006900000F060FA00202049086034E01F4800683C
:1006A00070B90098201A302190FBF1F52B460022FA
:1006B0006946104600F0ECFC00201449086022E076
:1006C000164A1068009AA21A302392FBF3F188426E
:1006D00001D2024600E00A46164635462B460F4A2E
:1006E00069460F48094F3F68B8470098A0420AD2B0
:1006F0000098201A302190FBF1F52B460022694624
:10070000104600F0C5FCBDE8FC8100004C00002054
:10071000000400403000024044000020540000204B
:10072000500000202DE9F84305460E46174626489E
:100730000068002845D1012023490860234805604E
:1007400023480660234807602348009000F534647E
:10075000022300226946104600F09AFC1D4A1168E7
:10076000009AA21A302392FBF3F0814201D20A468A
:1007700000E002469146C8464346164A6946144878
:10078000DFF848C0DCF800C0E0470098A0420AD279
:100790000098201A302190FBF1F843460022694668
:1007A000104600F075FC4FF4B4610C4800F01BFAE1
:1007B00001210B4800F0D2FC0121084800F0CAF9E1
:1007C00000BFBDE8F8830000400000204C0000207E
:1007D0005000002054000020D40100206C00024092
:1007E000000400402DE9F3410C462348006858B945
:1007F0000021224800F0B2FC0021214800F0AAF9B3
:1008000000202049086034E01F48006870B9009853
:10081000201A302190FBF1F52B4600226946104644
:1008200000F036FC00201449086022E0164A1068E7
:10083000009AA21A302392FBF3F1884201D20246B9
:1008400000E00A46164635462B460F4A69460F48D1
:10085000094F3F68B8470098A0420AD20098201A72
:10086000302190FBF1F52B4600226946104600F03E
:100870000FFCBDE8FC8100004C000020000400409B
:100880006C00024040000020540000205000002076
:100890002DE9F84305460E4617462648006800280D
:1008A00045D101202349086023480560234806609C
:1008B000234807602348009000F534640223002297
:1008C0006946104600F0E4FB1D4A1168009AA21A1E
:1008D000302392FBF3F0814201D20A4600E0024647
:1008E0009146C8464346164A69461448DFF848C050
:1008F000DCF800C0E0470098A0420AD20098201A15
:10090000302190FBF1F8434600226946104600F082
:10091000BFFB4FF4B4610C4800F065F90121880772
:1009200000F01CFC0121084800F014F900BFBDE8EC
:10093000F8830000380000204C0000205000002008
:1009400054000020D4010020800002402DE9F34132
:100950000C462348006860B900214FF0804000F049
:10096000FDFB00211F4800F0F5F800201E4908603B
:1009700034E01E48006870B90098201A302190FBBE
:10098000F1F52B4600226946104600F081FB00205D
:100990001349086022E0154A1068009AA21A302311
:1009A00092FBF3F1884201D2024600E00A46164665
:1009B00035462B460D4A69460D48094F3F68B847F2
:1009C0000098A0420AD20098201A302190FBF1F53D
:1009D0002B4600226946104600F05AFBBDE8FC8118
:1009E0004C0000208000024038000020540000200D
:1009F0005000002010B5042000F0B8F838B10420F1
:100A000000F09AF80849A1F5B460FFF7C3FC022092
:100A100000F0ACF830B1022000F08EF80349024833
:100A2000FFF7B8FC10BD000074070020140D002073
:100A300010B5402000F09AF838B1402000F07CF862
:100A40000849A1F5B460FFF75DFD202000F08EF8A5
:100A500030B1202000F070F803490248FFF752FD42
:100A600010BD000074070020140D002010B54FF4D5
:100A7000806000F07BF840B14FF4806000F05CF8DB
:100A80000949A1F5B460FFF7F7FD4FF4007000F0DD
:100A90006DF838B14FF4007000F04EF80349024889
:100AA000FFF7EAFD10BD000074070020140D0020C0
:100AB00010B54FF4800000F059F840B14FF48000B9
:100AC00000F03AF80949A1F5B460FFF78BFE4FF446
:100AD000001000F04BF838B14FF4001000F02CF883
:100AE00003490248FFF77EFE10BD00007407002096
:100AF000140D002010B54FF0806000F037F840B1C1
:100B00004FF0806000F018F80949A1F5B460FFF7D4
:100B10001DFF4FF0007000F029F838B14FF0007061
:100B200000F00AF803490248FFF710FF10BD00006B
:100B300074070020140D002000F0805111B103490A
:100B4000086001E002494860704700000404024068
:100B50000000024021B1026842F00102026004E09C
:100B600002684FF6FE731A4002607047014600208B
:100B7000002201F0805313B1054B1A6801E0054BC8
:100B80001A6802EA01030BB1012000E0002070475F
:100B900000040240000002401AB103680B430360E6
:100BA00002E003688B430360704710B500220268BF
:100BB00047F6F0739A430C6A8B6823430C6923430E
:100BC0004C6923438C692343CC6923434C6A2343F8
:100BD0008C6A23431A430260CB6843600B688360CE
:100BE0004B68C36010BD41607047002101604160E7
:100BF0008160C160016141618161C16101624162E5
:100C000081627047704700B5034603E04FF47A7085
:100C100000F005F8181EA3F10103F7D100BD00EBA9
:100C2000C001C9004FF0E02251610021916105210E
:100C3000116100BF4FF0E021096901F48031002902
:100C4000F8D004214FF0E022116170472DE9F04106
:100C5000024600250026002000230024002791F8EA
:100C600003C00CF00F0591F803C00CF0100CBCF1A0
:100C7000000F03D091F802C04CEA050591F800C0BE
:100C8000BCF1000F31D0146800202BE04FF0010CB4
:100C90000CFA00F3B1F800C00CEA03069E4220D122
:100CA00083004FF00F0C0CFA03F7BC4305FA03FC6A
:100CB0004CEA040491F803C0BCF1280F06D14FF0B0
:100CC000010C0CFA00FCC2F814C00AE091F803C051
:100CD000BCF1480F05D14FF0010C0CFA00FCC2F832
:100CE00010C0401C0828D1D31460B1F800C0BCF17A
:100CF000FF0F34DD546800202EE000F1080C4FF0A7
:100D0000010808FA0CF3B1F800C00CEA03069E4291
:100D100021D183004FF00F0C0CFA03F7BC4305FA06
:100D200003FC4CEA040491F803C0BCF1280F05D180
:100D300000F1080C08FA0CF8C2F8148091F803C00E
:100D4000BCF1480F07D100F1080C4FF0010808FA78
:100D50000CF8C2F81080401C0828CED35460BDE8BF
:100D6000F0814FF6FF710180022181700421C17072
:100D7000704700BFFEE7000001460148405C704735
:100D80001819000800BFFEE77047000070B5002189
:100D900000230F22C47804B3154C246804F4E064E3
:100DA000C4F5E064210AC1F10403CA40447804FA9E
:100DB00003F184781440214309010E4C0678A155B3
:100DC000047804F01F050124AC4005786D11AD00D6
:100DD00005F1E025C5F8004109E0047804F01F059D
:100DE0000124AC40044D0678761145F8264070BDCC
:100DF0000CED00E000E400E080E100E0704700005E
:100E000029B1064A52690243044B5A6104E0034A7D
:100E100052698243014B5A61704700000010024042
:100E200029B1064AD2690243044BDA6104E0034A5D
:100E3000D2698243014BDA61704700000010024022
:100E400029B1064A92690243044B9A6104E0034ABD
:100E500092698243014B9A61704700000010024082
:100E600030B500210022002400232D4D6D6805F0CF
:100E70000C0121B1042905D0082923D105E0294D11
:100E8000056022E0274D05601FE0254D6D6805F4E3
:100E90007012234D6D6805F48034022505EB9242F3
:100EA0001CB9214D554305600BE01D4D6D6805F4DF
:100EB00000351DB11C4D5543056002E0194D5543E9
:100EC000056002E0174D056000BF00BF144D6D685E
:100ED00005F0F0010909154D6B5C0568DD404560C2
:100EE0000F4D6D6805F4E061090A104D6B5C4568B3
:100EF000DD4085600A4D6D6805F46051C90A0B4DEF
:100F00006B5C4568DD40C560054D6D6805F440418A
:100F1000890B074D6B5CC568B5FBF3F5056130BD0A
:100F20000010024000127A0000093D001400002069
:100F3000240000202DE9F04705460E462878FFF7EB
:100F40001BFF80466878FFF717FF8146A878FFF7F8
:100F500013FF82468027002420E008EA070008B13A
:100F6000152100E0092106F1100000EB440001808A
:100F700009EA070008B1152000E0092006EB44014A
:100F800008800AEA070008B1152100E0092106F1EE
:100F9000200000EB440001807F10641C082CDCDB87
:100FA000BDE8F087704710B500F002F810BD0000F2
:100FB0000CB50020019000903348006840F4803068
:100FC0003149086000BF3048006800F400300090EC
:100FD0000198401C0190009818B90198B0F5A06FD5
:100FE000F1D12948006800F4003010B101200090D0
:100FF00001E0002000900098012843D123480068B8
:1010000040F01000214908600846006820F0030005
:1010100008600846006840F0020008601A4840680E
:10102000194948600846406848600846406840F4EE
:10103000806048600846406820F47C10486008469C
:10104000406840F4E81048600846006840F080704E
:10105000086000BF0C48006800F000700028F9D05C
:101060000948406820F00300074948600846406886
:1010700040F00200486000BF0348406800F00C00E8
:101080000828F9D10CBD00000010024000200240E9
:101090002DE9F04106460C4617461D4605EB450274
:1010A00011012068FFF790F805EB4501206800EB7F
:1010B00001102060BDE8F0812DE9F04704460D469F
:1010C00016461F46D4F80080D5F800903068C01B43
:1010D000306007E0494609F13009404608F103084D
:1010E000FFF728FF381EA7F10107F3D1C4F80080ED
:1010F000C5F80090BDE8F0877047000010B51348B0
:10110000006840F001001149086008464068104935
:1011100008400E494860084600680E4908400B49DF
:1011200008600846006820F480200860084640688F
:1011300020F4FE0048604FF41F008860FFF733FF83
:101140004FF000600449086010BD0000001002402C
:101150000000FFF8FFFFF6FE08ED00E021B1028875
:1011600042F00102028004E002884FF6FE731A404A
:101170000280704731B1B0F8442042F40042A0F838
:10118000442005E0B0F84420C2F30E02A0F8442049
:1011900070471AB183890B43838102E083898B43B3
:1011A0008381704770B5002400220023058C4FF620
:1011B000FE7635400584028C8388048B4FF68F754C
:1011C0002C40B51E2C400D882C43751E2A400D89DD
:1011D0002A434D882A43144DA8420BD0134DA842F0
:1011E00008D0134DA84205D0124DA84202D0124D8E
:1011F000A84213D14FF6F7752A404D892A434FF67E
:10120000FB752A408D882A434FF6FF652B404FF629
:10121000FF552B408D892B43CD892B43838004833D
:10122000CD888586028470BD002C014000340140C9
:101230000040014000440140004801400A460021AE
:10124000018B4FF6F773194011430183704700007B
:1012500070B5002400220023058C4FF6EF76354050
:101260000584028C8388048B48F6FF752C404FF66A
:10127000FF452C400D884FF6FF7606EA05252C43E6
:101280004FF6DF752A400D8906EA05152A434D8879
:1012900006EA05152A43154DA84202D0144DA8426E
:1012A0001DD14FF67F752A404D894FF6FF7606EA2D
:1012B00005152A434FF6BF752A408D8806EA0515A5
:1012C0002A434FF6FF352B404FF2FF752B408D8997
:1012D00006EA85052B43CD8906EA85052B438380E5
:1012E0000483CD880587028470BD0000002C014076
:1012F000003401400A460021018B4FF2FF73194070
:101300004FF6FF7303EA022319430183704700007D
:1013100070B5002400220023058C4FF6FF6635408F
:101320000584028C8388848B4FF68F752C404FF692
:10133000FC752C400D882C434FF6FF552A400D8933
:101340004FF6FF7606EA05252A434D8806EA05256D
:101350002A43154DA84202D0144DA8421DD14FF288
:10136000FF752A404D894FF6FF7606EA05252A4388
:101370004FF6FF352A408D8806EA05252A434EF6AA
:10138000FF752B404DF6FF752B408D8906EA05153C
:101390002B43CD8906EA05152B4383808483CD88B2
:1013A0008587028470BD0000002C0140003401409C
:1013B0000A460021818B4FF6F77319401143818350
:1013C0007047000070B5002200230024058C4EF603
:1013D000FF7635400584038C8488828B48F6FF7540
:1013E0002A404FF6FF452A400D884FF6FF7606EA61
:1013F00005252A434DF6FF752B400D8906EA053574
:101400002B434D8806EA05352B430B4DA84202D0ED
:101410000A4DA84208D14BF6FF752C408D894FF636
:10142000FF7606EA85152C4384808283CD88A0F858
:101430004050038470BD0000002C01400034014086
:101440000A460021818B4FF2FF7319404FF6FF735C
:1014500003EA022319438183704700210180418000
:101460008180C180018141818181C18170470000FB
:10147000002202881D4B98420ED01D4B98420BD083
:10148000B0F1804F08D01B4B984205D01A4B9842C0
:1014900002D01A4B984204D14FF68F731A404B88F2
:1014A0001A43174B984207D0164B984204D04FF678
:1014B000FF431A40CB881A4302808B8883850B88B0
:1014C00003850A4B98420BD0094B984208D00E4B2B
:1014D000984205D00D4B984202D00D4B984201D155
:1014E0000B7A03860123838270470000002C0140A1
:1014F000003401400004004000080040000C00409F
:101500000010004000140040004001400044014031
:10151000004801404FF6FF71818000210180C180A9
:1015200041800172704700BFFEE7000000F056F8EE
:101530002748FFF795FC4AE000BF00F093F9002828
:10154000FBD000200AE000EB4001224A1144224A6D
:1015500013880B8092788A70411CC8B27828F2DB1D
:1015600078211C4800F09CF93220FFF74CFB00BFAB
:1015700000F078F90028FBD07821164800F09CF99B
:101580003220FFF740FB00BF00F06CF90028FBD0D1
:101590007821104800F09CF93220FFF734FB00BF9F
:1015A00000F060F90028FBD078210A4800F0A8F983
:1015B0003220FFF728FB00BF00F054F90028FBD0D1
:1015C0007821044800F090F93220FFF71CFBB3E7C4
:1015D000C0010020580000202800002000B595B070
:1015E00001210846FFF71CFC01210220FFF718FC2F
:1015F00001210420FFF724FC01210820FFF720FC33
:101600000121C802FFF71CFC01210846FFF7F8FB87
:1016100014A8FFF7A6FB4FF4A370ADF85000032009
:101620008DF8520018208DF8530014A98448FFF754
:101630000DFB0220ADF8500014A98248FFF706FB0D
:1016400011A8FFF767FF804800688049B0FBF1F000
:10165000401E80B2ADF844000020ADF846001D20C9
:10166000ADF848000020ADF84A0011A94FF08040C5
:10167000FFF7FEFE11A97648FFF7FAFE72480068F0
:101680007249B0FBF1F0401E80B2ADF8440011A9E0
:101690007048FFF7EDFE0DA8FFF7DFFE6020ADF804
:1016A00034000120ADF836000020ADF83A00ADF866
:1016B0003C000DA94FF08040FFF7CAFD0821C80685
:1016C000FFF718FE0DA94FF08040FFF721FE08211B
:1016D000C806FFF76DFE0DA95D48FFF763FD082101
:1016E0005B48FFF7ABFD0DA95948FFF76BFE0821DA
:1016F0005748FFF7A5FE0DA95648FFF753FD0821EF
:101700005448FFF79BFD02A8FFF76FFA524802907A
:1017100052480390102004904FF4B46005900020CC
:1017200006908020079040000890800009902020BB
:101730000A9000020B9000200C9002A94848FFF785
:1017400034FA4548001D029002A945487838FFF751
:101750002CFA3F483430029002A941481438FFF770
:1017600024FA3B484030029002A93D485038FFF728
:101770001CFA38483430029002A939486438FFF71F
:1017800014FA012291020805FFF703FD0122D1029C
:10179000C804FFF7FEFC012251022D48FFF7F9FCB7
:1017A000012211032A48FFF7F4FC012251022948C3
:1017B000FFF7EFFC11208DF8040000208DF80500E4
:1017C0008DF8060001208DF8070001A8FFF7DEFA6A
:1017D0000B208DF8040001A8FFF7D8FA10208DF82F
:1017E000040001A8FFF7D2FA0D208DF8040001A82B
:1017F000FFF7CCFA0C208DF8040001A8FFF7C6FA19
:10180000012206211648FFF7C7F9012206211448D4
:101810007838FFF7C1F90122062111481438FFF783
:10182000BBF9012206210E485038FFF7B5F9012215
:1018300006210B486438FFF7AFF915B000BD000072
:1018400000080140000C01400000002000366E013D
:1018500000040040002C014038000040D40100206A
:10186000800002400948006868B90948006850B91A
:101870000848006838B90848006820B90748006877
:1018800008B9012070470020FCE700003C00002060
:1018900038000020400000204400002048000020C4
:1018A00070B504460D462A4621460248FEF7F0FF71
:1018B00070BD0000B910000870B504460D462A46F8
:1018C00021460248FEF708FD70BD0000B91000086F
:1018D00070B504460D462A4621460248FEF722FF0F
:1018E00070BD0000B910000870B504460D462A46C8
:1018F00021460248FEF7A2FD70BD0000B9100008A5
:1019000070B504460D462A4621460248FEF754FEAD
:1019100070BD0000B91000080000000000000000C9
:1019200000000000010101010101010102020202A7
:101930000202030303030404040405050505060667
:10194000060707070808080909090A0A0B0B0B0C08
:101950000C0D0D0E0E0F0F10101111121213131487
:101960001415151617171818191A1A1B1C1C1D1EEA
:101970001E1F202021222323242526262728292A2A
:101980002A2B2C2D2E2F2F30313233343536373849
:1019900038393A3B3C3D3E3F40414243444546474F
:1019A000494A4B4C4D4E4F50515254555657585929
:1019B0005B5C5D5E5F61626364666768696B6C6DEA
:1019C0006F70717374757778797B7C7E7F8082838A
:1019D000858688898B8C8E8F9192949597989A9B07
:1019E0009D9EA0A2A3A5A6A8AAABADAFB0B2B4B568
:1019F000B7B9BABCBEC0C1C3C5C7C8CACCCECFD1A7
:101A0000D3D5D7D9DADCDEE0E2E4E6E8E9EBEDEFC6
:101A1000F1F3F5F7F9FBFDFF381A0008000000208C
:101A20005800000028010008901A00085800002003
:101A3000201300004401000800A24A040000000036
:101A4000000000000102030406070809000000006E
:101A50000102030401020304060708090204060840
:101A6000FF00000000FF3200000000000000000046
:101A70000000000000000000000000000000000066
:101A80000000000000000000000000000000000056
:04000005080000ED02
:00000001FF
