:020000040800F2
:1000000070260020C101000809190008A912000883
:1000100005190008490300085522000800000000E7
:10002000000000000000000000000000391B000874
:10003000210E000800000000911900088D1C000826
:10004000DB010008DB010008DB010008DB01000820
:10005000DB010008DB010008DB010008DB01000810
:10006000DB010008250E0008DB010008CD0B0008AD
:10007000090C0008450C0008DB010008890C000889
:10008000CD0C0008110D0008DB010008DB010008A1
:10009000DB010008DB010008DB010008DB010008D0
:1000A000DB010008DB010008DB010008DB010008C0
:1000B000DB010008DB010008211D0008DB0100084E
:1000C000DB010008DB010008DB010008DB010008A0
:1000D000DB010008DB010008DB010008DB01000890
:1000E000DB010008DB010008DB01000800F002F87A
:1000F00000F03CF80AA090E8000C82448344AAF186
:100100000107DA4501D100F031F8AFF2090EBAE883
:100110000F0013F0010F18BFFB1A43F0010318473B
:100120006840000088400000103A24BF78C878C1B9
:10013000FAD8520724BF30C830C144BF04680C60ED
:10014000704700000023002400250026103A28BF35
:1001500078C1FBD8520728BF30C148BF0B60704739
:100160001FB500F062F81FBD10B510BD00F0B2F869
:100170001146FFF7F5FF02F003F900F0D0F803B4E1
:10018000FFF7F2FF03BC00F0D9F800000B49D1F8EB
:1001900000C04A685CF8043B1068184442F8040B3D
:1001A0008C4528BFA1F1DC0C8A4228BFA1F1DC02FA
:1001B000C1F800C04A6020F00040704704200020D1
:1001C0000948804709480047FEE7FEE7FEE7FEE7EB
:1001D000FEE7FEE7FEE7FEE7FEE7FEE70448054927
:1001E000054A064B70470000911C0008ED0000080E
:1001F0007020002070260020702200207022002035
:100200000B4910B5A1F17C020A4CC2E93712372123
:1002100006E000EB104342F82130074B00FB03409F
:100220000B1EA1F10101F4DC10BD0120E8E7000084
:10023000A41F0020E119D666CD0D01004FF0000289
:100240000429C0F0128010F0030C00F01E80CCF1E5
:10025000040CBCF1020F18BF00F8012BA8BF20F856
:10026000022BA1EB0C0100F010B85FEAC17C24BFA7
:1002700000F8012B00F8012B48BF00F8012B704754
:100280007047704770474FF0000200B51346944620
:100290009646203922BFA0E80C50A0E80C50B1F1DE
:1002A0002001BFF4F7AF090728BFA0E80C5048BFF2
:1002B0000CC05DF804EB890028BF40F8042B08BF90
:1002C000704748BF20F8022B11F0804F18BF00F88C
:1002D000012B7047754600F02BF8AE4605006946C5
:1002E000534620F00700854618B020B5FFF776FF8B
:1002F000BDE820404FF000064FF000074FF0000827
:100300004FF0000B21F00701AC46ACE8C009ACE8A7
:10031000C009ACE8C009ACE8C0098D46704710B50B
:100320000446AFF300802046BDE81040FFF727BF2A
:10033000004870470C200020704700000149182039
:10034000ABBEFEE72600020000BFFEE72DE9F84342
:1003500005460E46174626480068002845D101206C
:100360002349086023480560234806602348076046
:100370002348009000F534640223002269461046A9
:1003800001F050FC1D4A1168009AA21A302392FB1A
:10039000F3F0814201D20A4600E002469146C84687
:1003A0004346164A69461448DFF848C0DCF800C0E6
:1003B000E0470098A0420AD20098201A302190FB12
:1003C000F1F8434600226946104601F02BFC4FF439
:1003D000B4610C4800F015FD0121880701F0ECFC28
:1003E0000121084800F0C4FC00BFBDE8F88300000C
:1003F000380000204C000020500000205400002055
:1004000094000020080002402DE9F3410C462348E7
:10041000006860B900214FF0804001F0CDFC002160
:100420001F4800F0A5FC00201E49086034E01E486B
:10043000006870B90098201A302190FBF1F52B4626
:1004400000226946104601F0EDFB002013490860C8
:1004500022E0154A1068009AA21A302392FBF3F1A9
:10046000884201D2024600E00A46164635462B462F
:100470000D4A69460D48094F3F68B8470098A042A9
:100480000AD20098201A302190FBF1F52B46002269
:100490006946104601F0C6FBBDE8FC814C00002017
:1004A00008000240380000205400002050000020C6
:1004B0002DE9F84305460E461746284800680028EF
:1004C00049D1012025490860254805602548066076
:1004D000254807602548009000F534640223002277
:1004E0006946104601F09EFB1F4A1168009AA21A45
:1004F000302392FBF3F0814201D20A4600E002462B
:100500009146C8464346184A69461648DFF850C027
:10051000DCF800C0E0470098A0420AD20098201AF8
:10052000302190FBF1F8434600226946104601F065
:1005300079FB4FF4B4610E4800F063FC01210D48D3
:1005400001F03AFC01210B4801F042FC012108486E
:1005500000F00EFC00BFBDE8F8830000440000205E
:100560004C00002050000020540000209400002087
:100570001C000240002C01402DE9F3410C462548A7
:10058000006878B90021244801F016FC01212248B6
:1005900001F01EFC0021214800F0EAFB0020204968
:1005A000086034E01F48006870B90098201A3021B4
:1005B00090FBF1F52B4600226946104601F032FB14
:1005C00000201449086022E0164A1068009AA21A16
:1005D000302392FBF3F1884201D2024600E00A4642
:1005E000164635462B460F4A69460F48094F3F6865
:1005F000B8470098A0420AD20098201A302190FBF8
:10060000F1F52B4600226946104601F00BFBBDE8D0
:10061000FC8100004C000020002C01401C00024026
:100620004400002054000020500000202DE9F84331
:1006300005460E46174626480068002845D1012089
:100640002349086023480560234806602348076063
:100650002348009000F534640223002269461046C6
:1006600001F0E0FA1D4A1168009AA21A302392FBA9
:10067000F3F0814201D20A4600E002469146C846A4
:100680004346164A69461448DFF848C0DCF800C003
:10069000E0470098A0420AD20098201A302190FB2F
:1006A000F1F8434600226946104601F0BBFA4FF4C8
:1006B000B4610C4800F0A5FB01210B4801F07CFB64
:1006C0000121084800F054FB00BFBDE8F88300009A
:1006D000400000204C00002050000020540000206A
:1006E0009400002030000240000400402DE9F34156
:1006F0000C462348006858B90021224801F05CFBF1
:100700000021214800F034FB00202049086034E03B
:100710001F48006870B90098201A302190FBF1F54D
:100720002B4600226946104601F07CFA002014494D
:10073000086022E0164A1068009AA21A302392FB41
:10074000F3F1884201D2024600E00A4616463546D9
:100750002B460F4A69460F48094F3F68B847009833
:10076000A0420AD20098201A302190FBF1F52B46C6
:1007700000226946104601F055FABDE8FC810000F0
:100780004C000020000400403000024040000020E7
:1007900054000020500000202DE9F84305460E4685
:1007A000174626480068002845D1012023490860E3
:1007B00023480560234806602348076023480090CB
:1007C00000F53464022300226946104601F02AFA3B
:1007D0001D4A1168009AA21A302392FBF3F081425D
:1007E00001D20A4600E002469146C8464346164AF0
:1007F00069461448DFF848C0DCF800C0E0470098BC
:10080000A0420AD20098201A302190FBF1F843460A
:1008100000226946104601F005FA4FF4B4610C4815
:1008200000F0EFFA0121880701F0C6FA012108481B
:1008300000F09EFA00BFBDE8F883000048000020E9
:100840004C000020500000205400002094000020A4
:10085000580002402DE9F3410C462348006860B976
:1008600000214FF0804001F0A7FA00211F4800F05E
:100870007FFA00201E49086034E01E48006870B905
:100880000098201A302190FBF1F52B460022694692
:10089000104601F0C7F900201349086022E0154A0C
:1008A0001068009AA21A302392FBF3F1884201D219
:1008B000024600E00A46164635462B460D4A694672
:1008C0000D48094F3F68B8470098A0420AD20098E7
:1008D000201A302190FBF1F52B4600226946104684
:1008E00001F0A0F9BDE8FC814C0000205800024056
:1008F0004800002054000020500000202DE9F8435B
:1009000005460E46174626480068002845D10120B6
:100910002349086023480560234806602348076090
:100920002348009000F534640223002269461046F3
:1009300001F078F91D4A1168009AA21A302392FB3F
:10094000F3F0814201D20A4600E002469146C846D1
:100950004346164A69461448DFF848C0DCF800C030
:10096000E0470098A0420AD20098201A302190FB5C
:10097000F1F8434600226946104601F053F94FF45E
:10098000B4610C4800F03DFA01210B4801F014FA63
:100990000121084800F0ECF900BFBDE8F883000031
:1009A0003C0000204C00002050000020540000209B
:1009B000940000206C000240000400402DE9F34147
:1009C0000C462348006858B90021224801F0F4F988
:1009D0000021214800F0CCF900202049086034E0D3
:1009E0001F48006870B90098201A302190FBF1F57B
:1009F0002B4600226946104601F014F900201449E4
:100A0000086022E0164A1068009AA21A302392FB6E
:100A1000F3F1884201D2024600E00A461646354606
:100A20002B460F4A69460F48094F3F68B847009860
:100A3000A0420AD20098201A302190FBF1F52B46F3
:100A400000226946104601F0EDF8BDE8FC81000087
:100A50004C000020000400406C0002403C000020DC
:100A600054000020500000202DE9F84305460E46B2
:100A7000174626480068002845D101202349086010
:100A800023480560234806602348076023480090F8
:100A900000F53464022300226946104601F0C2F8D2
:100AA0001D4A1168009AA21A302392FBF3F081428A
:100AB00001D20A4600E002469146C8464346164A1D
:100AC00069461448DFF848C0DCF800C0E0470098E9
:100AD000A0420AD20098201A302190FBF1F8434638
:100AE00000226946104601F09DF84FF4B4610C48AD
:100AF00000F087F90121880701F05EF9012108481B
:100B000000F036F900BFBDE8F88300003400002093
:100B10004C000020500000205400002094000020D1
:100B2000800002402DE9F3410C462348006860B97B
:100B300000214FF0804001F03FF900211F4800F0F4
:100B400017F900201E49086034E01E48006870B99B
:100B50000098201A302190FBF1F52B4600226946BF
:100B6000104601F05FF800201349086022E0154AA2
:100B70001068009AA21A302392FBF3F1884201D246
:100B8000024600E00A46164635462B460D4A69469F
:100B90000D48094F3F68B8470098A0420AD2009814
:100BA000201A302190FBF1F52B46002269461046B1
:100BB00001F038F8BDE8FC814C00002080000240C4
:100BC00034000020540000205000002010B5042004
:100BD00000F0DAF838B1042000F0BCF80849A1F5BB
:100BE000B460FFF711FC022000F0CEF830B1022013
:100BF00000F0B0F803490248FFF706FC10BD000002
:100C000034060020D40B002010B5402000F0BCF8C2
:100C100038B1402000F09EF80849A1F5B460FFF714
:100C2000ABFC202000F0B0F830B1202000F092F8AA
:100C300003490248FFF7A0FC10BD00003406002065
:100C4000D40B002010B54FF4806000F09DF840B147
:100C50004FF4806000F07EF80949A1F5B460FFF719
:100C600045FD4FF4007000F08FF838B14FF400707C
:100C700000F070F803490248FFF738FD10BD00008E
:100C800034060020D40B002010B54FF4802000F073
:100C90007BF840B14FF4802000F05CF80949A1F5E1
:100CA000B460FFF7D7FD4FF4003000F06DF838B1B5
:100CB0004FF4003000F04EF803490248FFF7CAFD38
:100CC00010BD000034060020D40B002010B54FF4F6
:100CD000800000F059F840B14FF4800000F03AF87D
:100CE0000949A1F5B460FFF769FE4FF4001000F068
:100CF0004BF838B14FF4001000F02CF803490248CB
:100D0000FFF75CFE10BD000034060020D40B00206D
:100D100010B54FF0806000F037F840B14FF08060C0
:100D200000F018F80949A1F5B460FFF7FBFE4FF099
:100D3000007000F029F838B14FF0007000F00AF8A8
:100D400003490248FFF7EEFE10BD00003406002004
:100D5000D40B002000F0805111B10349086001E07C
:100D6000024948607047000004040240000002404D
:100D700021B1026842F00102026004E002684FF60D
:100D8000FE731A400260704701460020002201F005
:100D9000805313B1054B1A6801E0054B1A6802EA4B
:100DA00001030BB1012000E0002070470004024065
:100DB000000002401AB103680B43036002E00368BD
:100DC0008B430360704710B50022026847F6F0734A
:100DD0009A430C6A8B6823430C6923434C69234371
:100DE0008C692343CC6923434C6A23438C6A234395
:100DF0001A430260CB6843600B6883604B68C36032
:100E000010BD416070470021016041608160C16098
:100E1000016141618161C16101624162816270472A
:100E20007047000010B5082000F024F9012875D1A2
:100E30000821654800F027FA002807D163480078A8
:100E400028B900F0A3FF012060490870B7E05F48AF
:100E5000007801282CD100F04BFF5D49088000F09C
:100E600095FF5B48008843F2C821884209DD584855
:100E7000008843F2B061884203DA022053490870C7
:100E80009DE05348008842F6FE1188420CDD504830
:100E9000008842F6E651884206DA01204D49087082
:100EA00000204A4908708AE001204849087086E01D
:100EB000464800780228C9D100F01AFF444908804A
:100EC00000F064FF42480088B0F51B7F27DD4048F2
:100ED000008840F28C51884221DA3F4A1078C217CC
:100EE00000EB5272D2103D4B9A5C3B4B1978CB17FA
:100EF00001EB5373DB10A1EBC3040123A3409A431E
:100F0000354B1878C31700EB5373DB10334CE254A6
:100F100031480078401C3049087033E052E02C48DA
:100F2000008840F2D661884226DD2948008840F6D4
:100F3000BE21884220DA284A1078C21700EB52728C
:100F4000D210264B9A5C244B1978CB1701EB5373C4
:100F5000DB10A1EBC3040123A3401A431E4B1878F6
:100F6000C31700EB5373DB101C4CE2541A48007893
:100F7000401C1949087005E000201749087001203D
:100F80001249087014480078202818DB0020124904
:100F900008701248007812490870104840781149CA
:100FA00008700E488078104908700C48C0780F49C6
:100FB000087001200E4908700020044908700820BC
:100FC00000F052F810BD000000080140720000203F
:100FD00070000020790000207700002073000020BE
:100FE0007A0000207C0000207B0000207D00002093
:100FF000780000201FB50121042000F0EBFC012146
:10100000084600F0E7FC48208DF80F000820ADF8F6
:101010000C0003208DF80E0003A9124800F0A8F878
:101020000321002000F084F80820019001208DF8B1
:101030000A0000208DF808000C208DF8090001A896
:1010400000F02CF809208DF8000001208DF8030035
:1010500003208DF801008DF80200684600F056FC70
:101060001FBD0000000801400149086070470000F2
:1010700014040140014600200022074B1B6803EACC
:101080000102054B14331B680B4013B10AB1012058
:1010900000E00020704700000004014000212349C7
:1010A0008279002A3AD00A46126803689A430B46AE
:1010B0001A600A1D126803689A430B1D1A600279B0
:1010C00011440A6803681A430A60184A0832126811
:1010D00003689A43154B08331A601A1D1268036897
:1010E0009A43124B0C331A604279102A0ED11A1F00
:1010F000126803681A430D4B08331A601A1D1268F0
:1011000003681A43094B0C331A600DE00749427912
:1011100011440A6803681A430A6005E00279114421
:101120000A6803689A430A6070470000000401409F
:1011300030B500228B071C0F0F2303FA04F20B4B70
:101140008C1053F824309343084C8D1044F825300C
:1011500023468C1053F824308C07240F00FA04F433
:101160002343024C8D1044F8253030BD0800014067
:101170002DE9F0410246002500260020002300242E
:10118000002791F803C00CF00F0591F803C00CF094
:10119000100CBCF1000F03D091F802C04CEA050519
:1011A00091F800C0BCF1000F31D0146800202BE092
:1011B0004FF0010C0CFA00F3B1F800C00CEA030682
:1011C0009E4220D183004FF00F0C0CFA03F7BC4372
:1011D00005FA03FC4CEA040491F803C0BCF1280FA3
:1011E00006D14FF0010C0CFA00FCC2F814C00AE062
:1011F00091F803C0BCF1480F05D14FF0010C0CFA77
:1012000000FCC2F810C0401C0828D1D31460B1F80B
:1012100000C0BCF1FF0F34DD546800202EE000F167
:10122000080C4FF0010808FA0CF3B1F800C00CEA02
:1012300003069E4221D183004FF00F0C0CFA03F7F6
:10124000BC4305FA03FC4CEA040491F803C0BCF16A
:10125000280F05D100F1080C08FA0CF8C2F8148028
:1012600091F803C0BCF1480F07D100F1080C4FF012
:10127000010808FA0CF8C2F81080401C0828CED3E8
:101280005460BDE8F0810246002093680B400BB12A
:10129000012000E0002070474FF6FF71018002211D
:1012A00081700421C170704700BFFEE701480078DB
:1012B000704700007A000020014800787047000065
:1012C0007B0000200448007820B10020024908700B
:1012D000012070470020FCE77800002010B5FFF7E0
:1012E00089FE10BD01460148405C70477C2700081C
:1012F00010B5044600F06AFF01F0ACF81048047025
:10130000007830B90F4810490A88028089788170C6
:1013100005E00C480D490A88028089788170002018
:101320000AE000EB40010A4A1144064A13880B8088
:1013300092788A70411CC8B24028F2DB10BD0000D0
:1013400068000020650000207C2800087F28000835
:10135000671E002030B5024622B1012A11D0022AB0
:101360002DD11DE0002009E000EB40030B44154C9B
:1013700025881D80A4789C70431CD8B28728F3DB95
:101380001EE0002009E000EB40030B440E4C2588D2
:101390001D80A4789C70431CD8B28728F3DB0FE033
:1013A000002009E000EB40030B44074C25881D801A
:1013B000A4789C70431CD8B28728F3DB00E000BF00
:1013C00000BF30BD822800086500002030B502460D
:1013D00022B1012A11D0022A2DD11DE0002009E0FE
:1013E00000EB40030B44154C25881D80A4789C70AD
:1013F000431CD8B27828F3DB1EE0002009E000EBA4
:1014000040030B440E4C25881D80A4789C70431C1F
:10141000D8B27828F3DB0FE0002009E000EB4003AE
:101420000B44074C25881D80A4789C70431CD8B2BF
:101430007828F3DB00E000BF00BF30BD8228000841
:10144000650000200B480C490A8802808978817069
:1014500000200AE000EB4001084A1144054A1388C5
:101460000B8092788A70411C88B2B0F5C66FF1DDAE
:10147000704700006500002085280008D40B00207C
:1014800030B5024622B1012A11D0022A76D165E098
:10149000002009E000EB40030B443A4C25881D80F6
:1014A000A4789C70431C98B2FF28F3DD67E03648AF
:1014B0000078012804D135480078401E334B18705D
:1014C00032480078002803DD00202F4B187008E018
:1014D0002E48007828B904202C4B187000202A4B85
:1014E0001870002037E0294B1B7800EBC303FF2B5B
:1014F0000FDC264B1B7800EBC303254CE35C43B1A8
:1015000000EB40030B44234C25881D80A4789C707D
:101510001FE01E4B1B7800EBC303FF2B11DD1B4BA1
:101520001B7800EBC303A3F58073194CE35C43B154
:1015300000EB40030B44174C25881D80A4789C7059
:1015400007E000EB40030B440E4C25881D80A47877
:101550009C70431C98B2FF28C5DD10E0002009E014
:1015600000EB40030B440B4C25881D80A4789C7035
:10157000431C98B2FF28F3DD01E0FFE700BF00BF86
:1015800030BD000082280008590000206A000020B9
:10159000884000086500002030B5024622B1012ACB
:1015A00011D0022A2DD11DE0002009E000EB4003FC
:1015B0000B44154C25881D80A4789C70431CD8B220
:1015C0003228F3DB1EE0002009E000EB40030B446F
:1015D0000D4C25881D80A4789C70431CD8B23228FD
:1015E000F3DB0FE0002009E000EB40030B44074C65
:1015F00025881D80A4789C70431CD8B23228F3DB68
:1016000000E000BF00BF30BD822800086500002058
:1016100030B5024622B1012A12D0022A6FD12BE046
:10162000002009E000EB40030B446A4C25881D8034
:10163000A4789C70431C98B2B0F5806FF2DBC6E0D2
:10164000002015E0644B1B5C43B100EB40030B44EE
:10165000624C25881D80A4789C7007E000EB400355
:101660000B445C4C25881D80A4789C70431C98B268
:10167000B0F5806FE6DBAAE059485A4B1B78C05C96
:10168000D8B9002015E0584B1B5C43B100EB400378
:101690000B44524C25881D80A4789C7007E000EB19
:1016A00040030B444B4C25881D80A4789C70431C40
:1016B00098B2B0F5806FE6DB87E04948494B1B786C
:1016C000C05C01281CD1002015E0484B1B5C43B1D5
:1016D00000EB40030B44414C25881D80A4789C708E
:1016E00007E000EB40030B443A4C25881D80A478AA
:1016F0009C70431C98B2B0F5806FE6DB65E065E056
:101700003748384B1B78C05C02281BD1002015E0FD
:10171000374B1B5C43B100EB40030B442F4C258837
:101720001D80A4789C7007E000EB40030B44294C1B
:1017300025881D80A4789C70431C98B2B0F5806FFA
:10174000E6DB42E02648274B1B78C05C03281BD110
:10175000002015E0274B1B5C43B100EB40030B441A
:101760001E4C25881D80A4789C7007E000EB400388
:101770000B44184C25881D80A4789C70431C98B29B
:10178000B0F5806FE6DB20E01548164B1B78C05C97
:1017900004281AD1002015E0174B1B5C43B100EB65
:1017A00040030B440D4C25881D80A4789C7007E0F5
:1017B00000EB40030B44074C25881D80A4789C70E7
:1017C000431C98B2B0F5806FE6DB00BF00BF00BFDE
:1017D00030BD00008228000888280008650000202D
:1017E0005A0000205F000020882C00088830000884
:1017F0008834000888380008883C000810B500F0DC
:101800002BFD00BF00F08CFF0028FBD0354800788E
:10181000022802D1FFF716FE23E03349334A12783B
:10182000885C3349FFF72CFE2F49304A1278885CD8
:101830003049FFF7B1FE2C492C4A1278885C2D49BB
:101840009631FFF787FD2849284A1278885C2A4993
:10185000FFF7DEFE2449254A1278885C2749FFF706
:10186000B5FD22480078052822D2DFE800F0030900
:101870000F151B0040F231611D4800F0AFFD18E06C
:1018800040F231611A4800F0B5FD12E040F23161DA
:10189000174800F0BBFD0CE040F23161144800F045
:1018A000C1FD06E040F23161114800F0C7FD00E0E3
:1018B00010BD00BF0D480078042805DA0B480078F9
:1018C000401C0A4908700BE000BF00F029FF002807
:1018D000FBD040210A4800F045FF00200349087072
:1018E00000BFE5E768000020600000205F000020E6
:1018F000D40B0020D40E0020FF100020FF1C00207D
:10190000671E002000BFFEE77047000070B5002191
:1019100000230F22C47804B3154C246804F4E06457
:10192000C4F5E064210AC1F10403CA40447804FA12
:1019300003F184781440214309010E4C0678A15527
:10194000047804F01F050124AC4005786D11AD004A
:1019500005F1E025C5F8004109E0047804F01F0511
:101960000124AC40044D0678761145F8264070BD40
:101970000CED00E000E400E080E100E002490143FA
:10198000024A1160704700000000FA050CED00E00B
:101990007047000029B1064A52690243044B5A615C
:1019A00004E0034A52698243014B5A6170470000C8
:1019B0000010024029B1064AD2690243044BDA61A1
:1019C00004E0034AD2698243014BDA6170470000A8
:1019D0000010024029B1064A92690243044B9A6101
:1019E00004E0034A92698243014B9A617047000008
:1019F0000010024030B500210022002400232D4DAC
:101A00006D6805F00C0121B1042905D0082923D106
:101A100005E0294D056022E0274D05601FE0254DBA
:101A20006D6805F47012234D6D6805F4803402254D
:101A300005EB92421CB9214D554305600BE01D4D4D
:101A40006D6805F400351DB11C4D5543056002E07D
:101A5000194D5543056002E0174D056000BF00BFFA
:101A6000144D6D6805F0F0010909154D6B5C0568B2
:101A7000DD4045600F4D6D6805F4E061090A104DC9
:101A80006B5C4568DD4085600A4D6D6805F460510A
:101A9000C90A0B4D6B5C4568DD40C560054D6D683E
:101AA00005F44041890B074D6B5CC568B5FBF3F548
:101AB000056130BD0010024000127A0000093D00AF
:101AC00014000020240000202DE9F04705460E46B2
:101AD0002878FFF707FC80466878FFF703FC81460B
:101AE000A878FFF7FFFB82468027002420E008EA61
:101AF000070008B1152100E0092106F1100000EBF4
:101B00004400018009EA070008B1152000E009201F
:101B100006EB440108800AEA070008B1152100E03D
:101B2000092106F1200000EB440001807F10641CB5
:101B3000082CDCDBBDE8F087704710B500F002F838
:101B400010BD00000CB500200190009033480068E3
:101B500040F480303149086000BF3048006800F42C
:101B6000003000900198401C0190009818B901982D
:101B7000B0F5A06FF1D12948006800F4003010B131
:101B80000120009001E0002000900098012843D13E
:101B90002348006840F010002149086008460068AA
:101BA00020F0030008600846006840F0020008606A
:101BB0001A48406819494860084640684860084625
:101BC000406840F4806048600846406820F47C101B
:101BD00048600846406840F4E810486008460068DD
:101BE00040F08070086000BF0C48006800F0007092
:101BF0000028F9D00948406820F0030007494860F0
:101C00000846406840F00200486000BF0348406852
:101C100000F00C000828F9D10CBD000000100240B3
:101C2000002002402DE9F04106460C4617461D46AD
:101C300005EB450211012068FEF700FB05EB4501AD
:101C4000206800EB01102060BDE8F0812DE9F0472D
:101C500004460D4616461F46D4F80080D5F800907D
:101C60003068C01B306007E0494609F13009404642
:101C700008F10308FFF728FF381EA7F10107F3D189
:101C8000C4F80080C5F80090BDE8F08770470000F8
:101C900010B51348006840F001001149086008467B
:101CA0004068104908400E494860084600680E49DF
:101CB00008400B4908600846006820F4802008604E
:101CC0000846406820F4FE0048604FF41F0088601A
:101CD000FFF733FF4FF000600449086010BD0000BB
:101CE000001002400000FFF8FFFFF6FE08ED00E0E4
:101CF00010B5084800F084F80749098801EB410253
:101D0000C2EBC11100EBC10004490988401A80B23E
:101D100010BD0000000800402C0000202E00002014
:101D200010B50121144800F06EF801281ED11348A7
:101D30000068401C114908600846006840F6C3115D
:101D4000884204D100F080FA01200D4908700B4848
:101D500000686421B0FBF1F201FB120010B9012010
:101D6000084908700121044800F023F8064800885B
:101D7000401C0549088010BD0008004028000020D4
:101D800058000020590000202C00002010B5002031
:101D900003490880034800F033F80349088010BD68
:101DA0002C000020000800402E000020CA430282C0
:101DB0007047CA430282704721B1028842F0010293
:101DC000028004E002884FF6FE731A4002807047DA
:101DD00031B1B0F8442042F40042A0F8442005E0BC
:101DE000B0F84420C2F30E02A0F8442070471AB1A4
:101DF00083890B43838102E083898B43838170470E
:101E00000146888C704730B502460020002300242C
:101E1000158A05EA0103958905EA010413B10CB19D
:101E2000012000E0002030BD1AB183890B4383817B
:101E300002E083898B438381704701894FF6F872F2
:101E4000114001817047000070B50024002200237A
:101E5000058C4FF6FE7635400584028C8388048B12
:101E60004FF68F752C40B51E2C400D882C43751EE7
:101E70002A400D892A434D882A43144DA8420BD08D
:101E8000134DA84208D0134DA84205D0124DA842C8
:101E900002D0124DA84213D14FF6F7752A404D8952
:101EA0002A434FF6FB752A408D882A434FF6FF657B
:101EB0002B404FF6FF552B408D892B43CD892B436B
:101EC00083800483CD888586028470BD002C014008
:101ED00000340140004001400044014000480140FE
:101EE0000A460021018B4FF6F77319401143018315
:101EF0007047000070B5002400220023058C4FF6C7
:101F0000EF7635400584028C8388048B48F6FF7594
:101F10002C404FF6FF452C400D884FF6FF7606EA21
:101F200005252C434FF6DF752A400D8906EA051575
:101F30002A434D8806EA05152A43154DA84202D0CA
:101F4000144DA8421DD14FF67F752A404D894FF69A
:101F5000FF7606EA05152A434FF6BF752A408D889D
:101F600006EA05152A434FF6FF352B404FF2FF7561
:101F70002B408D8906EA85052B43CD8906EA850528
:101F80002B4383800483CD880587028470BD0000C5
:101F9000002C0140003401400A460021018B4FF221
:101FA000FF7319404FF6FF7303EA022319430183BD
:101FB0007047000070B5002400220023058C4FF606
:101FC000FF6635400584028C8388848B4FF68F75BD
:101FD0002C404FF6FC752C400D882C434FF6FF55D6
:101FE0002A400D894FF6FF7606EA05252A434D88DB
:101FF00006EA05252A43154DA84202D0144DA842F1
:102000001DD14FF2FF752A404D894FF6FF7606EA43
:1020100005252A434FF6FF352A408D8806EA052517
:102020002A434EF6FF752B404DF6FF752B408D89E8
:1020300006EA05152B43CD8906EA05152B43838057
:102040008483CD888587028470BD0000002C014008
:10205000003401400A460021818B4FF6F773194086
:10206000114381837047000070B5002200230024D3
:10207000058C4EF6FF7635400584038C8488828B70
:1020800048F6FF752A404FF6FF452A400D884FF667
:10209000FF7606EA05252A434DF6FF752B400D898C
:1020A00006EA05352B434D8806EA05352B430B4DD3
:1020B000A84202D00A4DA84208D14BF6FF752C4029
:1020C0008D894FF6FF7606EA85152C43848082833E
:1020D000CD88A0F84050038470BD0000002C014062
:1020E000003401400A460021818B4FF2FF731940F2
:1020F0004FF6FF7303EA02231943818370470021DF
:10210000018041808180C180018141818181C181C3
:1021100070470000002202881D4B98420ED01D4BD4
:1021200098420BD0B0F1804F08D01B4B984205D09D
:102130001A4B984202D01A4B984204D14FF68F7333
:102140001A404B881A43174B984207D0164B9842B7
:1021500004D04FF6FF431A40CB881A4302808B8885
:1021600083850B8803850A4B98420BD0094B984214
:1021700008D00E4B984205D00D4B984202D00D4B23
:10218000984201D10B7A03860123838270470000B5
:10219000002C0140003401400004004000080040D1
:1021A000000C0040001000400014004000400140BE
:1021B00000440140004801404FF6FF71818000213A
:1021C0000180C18041800172704700001FB501216C
:1021D0000420FFF7EFFB1B48FFF72FFE0020ADF8B0
:1021E0000A00ADF8060040F2E730ADF808004720DD
:1021F000ADF8040000208DF80C0001A91148FFF78C
:1022000089FF01210F48FFF7D1FD012211460D483A
:10221000FFF70AFE4FF4A060FFF7B0FB1E208DF819
:10222000000001208DF8030002208DF801008DF8D8
:1022300002006846FFF76AFB01210248FFF7BCFD78
:102240001FBD0000000800400020014908607047E1
:102250002800002000BFFEE710B54248007858BBB8
:1022600041480078012827D1FFF7EEFF00203E49C2
:1022700008703E480078401C3C49087002203C49E8
:102280003C4A1278885412E0052000F097F83A4949
:10229000087037480978405C48B901203449364A0B
:1022A00012788854344800783249087003E02F4887
:1022B00000780528E8D153E02A48007801282DD17C
:1022C0002A480078052829D0002026490870264988
:1022D00008702649087000BF06E00021244A115406
:1022E000264A1154411CC8B20528F6DB14E005202B
:1022F00000F064F820490870084600781D49097804
:10230000884209D001201A491B4A127888541A4879
:1023100000781849087000E0E9E721E011480078EA
:1023200001281DD111480078052819D100200D4938
:1023300008700E49087000BF06E000210C4A1154D5
:102340000E4A1154411CC8B20528F6DB052000F0E6
:1023500035F80849087001200549064A1278885462
:1023600010BD000058000020690000206C00002013
:10237000600000206B0000206D0000205A0000204B
:102380000020FEF7B5FFFEF7A9FF0948FFF732FB73
:102390000CE0FFF733FAFEF795FF38B1FEF786FF42
:1023A00004490870FEF788FF03490870F1E7000050
:1023B00080000020300000203100002010B50446CD
:1023C00005480068FDF71CFFFDF7E0FE90FBF4F107
:1023D00004FB1100C0B210BD2800002070B50446F7
:1023E0000D462A4621460248FEF73EFB70BD00001E
:1023F0004D1C000870B504460D462A462146024889
:10240000FDF7A4FF70BD00004D1C000870B5044628
:102410000D462A4621460248FEF770FA70BD0000BC
:102420004D1C000870B504460D462A462146024858
:10243000FEF7FCF870BD00004D1C000870B50446A6
:102440000D462A4621460248FEF732F870BD0000CC
:102450004D1C000800B595B001210846FFF7AAFA07
:1024600001210220FFF7A6FA01210420FFF7B2FAAA
:1024700001210820FFF7AEFA0121C802FFF7AAFAEE
:1024800001210846FFF786FA14A8FEF705FF40F27F
:102490004710ADF8500003208DF8520018208DF839
:1024A000530014A99548FEF763FE0220ADF85000D2
:1024B00014A99348FEF75CFE11A8FFF77DFE914832
:1024C00000689149B0FBF1F0401E80B2ADF84400C5
:1024D0000020ADF846001D20ADF848000020ADF802
:1024E0004A0011A94FF08040FFF714FE11A9874858
:1024F000FFF710FE834800688349B0FBF1F0401EEF
:1025000080B2ADF8440011A98148FFF703FE0DA881
:10251000FFF7F5FD6020ADF834000120ADF836007E
:102520000020ADF83A00ADF83C000DA94FF0804016
:10253000FFF7E0FC0821C806FFF72EFD0DA94FF0BC
:102540008040FFF737FD0821C806FFF783FD0DA97E
:102550006E48FFF779FC08216C48FFF7C1FC0DA914
:102560006A48FFF781FD08216848FFF7BBFD0DA908
:102570006748FFF769FC08216548FFF7B1FC0DA922
:102580004FF08040FFF760FC0821C806FFF7A8FC69
:1025900002A8FEF738FC5F4802905F4803901020C5
:1025A00004904FF4B46005900020069080200790BE
:1025B000400008908000099020200A9000020B90B3
:1025C00000200C9002A95548FEF7FDFB5148001D64
:1025D000029002A951487838FEF7F5FB4B48343099
:1025E000029002A94D481438FEF7EDFB47484030F1
:1025F000029002A949485038FEF7E5FB44483430C0
:10260000029002A945486438FEF7DDFB4148001FEF
:10261000029002A941482838FEF7D5FB0122910219
:102620000805FFF7E4FB0122D102C804FFF7DFFB36
:10263000012251023548FFF7DAFB0122110333482A
:10264000FFF7D5FB012251023148FFF7D0FB0122F1
:1026500051024805FFF7CBFB11208DF80400002044
:102660008DF805008DF8060001208DF8070001A8FF
:10267000FFF74CF90B208DF8040001A8FFF746F98D
:1026800010208DF8040001A8FFF740F90D208DF807
:10269000040001A8FFF73AF90C208DF8040001A806
:1026A000FFF734F90F208DF8040001A8FFF72EF989
:1026B000012206211948FEF77DFB01220621174859
:1026C0007838FEF777FB0122062114481438FEF70C
:1026D00071FB0122062111485038FEF76BFB0122E5
:1026E00006210E486438FEF765FB012206210B48DF
:1026F0002838FEF75FFB15B000BD00000008014060
:10270000000C01400000002000366E010004004073
:10271000002C01403800004094000020800002405E
:102720000A48006880B90A48006868B90948006822
:1027300050B90948006838B90848006820B9084805
:10274000006808B9012070470020FCE7380000202D
:10275000340000203C000020400000204400002005
:102760004800002070B504460D462A46214602481E
:10277000FEF712F870BD00004D1C000800000000BC
:102780000000000000000000010101010101010141
:102790000202020202020303030304040404050507
:1027A00005050606060707070808080909090A0AB1
:1027B0000B0B0B0C0C0D0D0E0E0F0F101011111238
:1027C000121313141415151617171818191A1A1BA3
:1027D0001C1C1D1E1E1F20202122232324252626EB
:1027E0002728292A2A2B2C2D2E2F2F303132333413
:1027F0003536373838393A3B3C3D3E3F404142431D
:1028000044454647494A4B4C4D4E4F505152545502
:10281000565758595B5C5D5E5F61626364666768CA
:10282000696B6C6D6F70717374757778797B7C7E72
:102830007F808283858688898B8C8E8F91929495F8
:1028400097989A9B9D9EA0A2A3A5A6A8AAABADAF60
:10285000B0B2B4B5B7B9BABCBEC0C1C3C5C7C8CAA7
:10286000CCCECFD1D3D5D7D9DADCDEE0E2E4E6E8CE
:10287000E9EBEDEFF1F3F5F7F9FBFDFFB90000002F
:1028800000B900000032000001010000000000005B
:102890000000000000000000000000000000000038
:1028A0000000000000000101010101010101000020
:1028B0000000000000000000000000000000000018
:1028C00001010101010101010101000000010101FB
:1028D00001000000000000000000000000000101F5
:1028E00001000000000000010100000000000000E5
:1028F00001010100000000000000000001010100D2
:1029000000000000000000010101000000000000C4
:1029100000000101010000000000000101000000B2
:1029200000000000010101010100000101000000A0
:102930000000000101010000000001010000000092
:102940000000010100000000000000000001010083
:102950000000000001010000000001010000000073
:102960000001000000000101000101000000010160
:10297000000000010101010101010101010101014A
:102980000101010000010000010100000000000041
:102990000000000000000000000000000000000037
:1029A000000000000000010101010101010100001F
:1029B0000000000000000000000000000000000017
:1029C00001010101010101010101000000010101FA
:1029D00001000000000000000000000000000101F4
:1029E00001000000000000010100000000000000E4
:1029F00001010100000000000000000001010100D1
:102A000000000000000000010101000000000000C3
:102A100000000101010000000000000101000000B1
:102A2000000000000101010101000001010000009F
:102A30000000000101010000000001010000000091
:102A40000000010100000000000000000001010082
:102A50000000000001010000000001010000000072
:102A6000000100000000010100010100000001015F
:102A70000000000101010101010101010101010149
:102A80000101010000010000010100000000000040
:102A90000000000000000000000000000000000036
:102AA000000000000000010101010101010100001E
:102AB0000000000000000000000000000000000016
:102AC00001010101010101010101000000010101F9
:102AD00001000000000000000000000000000101F3
:102AE00001000000000000010100000000000000E3
:102AF00001010100000000000000000001010100D0
:102B000000000000000000010101000000000000C2
:102B100000000101010000000000000101000000B0
:102B2000000000000101010101000001010000009E
:102B30000000000101010000000001010000000090
:102B40000000010100000000000000000001010081
:102B50000000000001010000000001010000000071
:102B6000000100000000010100010100000001015E
:102B70000000000101010101010101010101010148
:102B8000010101000001000001010000000000003F
:102B90000000000000000000000000000000000035
:102BA000000000000000010101010101010100001D
:102BB0000000000000000000000000000000000015
:102BC00001010101010101010101000000010101F8
:102BD00001000000000000000000000000000101F2
:102BE00001000000000000010100000000000000E2
:102BF00001010100000000000000000001010100CF
:102C000000000000000000010101000000000000C1
:102C100000000101010000000000000101000000AF
:102C2000000000000101010101000001010000009D
:102C3000000000010101000000000101000000008F
:102C40000000010100000000000000000001010080
:102C50000000000001010000000001010000000070
:102C6000000100000000010100010100000001015D
:102C70000000000101010101010101010101010147
:102C80000101010000010000000000000000000040
:102C90000000000000000000000000000000000034
:102CA000000000000000010101010101010100001C
:102CB0000000000000000000000000000000000014
:102CC00001010101010100000000000000010101FB
:102CD00001000000000000000000000000000101F1
:102CE00001000000000000000000000000000000E3
:102CF00001010100000000000000000001010100CE
:102D000000000000000000000000000000000000C3
:102D100000000101010000000000000101000000AE
:102D200000000000000000000000000000000000A3
:102D3000000000010101000000000101000000008E
:102D40000000000000000000000000000000000083
:102D5000000000000101000000000101000000006F
:102D60000000000000000000000000000000000063
:102D7000000000000101010000010100000000004E
:102D80000000000000000000000000000000000043
:102D90000000000000000000000000000000000033
:102DA000000000000000010101010101010100001B
:102DB0000000000000000000000000000000000013
:102DC00001010101010100000000000000010101FA
:102DD00001000000000000000000000000000101F0
:102DE00001000000000000000000000000000000E2
:102DF00001010100000000000000000001010100CD
:102E000000000000000000000000000000000000C2
:102E100000000101010000000000000101000000AD
:102E200000000000000000000000000000000000A2
:102E3000000000010101000000000101000000008D
:102E40000000000000000000000000000000000082
:102E5000000000000101000000000101000000006E
:102E60000000000000000000000000000000000062
:102E7000000000000101010000010100000000004D
:102E80000000000000000000000000000000000042
:102E90000000000000000000000000000000000032
:102EA000000000000000010101010101010100001A
:102EB0000000000000000000000000000000000012
:102EC00001010101010100000000000000010101F9
:102ED00001000000000000000000000000000101EF
:102EE00001000000000000000000000000000000E1
:102EF00001010100000000000000000001010100CC
:102F000000000000000000000000000000000000C1
:102F100000000101010000000000000101000000AC
:102F200000000000000000000000000000000000A1
:102F3000000000010101000000000101000000008C
:102F40000000000000000000000000000000000081
:102F5000000000000101000000000101000000006D
:102F60000000000000000000000000000000000061
:102F7000000000000101010000010100000000004C
:102F80000000000000000000000000000000000041
:102F90000000000000000000000000000000000031
:102FA0000000000000000101010101010101000019
:102FB0000000000000000000000000000000000011
:102FC00001010101010100000000000000010101F8
:102FD00001000000000000000000000000000101EE
:102FE00001000000000000000000000000000000E0
:102FF00001010100000000000000000001010100CB
:1030000000000000000000000000000000000000C0
:1030100000000101010000000000000101000000AB
:1030200000000000000000000000000000000000A0
:10303000000000010101000000000101000000008B
:103040000000000000000000000000000000000080
:10305000000000000101000000000101000000006C
:103060000000000000000000000000000000000060
:10307000000000000101010000010100000000004B
:103080000000000000000000000000000000000040
:103090000000000000000000000000000000000030
:1030A0000000000000000000000000000000000020
:1030B0000000000000000000000000000000000010
:1030C0000000000000000000000000000000000000
:1030D00000000000000000000000000000000000F0
:1030E00000000000000101010000010101010000D9
:1030F00000000000000000000000000000000000D0
:1031000000010100000000000000000000000101BB
:1031100000000000000000000000000000000001AE
:10312000010000000000000000000000000000009E
:10313000010100000000000000000000000001008C
:10314000000000000000000000000000000000007F
:10315000000100000000000000000000000101006C
:10316000000000000000000000000000000000005F
:10317000000001000000000000000000000100004D
:10318000000000000000000000000000000000003F
:10319000000000000000000000000000000000002F
:1031A000000000000000000000000000000000001F
:1031B000000000000000000000000000000000000F
:1031C00000000000000000000000000000000000FF
:1031D00000000000000000000000000000000000EF
:1031E00000000000000101010000010101010000D8
:1031F00000000000000000000000000000000000CF
:1032000000010100000000000000000000000101BA
:1032100000000000000000000000000000000001AD
:10322000010000000000000000000000000000009D
:10323000010100000000000000000000000001008B
:10324000000000000000000000000000000000007E
:10325000000100000000000000000000000101006B
:10326000000000000000000000000000000000005E
:10327000000001000000000000000000000100004C
:10328000000000000000000000000000000000003E
:10329000000000000000000000000000000000002E
:1032A000000000000000000000000000000000001E
:1032B000000000000000000000000000000000000E
:1032C00000000000000000000000000000000000FE
:1032D00000000000000000000000000000000000EE
:1032E00000000000000101010000010101010000D7
:1032F00000000000000000000000000000000000CE
:1033000000010100000000000000000000000101B9
:1033100000000000000000000000000000000001AC
:10332000010000000000000000000000000000009C
:10333000010100000000000000000000000001008A
:10334000000000000000000000000000000000007D
:10335000000100000000000000000000000101006A
:10336000000000000000000000000000000000005D
:10337000000001000000000000000000000100004B
:10338000000000000000000000000000000000003D
:10339000000000000000000000000000000000002D
:1033A000000000000000000000000000000000001D
:1033B000000000000000000000000000000000000D
:1033C00000000000000000000000000000000000FD
:1033D00000000000000000000000000000000000ED
:1033E00000000000000101010000010101010000D6
:1033F00000000000000000000000000000000000CD
:1034000000010100000000000000000000000101B8
:1034100000000000000000000000000000000001AB
:10342000010000000000000000000000000000009B
:103430000101000000000000000000000000010089
:10344000000000000000000000000000000000007C
:103450000001000000000000000000000001010069
:10346000000000000000000000000000000000005C
:10347000000001000000000000000000000100004A
:10348000000000000000000000000000000000003C
:10349000000000000000000000000000000000002C
:1034A000000000000000000000000000000000001C
:1034B000000000000000000000000000000000000C
:1034C00000000000000000000000000000000000FC
:1034D00000000000000000000000000000000000EC
:1034E00000000000000000000000000000000000DC
:1034F00000000000000000000000000000000000CC
:1035000000000000000000000000000000000000BB
:1035100000000000000000000000000000000000AB
:103520000000000000000101000101010000000096
:10353000000000000000000000000000000000008B
:103540000000000101000000000000000101000077
:10355000000000000000000000000000000000006B
:103560000000010000000000000000000001010058
:10357000000000000000000000000000000000004B
:10358000000100000000000000000000000000003A
:10359000000000000000000000000000000000002B
:1035A000000000000000000000000000000000001B
:1035B000000000000000000000000000000000000B
:1035C00000000000000000000000000000000000FB
:1035D00000000000000000000000000000000000EB
:1035E00000000000000000000000000000000000DB
:1035F00000000000000000000000000000000000CB
:1036000000000000000000000000000000000000BA
:1036100000000000000000000000000000000000AA
:103620000000000000000101000101010000000095
:10363000000000000000000000000000000000008A
:103640000000000101000000000000000101000076
:10365000000000000000000000000000000000006A
:103660000000010000000000000000000001010057
:10367000000000000000000000000000000000004A
:103680000001000000000000000000000000000039
:10369000000000000000000000000000000000002A
:1036A000000000000000000000000000000000001A
:1036B000000000000000000000000000000000000A
:1036C00000000000000000000000000000000000FA
:1036D00000000000000000000000000000000000EA
:1036E00000000000000000000000000000000000DA
:1036F00000000000000000000000000000000000CA
:1037000000000000000000000000000000000000B9
:1037100000000000000000000000000000000000A9
:103720000000000000000101000101010000000094
:103730000000000000000000000000000000000089
:103740000000000101000000000000000101000075
:103750000000000000000000000000000000000069
:103760000000010000000000000000000001010056
:103770000000000000000000000000000000000049
:103780000001000000000000000000000000000038
:103790000000000000000000000000000000000029
:1037A0000000000000000000000000000000000019
:1037B0000000000000000000000000000000000009
:1037C00000000000000000000000000000000000F9
:1037D00000000000000000000000000000000000E9
:1037E00000000000000000000000000000000000D9
:1037F00000000000000000000000000000000000C9
:1038000000000000000000000000000000000000B8
:1038100000000000000000000000000000000000A8
:103820000000000000000101000101010000000093
:103830000000000000000000000000000000000088
:103840000000000101000000000000000101000074
:103850000000000000000000000000000000000068
:103860000000010000000000000000000001010055
:103870000000000000000000000000000000000048
:103880000001000000000000000000000000000037
:103890000000000000000000000000000000000028
:1038A0000000000000000000000000000000000018
:1038B0000000000000000000000000000000000008
:1038C00000000000000000000000000000000000F8
:1038D00000000000000000000000000000000000E8
:1038E00000000000000000000000000000000000D8
:1038F00000000000000000000000000000000000C8
:1039000000000000000000000000000000000000B7
:1039100000000000000000000000000000000000A7
:103920000000000000000000000000000000000097
:103930000000000000000000000000000000000087
:103940000000000000010101000001010000000072
:103950000000000000000000000000000000000067
:103960000000000101000000000000000100000054
:103970000000000000000000000000000000000047
:103980000000000100000000000000000000000036
:103990000000000000000000000000000000000027
:1039A0000000000000000000000000000000000017
:1039B0000000000000000000000000000000000007
:1039C00000000000000000000000000000000000F7
:1039D00000000000000000000000000000000000E7
:1039E00000000000000000000000000000000000D7
:1039F00000000000000000000000000000000000C7
:103A000000000000000000000000000000000000B6
:103A100000000000000000000000000000000000A6
:103A20000000000000000000000000000000000096
:103A30000000000000000000000000000000000086
:103A40000000000000010101000001010000000071
:103A50000000000000000000000000000000000066
:103A60000000000101000000000000000100000053
:103A70000000000000000000000000000000000046
:103A80000000000100000000000000000000000035
:103A90000000000000000000000000000000000026
:103AA0000000000000000000000000000000000016
:103AB0000000000000000000000000000000000006
:103AC00000000000000000000000000000000000F6
:103AD00000000000000000000000000000000000E6
:103AE00000000000000000000000000000000000D6
:103AF00000000000000000000000000000000000C6
:103B000000000000000000000000000000000000B5
:103B100000000000000000000000000000000000A5
:103B20000000000000000000000000000000000095
:103B30000000000000000000000000000000000085
:103B40000000000000010101000001010000000070
:103B50000000000000000000000000000000000065
:103B60000000000101000000000000000100000052
:103B70000000000000000000000000000000000045
:103B80000000000100000000000000000000000034
:103B90000000000000000000000000000000000025
:103BA0000000000000000000000000000000000015
:103BB0000000000000000000000000000000000005
:103BC00000000000000000000000000000000000F5
:103BD00000000000000000000000000000000000E5
:103BE00000000000000000000000000000000000D5
:103BF00000000000000000000000000000000000C5
:103C000000000000000000000000000000000000B4
:103C100000000000000000000000000000000000A4
:103C20000000000000000000000000000000000094
:103C30000000000000000000000000000000000084
:103C4000000000000001010100000101000000006F
:103C50000000000000000000000000000000000064
:103C60000000000101000000000000000100000051
:103C70000000000000000000000000000000000044
:103C80000000000100000000000000000000000033
:103C90000000000000000000000000000000000024
:103CA0000000000000000000000000000000000014
:103CB0000000000000000000000000000000000004
:103CC00000000000000000000000000000000000F4
:103CD00000000000000000000000000000000000E4
:103CE00000000000000000000000000000000000D4
:103CF00000000000000000000000000000000000C4
:103D000000000000000000000000000000000000B3
:103D100000000000000000000000000000000000A3
:103D20000000000000000000000000000000000093
:103D30000000000000000000000000000000000083
:103D40000000000000000000000000000000000073
:103D50000000000000000000000000000000000063
:103D60000000000000000000010000000000000052
:103D70000000000000000000000000000000000043
:103D80000000000000000100000000000000000032
:103D90000000000000000000000000000000000023
:103DA0000000000000000000000000000000000013
:103DB0000000000000000000000000000000000003
:103DC00000000000000000000000000000000000F3
:103DD00000000000000000000000000000000000E3
:103DE00000000000000000000000000000000000D3
:103DF00000000000000000000000000000000000C3
:103E000000000000000000000000000000000000B2
:103E100000000000000000000000000000000000A2
:103E20000000000000000000000000000000000092
:103E30000000000000000000000000000000000082
:103E40000000000000000000000000000000000072
:103E50000000000000000000000000000000000062
:103E60000000000000000000010000000000000051
:103E70000000000000000000000000000000000042
:103E80000000000000000100000000000000000031
:103E90000000000000000000000000000000000022
:103EA0000000000000000000000000000000000012
:103EB0000000000000000000000000000000000002
:103EC00000000000000000000000000000000000F2
:103ED00000000000000000000000000000000000E2
:103EE00000000000000000000000000000000000D2
:103EF00000000000000000000000000000000000C2
:103F000000000000000000000000000000000000B1
:103F100000000000000000000000000000000000A1
:103F20000000000000000000000000000000000091
:103F30000000000000000000000000000000000081
:103F40000000000000000000000000000000000071
:103F50000000000000000000000000000000000061
:103F60000000000000000000010000000000000050
:103F70000000000000000000000000000000000041
:103F80000000000000000100000000000000000030
:103F90000000000000000000000000000000000021
:103FA0000000000000000000000000000000000011
:103FB0000000000000000000000000000000000001
:103FC00000000000000000000000000000000000F1
:103FD00000000000000000000000000000000000E1
:103FE00000000000000000000000000000000000D1
:103FF00000000000000000000000000000000000C1
:1040000000000000000000000000000000000000B0
:1040100000000000000000000000000000000000A0
:104020000000000000000000000000000000000090
:104030000000000000000000000000000000000080
:104040000000000000000000000000000000000070
:104050000000000000000000000000000000000060
:10406000000000000000000001000000000000004F
:104070000000000000000000000000000000000040
:10408000000000000000010000000001010000002D
:10409000000100000000010000010100000101001A
:1040A000000001010101000000000001010000000A
:1040B00000010000000001000001010000010100FA
:1040C00000000101010100000000000101000000EA
:1040D00000010000000001000001010000010100DA
:1040E00000000101010100000000000101000000CA
:1040F00000010000000001000001010000010100BA
:1041000000000101010100000000000101000000A9
:104110000001000000000100000101000001010099
:104120000000010101010000000000010100000089
:104130000001000000000100000101000001010079
:104140000000010101010000000000010100000069
:104150000001000000000100000101000001010059
:104160000000010101010000000000010100000049
:104170000001000000000100000101000001010039
:104180000000010101010000A8410008000000201A
:10419000800000002801000828420008800000205C
:1041A000F02500004401000800A24A0400000000BD
:1041B00000000000010203040607080900000000D7
:1041C00001020304010203040607080902040608A9
:1041D00000000000000000000000000000000000DF
:1041E00000000000000000000000000000000000CF
:1041F00000000000000000000000000000000000BF
:1042000000000000000000000000000000000000AE
:104210000000040000000100000000000000000099
:08422000000000000000000096
:04000005080000ED02
:00000001FF
