:020000040800F2
:1000000070250020C101000891110008A10D000811
:100010008D11000849030008A51900080000000020
:10002000000000000000000000000000ED120008C9
:10003000790C0008000000001912000841140008A3
:10004000DB010008DB010008DB010008DB01000820
:10005000DB010008DB010008DB010008DB01000810
:10006000DB010008DB010008DB010008690A000869
:10007000A50A0008E10A0008DB010008DB0100080E
:10008000250B0008690B0008DB010008DB010008F4
:10009000DB010008DB010008DB010008DB010008D0
:1000A000DB010008DB010008DB010008DB010008C0
:1000B000DB010008DB010008A5140008DB010008D3
:1000C000DB010008DB010008DB010008DB010008A0
:1000D000DB010008DB010008DB010008DB01000890
:1000E000DB010008DB010008DB01000800F002F87A
:1000F00000F03CF80AA090E8000C82448344AAF186
:100100000107DA4501D100F031F8AFF2090EBAE883
:100110000F0013F0010F18BFFB1A43F0010318473B
:10012000CC360000EC360000103A24BF78C878C105
:10013000FAD8520724BF30C830C144BF04680C60ED
:10014000704700000023002400250026103A28BF35
:1001500078C1FBD8520728BF30C148BF0B60704739
:100160001FB500F062F81FBD10B510BD00F0B2F869
:100170001146FFF7F5FF01F07DFC00F0D0F803B465
:10018000FFF7F2FF03BC00F0D9F800000B49D1F8EB
:1001900000C04A685CF8043B1068184442F8040B3D
:1001A0008C4528BFA1F1DC0C8A4228BFA1F1DC02FA
:1001B000C1F800C04A6020F000407047041F0020D2
:1001C0000948804709480047FEE7FEE7FEE7FEE7EB
:1001D000FEE7FEE7FEE7FEE7FEE7FEE70448054927
:1001E000054A064B7047000045140008ED00000862
:1001F000701F002070250020702100207021002039
:100200000B4910B5A1F17C020A4CC2E93712372123
:1002100006E000EB104342F82130074B00FB03409F
:100220000B1EA1F10101F4DC10BD0120E8E7000084
:10023000A41E0020E119D666CD0D01004FF000028A
:100240000429C0F0128010F0030C00F01E80CCF1E5
:10025000040CBCF1020F18BF00F8012BA8BF20F856
:10026000022BA1EB0C0100F010B85FEAC17C24BFA7
:1002700000F8012B00F8012B48BF00F8012B704754
:100280007047704770474FF0000200B51346944620
:100290009646203922BFA0E80C50A0E80C50B1F1DE
:1002A0002001BFF4F7AF090728BFA0E80C5048BFF2
:1002B0000CC05DF804EB890028BF40F8042B08BF90
:1002C000704748BF20F8022B11F0804F18BF00F88C
:1002D000012B7047754600F02BF8AE4605006946C5
:1002E000534620F00700854618B020B5FFF776FF8B
:1002F000BDE820404FF000064FF000074FF0000827
:100300004FF0000B21F00701AC46ACE8C009ACE8A7
:10031000C009ACE8C009ACE8C0098D46704710B50B
:100320000446AFF300802046BDE81040FFF727BF2A
:10033000004870470C1F002070470000014918203A
:10034000ABBEFEE72600020000BFFEE72DE9F84342
:1003500005460E46174626480068002845D101206C
:100360002349086023480560234806602348076046
:100370002348009000F534640223002269461046A9
:1003800001F02AF81D4A1168009AA21A302392FB44
:10039000F3F0814201D20A4600E002469146C84687
:1003A0004346164A69461448DFF848C0DCF800C0E6
:1003B000E0470098A0420AD20098201A302190FB12
:1003C000F1F8434600226946104601F005F84FF463
:1003D000B4610C4800F041FC0121880701F098F855
:1003E0000121084800F0F0FB00BFBDE8F8830000E1
:1003F0001C0000202C0000203000002034000020D1
:1004000050000020080002402DE9F3410C4623482B
:10041000006860B900214FF0804001F079F80021B8
:100420001F4800F0D1FB00201E49086034E01E4840
:10043000006870B90098201A302190FBF1F52B4626
:1004400000226946104600F0C7FF002013490860EB
:1004500022E0154A1068009AA21A302392FBF3F1A9
:10046000884201D2024600E00A46164635462B462F
:100470000D4A69460D48094F3F68B8470098A042A9
:100480000AD20098201A302190FBF1F52B46002269
:100490006946104600F0A0FFBDE8FC812C0000205A
:1004A000080002401C000020340000203000002022
:1004B0002DE9F84305460E461746284800680028EF
:1004C00049D1012025490860254805602548066076
:1004D000254807602548009000F534640223002277
:1004E0006946104600F078FF1F4A1168009AA21A68
:1004F000302392FBF3F0814201D20A4600E002462B
:100500009146C8464346184A69461648DFF850C027
:10051000DCF800C0E0470098A0420AD20098201AF8
:10052000302190FBF1F8434600226946104600F066
:1005300053FF4FF4B4610E4800F08FFB01210D48CA
:1005400000F0E6FF01210B4800F0EEFF0121084812
:1005500000F03AFB00BFBDE8F8830000280000204F
:100560002C0000203000002034000020500000202B
:100570001C000240002C01402DE9F3410C462548A7
:10058000006878B90021244800F0C2FF0121224808
:1005900000F0CAFF0021214800F016FB002020498E
:1005A000086034E01F48006870B90098201A3021B4
:1005B00090FBF1F52B4600226946104600F00CFF37
:1005C00000201449086022E0164A1068009AA21A16
:1005D000302392FBF3F1884201D2024600E00A4642
:1005E000164635462B460F4A69460F48094F3F6865
:1005F000B8470098A0420AD20098201A302190FBF8
:10060000F1F52B4600226946104600F0E5FEBDE8F4
:10061000FC8100002C000020002C01401C00024046
:100620002800002034000020300000202DE9F8438D
:1006300005460E46174626480068002845D1012089
:100640002349086023480560234806602348076063
:100650002348009000F534640223002269461046C6
:1006600000F0BAFE1D4A1168009AA21A302392FBCC
:10067000F3F0814201D20A4600E002469146C846A4
:100680004346164A69461448DFF848C0DCF800C003
:10069000E0470098A0420AD20098201A302190FB2F
:1006A000F1F8434600226946104600F095FE4FF4EB
:1006B000B4610C4800F0D1FA01210B4800F028FF8A
:1006C0000121084800F080FA00BFBDE8F88300006F
:1006D000240000202C0000203000002034000020E6
:1006E0005000002030000240000400402DE9F3419A
:1006F0000C462348006858B90021224800F008FF42
:100700000021214800F060FA00202049086034E010
:100710001F48006870B90098201A302190FBF1F54D
:100720002B4600226946104600F056FE0020144970
:10073000086022E0164A1068009AA21A302392FB41
:10074000F3F1884201D2024600E00A4616463546D9
:100750002B460F4A69460F48094F3F68B847009833
:10076000A0420AD20098201A302190FBF1F52B46C6
:1007700000226946104600F02FFEBDE8FC81000013
:100780002C00002000040040300002402400002023
:1007900034000020300000202DE9F84305460E46C5
:1007A000174626480068002845D1012023490860E3
:1007B00023480560234806602348076023480090CB
:1007C00000F53464022300226946104600F004FE5E
:1007D0001D4A1168009AA21A302392FBF3F081425D
:1007E00001D20A4600E002469146C8464346164AF0
:1007F00069461448DFF848C0DCF800C0E0470098BC
:10080000A0420AD20098201A302190FBF1F843460A
:1008100000226946104600F0DFFD4FF4B4610C4839
:1008200000F01BFA01210B4800F072FE012108487C
:1008300000F0CAF900BFBDE8F883000020000020E6
:100840002C00002030000020340000205000002048
:100850006C000240000400402DE9F3410C4623489F
:10086000006858B90021224800F052FE00212148BA
:1008700000F0AAF900202049086034E01F48006811
:1008800070B90098201A302190FBF1F52B46002218
:100890006946104600F0A0FD00201449086022E0DF
:1008A000164A1068009AA21A302392FBF3F188428C
:1008B00001D2024600E00A46164635462B460F4A4C
:1008C00069460F48094F3F68B8470098A0420AD2CE
:1008D0000098201A302190FBF1F52B460022694642
:1008E000104600F079FDBDE8FC8100002C000020DE
:1008F000000400406C000240200000203400002072
:10090000300000202DE9F84305460E4617462648DC
:100910000068002845D1012023490860234805606C
:1009200023480660234807602348009000F534649C
:10093000022300226946104600F04EFD1D4A116850
:10094000009AA21A302392FBF3F0814201D20A46A8
:1009500000E002469146C8464346164A6946144896
:10096000DFF848C0DCF800C0E0470098A0420AD297
:100970000098201A302190FBF1F843460022694686
:10098000104600F029FD4FF4B4610C4800F065F901
:100990000121880700F0BCFD0121084800F014F98E
:1009A00000BFBDE8F8830000180000202C000020E4
:1009B0003000002034000020500000208000024061
:1009C0002DE9F3410C462348006860B900214FF03F
:1009D000804000F09DFD00211F4800F0F5F8002048
:1009E0001E49086034E01E48006870B90098201A5B
:1009F000302190FBF1F52B4600226946104600F0AD
:100A0000EBFC00201349086022E0154A1068009AA8
:100A1000A21A302392FBF3F1884201D2024600E091
:100A20000A46164635462B460D4A69460D48094F7B
:100A30003F68B8470098A0420AD20098201A302197
:100A400090FBF1F52B4600226946104600F0C4FCED
:100A5000BDE8FC812C00002080000240180000202E
:100A6000340000203000002010B5042000F0B8F859
:100A700038B1042000F09AF80849A1F5B460FFF7F6
:100A8000C3FC022000F0ACF830B1022000F08EF878
:100A900003490248FFF7B8FC10BD0000F005002034
:100AA000900B002010B5402000F09AF838B140209B
:100AB00000F07CF80849A1F5B460FFF75DFD202047
:100AC00000F08EF830B1202000F070F803490248A1
:100AD000FFF752FD10BD0000F0050020900B002034
:100AE00010B54FF4806000F07BF840B14FF48060A7
:100AF00000F05CF80949A1F5B460FFF7F7FD4FF489
:100B0000007000F06DF838B14FF4007000F04EF84E
:100B100003490248FFF7EAFD10BD0000F005002080
:100B2000900B002010B54FF4800000F059F840B150
:100B30004FF4800000F03AF80949A1F5B460FFF7DE
:100B40008BFE4FF4001000F04BF838B14FF400105A
:100B500000F02CF803490248FFF77EFE10BD0000AC
:100B6000F0050020900B002010B54FF0806000F0E1
:100B700037F840B14FF0806000F018F80949A1F54E
:100B8000B460FFF71DFF4FF0007000F029F838B196
:100B90004FF0007000F00AF803490248FFF710FF19
:100BA00010BD0000F0050020900B002000F08051E7
:100BB00011B10349086001E0024948607047000034
:100BC000040402400000024021B1026842F0010228
:100BD000026004E002684FF6FE731A40026070473C
:100BE00001460020002201F0805313B1054B1A6822
:100BF00001E0054B1A6802EA01030BB1012000E095
:100C00000020704700040240000002401AB103684F
:100C10000B43036002E003688B430360704710B529
:100C20000022026847F6F0739A430C6A8B682343EC
:100C30000C6923434C6923438C692343CC692343C8
:100C40004C6A23438C6A23431A430260CB68436097
:100C50000B6883604B68C36010BD41607047002122
:100C6000016041608160C160016141618161C16178
:100C7000016241628162704770472DE9F04102468E
:100C800000250026002000230024002791F803C03F
:100C90000CF00F0591F803C00CF0100CBCF1000F24
:100CA00003D091F802C04CEA050591F800C0BCF1F0
:100CB000000F31D0146800202BE04FF0010C0CFA2B
:100CC00000F3B1F800C00CEA03069E4220D1830075
:100CD0004FF00F0C0CFA03F7BC4305FA03FC4CEA87
:100CE000040491F803C0BCF1280F06D14FF0010CA9
:100CF0000CFA00FCC2F814C00AE091F803C0BCF181
:100D0000480F05D14FF0010C0CFA00FCC2F810C0DE
:100D1000401C0828D1D31460B1F800C0BCF1FF0F0B
:100D200034DD546800202EE000F1080C4FF001087B
:100D300008FA0CF3B1F800C00CEA03069E4221D178
:100D400083004FF00F0C0CFA03F7BC4305FA03FCC9
:100D50004CEA040491F803C0BCF1280F05D100F15E
:100D6000080C08FA0CF8C2F8148091F803C0BCF122
:100D7000480F07D100F1080C4FF0010808FA0CF8F1
:100D8000C2F81080401C0828CED35460BDE8F08122
:100D90004FF6FF710180022181700421C1707047FC
:100DA00000BFFEE701460148405C7047E01D0008B7
:100DB00010B5044600F0B2FD00F0B0FE0848047023
:100DC000007830B9074808490A880280897881701C
:100DD00005E0044805490A8802808978817010BDC1
:100DE0004800002045000020E01E0008E31E000827
:100DF00030B5024622B1012A11D0022A2DD11DE0C0
:100E0000002009E000EB40030B44154C25881D80B1
:100E1000A4789C70431CD8B28828F3DB1EE0002025
:100E200009E000EB40030B440E4C25881D80A4789C
:100E30009C70431CD8B28828F3DB0FE0002009E047
:100E400000EB40030B44074C25881D80A4789C7060
:100E5000431CD8B28828F3DB00E000BF00BF30BDE0
:100E6000E61E00084500002030B5024622B1012AE6
:100E700011D0022A2DD11DE0002009E000EB400333
:100E80000B44154C25881D80A4789C70431CD8B257
:100E90007828F3DB1EE0002009E000EB40030B4460
:100EA0000E4C25881D80A4789C70431CD8B27828ED
:100EB000F3DB0FE0002009E000EB40030B44074C9C
:100EC00025881D80A4789C70431CD8B27828F3DB59
:100ED00000E000BF00BF30BDE61E00084500002056
:100EE0000B480C490A8802808978817000200AE04A
:100EF00000EB4001084A1144054A13880B809278A0
:100F00008A70411C88B240F232618842F0DB70473F
:100F100045000020E91E0008900B002030B5024675
:100F200022B1012A11D0022A76D165E0002009E021
:100F300000EB40030B443A4C25881D80A4789C703C
:100F4000431C98B2FF28F3DD67E03648007801289B
:100F500004D135480078401E334B18703248007871
:100F6000002803DD00202F4B187008E02E48007881
:100F700028B904202C4B187000202A4B1870002030
:100F800037E0294B1B7800EBC303FF2B0FDC264B0C
:100F90001B7800EBC303254CE35C43B100EB40033B
:100FA0000B44234C25881D80A4789C701FE01E4BA9
:100FB0001B7800EBC303FF2B11DD1B4B1B7800EBF1
:100FC000C303A3F58073194CE35C43B100EB40030A
:100FD0000B44174C25881D80A4789C7007E000EB1B
:100FE00040030B440E4C25881D80A4789C70431C44
:100FF00098B2FF28C5DD10E0002009E000EB4003B7
:101000000B440B4C25881D80A4789C70431C98B21F
:10101000FF28F3DD01E0FFE700BF00BF30BD0000A7
:10102000E61E0008390000204A000020EC360008C7
:101030004500002030B5024622B1012A11D0022A13
:101040002DD11DE0002009E000EB40030B44154CBE
:1010500025881D80A4789C70431CD8B23228F3DB0D
:101060001EE0002009E000EB40030B440D4C2588F6
:101070001D80A4789C70431CD8B23228F3DB0FE0AB
:10108000002009E000EB40030B44074C25881D803D
:10109000A4789C70431CD8B23228F3DB00E000BF78
:1010A00000BF30BDE61E00084500002010B500F06E
:1010B0007BFC00BF00F076FE0028FBD02D480078B6
:1010C000022802D1FFF70CFF1CE02B492B4A1278B3
:1010D000885C2B49FFF722FF2749284A1278885C51
:1010E0002849FFF7A7FF2449244A1278885C25493C
:1010F0009631FFF77DFE2049204A1278885C22490C
:10110000FFF7B2FE1D480078052822D2DFE800F084
:1011100003090F151B0040F23261194800F0C2FCB0
:1011200018E040F23261164800F0C8FC12E040F2CC
:101130003261134800F0CEFC0CE040F232611048FE
:1011400000F0D4FC06E040F232610D4800F0DAFC19
:1011500000E010BD00BF09480078042805DA074800
:101160000078401C0549087002E00020034908701F
:1011700000BFEEE748000020400000203F000020B4
:10118000900B0020900E0020BE10002000BFFEE754
:101190007047000070B5002100230F22C47804B30B
:1011A000154C246804F4E064C4F5E064210AC1F13C
:1011B0000403CA40447804FA03F1847814402143BC
:1011C00009010E4C0678A155047804F01F0501248E
:1011D000AC4005786D11AD0005F1E025C5F8004182
:1011E00009E0047804F01F050124AC40044D0678A2
:1011F000761145F8264070BD0CED00E000E400E0FB
:1012000080E100E002490143024A1160704700009A
:101210000000FA050CED00E07047000029B1064A15
:1012200052690243044B5A6104E0034A5269824303
:10123000014B5A61704700000010024029B1064A74
:10124000D2690243044BDA6104E0034AD269824363
:10125000014BDA61704700000010024029B1064AD4
:1012600092690243044B9A6104E0034A9269824303
:10127000014B9A6170470000001002402DE9F047D1
:1012800005460E462878FFF78DFD80466878FFF703
:1012900089FD8146A878FFF785FD824680270024D6
:1012A00020E008EA070008B1152100E0092106F155
:1012B000100000EB4400018009EA070008B1152086
:1012C00000E0092006EB440108800AEA070008B1A3
:1012D000152100E0092106F1200000EB4400018007
:1012E0007F10641C082CDCDBBDE8F087704710B56C
:1012F00000F002F810BD00000CB500200190009035
:101300003348006840F480303149086000BF3048FD
:10131000006800F4003000900198401C0190009893
:1013200018B90198B0F5A06FF1D12948006800F410
:10133000003010B10120009001E0002000900098E2
:10134000012843D12348006840F01000214908607B
:101350000846006820F0030008600846006840F076
:10136000020008601A484068194948600846406809
:1013700048600846406840F480604860084640681D
:1013800020F47C1048600846406840F4E81048604B
:101390000846006840F08070086000BF0C48006894
:1013A00000F000700028F9D00948406820F00300E0
:1013B000074948600846406840F00200486000BFA6
:1013C0000348406800F00C000828F9D10CBD00006B
:1013D00000100240002002402DE9F04106460C4674
:1013E00017461D4605EB450211012068FEF726FF52
:1013F00005EB4501206800EB01102060BDE8F0819D
:101400002DE9F04704460D4616461F46D4F80080E5
:10141000D5F800903068C01B306007E0494609F1FC
:101420003009404608F10308FFF728FF381EA7F1EE
:101430000107F3D1C4F80080C5F80090BDE8F0873B
:101440007047000010B51348006840F001001149D2
:10145000086008464068104908400E494860084640
:1014600000680E4908400B4908600846006820F4EF
:10147000802008600846406820F4FE0048604FF471
:101480001F008860FFF733FF4FF0006004490860D9
:1014900010BD0000001002400000FFF8FFFFF6FE44
:1014A00008ED00E010B50121124800F055F80128C0
:1014B0001ED111480068401C0F49086008460068AA
:1014C00040F6C311884204D100F066FA01200B49AE
:1014D0000870094800686421B0FBF1F201FB1200BA
:1014E00010B90120064908700121024800F00DF8EA
:1014F00010BD00000008004014000020380000204B
:1015000039000020CA4302827047CA4302827047F2
:1015100021B1028842F00102028004E002884FF605
:10152000FE731A400280704731B1B0F8442042F493
:101530000042A0F8442005E0B0F84420C2F30E02B7
:10154000A0F8442070471AB183890B43838102E0DD
:1015500083898B438381704730B502460020002386
:101560000024158A05EA0103958905EA010413B1EF
:101570000CB1012000E0002030BD1AB183890B437B
:10158000838102E083898B438381704701894FF611
:10159000F87211400181704770B5002400220023C9
:1015A000058C4FF6FE7635400584028C8388048BCB
:1015B0004FF68F752C40B51E2C400D882C43751EA0
:1015C0002A400D892A434D882A43144DA8420BD046
:1015D000134DA84208D0134DA84205D0124DA84281
:1015E00002D0124DA84213D14FF6F7752A404D890B
:1015F0002A434FF6FB752A408D882A434FF6FF6534
:101600002B404FF6FF552B408D892B43CD892B4323
:1016100083800483CD888586028470BD002C0140C0
:1016200000340140004001400044014000480140B6
:101630000A460021018B4FF6F773194011430183CD
:101640007047000070B5002400220023058C4FF67F
:10165000EF7635400584028C8388048B48F6FF754D
:101660002C404FF6FF452C400D884FF6FF7606EADA
:1016700005252C434FF6DF752A400D8906EA05152E
:101680002A434D8806EA05152A43154DA84202D083
:10169000144DA8421DD14FF67F752A404D894FF653
:1016A000FF7606EA05152A434FF6BF752A408D8856
:1016B00006EA05152A434FF6FF352B404FF2FF751A
:1016C0002B408D8906EA85052B43CD8906EA8505E1
:1016D0002B4383800483CD880587028470BD00007E
:1016E000002C0140003401400A460021018B4FF2DA
:1016F000FF7319404FF6FF7303EA02231943018376
:101700007047000070B5002400220023058C4FF6BE
:10171000FF6635400584028C8388848B4FF68F7575
:101720002C404FF6FC752C400D882C434FF6FF558E
:101730002A400D894FF6FF7606EA05252A434D8893
:1017400006EA05252A43154DA84202D0144DA842A9
:101750001DD14FF2FF752A404D894FF6FF7606EAFC
:1017600005252A434FF6FF352A408D8806EA0525D0
:101770002A434EF6FF752B404DF6FF752B408D89A1
:1017800006EA05152B43CD8906EA05152B43838010
:101790008483CD888587028470BD0000002C0140C1
:1017A000003401400A460021818B4FF6F77319403F
:1017B000114381837047000070B50022002300248C
:1017C000058C4EF6FF7635400584038C8488828B29
:1017D00048F6FF752A404FF6FF452A400D884FF620
:1017E000FF7606EA05252A434DF6FF752B400D8945
:1017F00006EA05352B434D8806EA05352B430B4D8C
:10180000A84202D00A4DA84208D14BF6FF752C40E1
:101810008D894FF6FF7606EA85152C4384808283F6
:10182000CD88A0F84050038470BD0000002C01401A
:10183000003401400A460021818B4FF2FF731940AA
:101840004FF6FF7303EA0223194381837047002197
:10185000018041808180C180018141818181C1817C
:1018600070470000002202881D4B98420ED01D4B8D
:1018700098420BD0B0F1804F08D01B4B984205D056
:101880001A4B984202D01A4B984204D14FF68F73EC
:101890001A404B881A43174B984207D0164B984270
:1018A00004D04FF6FF431A40CB881A4302808B883E
:1018B00083850B8803850A4B98420BD0094B9842CD
:1018C00008D00E4B984205D00D4B984202D00D4BDC
:1018D000984201D10B7A038601238382704700006E
:1018E000002C01400034014000040040000800408A
:1018F000000C004000100040001400400040014077
:1019000000440140004801404FF6FF7181800021F2
:101910000180C18041800172704700001FB5012124
:101920000420FFF78BFC1B48FFF730FE0020ADF8CA
:101930000A00ADF8060040F2E730ADF80800472095
:10194000ADF8040000208DF80C0001A91148FFF744
:1019500089FF01210F48FFF7D5FD012211460D48EF
:10196000FFF70BFE4FF4A060FFF74CFC1E208DF834
:10197000000001208DF8030003208DF801008DF890
:1019800002006846FFF706FC01210248FFF7C0FD90
:101990001FBD00000008004000200149086070479A
:1019A0001400002000BFFEE710B52C480078002886
:1019B00035D12B480078012831D1FFF7EDFF002009
:1019C0002749087027480078401C264908700220E3
:1019D0002549264A127888542248007805280DD1D6
:1019E00000202049087000BF06E000211E4A115463
:1019F0001F4A1154411CC8B20528F6DB0DE0052032
:101A000000F040F804461848005D28B90120164946
:101A100008551648047001E000BFF0E71DE00F48CC
:101A20000078012819D100200C4908700C49087071
:101A30000C49087000BF06E000210B4A11540C4A03
:101A40001154411CC8B20528F6DB052000F01AF835
:101A5000044601200449085500BF10BD380000208D
:101A6000490000204C000020400000204B000020D6
:101A70003A0000200220FFF79BF901E0FFF716FB78
:101A8000FCE7000010B5044605480068FEF7B8FB07
:101A9000FEF77CFB90FBF4F104FB1100C0B210BD1B
:101AA0001400002070B504460D462A46214602481F
:101AB000FEF728FF70BD00000114000870B5044651
:101AC0000D462A4621460248FEF740FC70BD000044
:101AD0000114000870B504460D462A462146024806
:101AE000FEF75AFE70BD00000114000870B50446F0
:101AF0000D462A4621460248FEF798FD70BD0000BB
:101B00000114000870B504460D462A4621460248D5
:101B1000FEF7CEFC70BD00000114000800B595B0C2
:101B200001210846FFF78AFB01210220FFF786FB0F
:101B300001210420FFF792FB01210820FFF78EFB13
:101B40000121C802FFF78AFB01210846FFF766FB67
:101B500014A8FFF71DF94FF4A370ADF8500003204F
:101B60008DF8520018208DF8530014A98448FFF70F
:101B700084F80220ADF8500014A98248FFF77DF8E0
:101B800011A8FFF7C1FE804800688049B0FBF1F062
:101B9000401E80B2ADF844000020ADF846001D2084
:101BA000ADF848000020ADF84A0011A94FF0804080
:101BB000FFF758FE11A97648FFF754FE72480068F7
:101BC0007249B0FBF1F0401E80B2ADF8440011A99B
:101BD0007048FFF747FE0DA8FFF739FE6020ADF80B
:101BE00034000120ADF836000020ADF83A00ADF821
:101BF0003C000DA94FF08040FFF724FD0821C806E6
:101C0000FFF772FD0DA94FF08040FFF77BFD082123
:101C1000C806FFF7C7FD0DA95D48FFF7BDFC082109
:101C20005B48FFF705FD0DA95948FFF7C5FD0821E1
:101C30005748FFF7FFFD0DA95648FFF7ADFC0821F7
:101C40005448FFF7F5FC02A8FFF709F85248029044
:101C500052480390102004904FF4B4600590002087
:101C60000690802007904000089080000990202076
:101C70000A9000020B9000200C9002A94848FEF741
:101C8000CEFF4548001D029002A945487838FEF76E
:101C9000C6FF3F483430029002A941481438FEF78D
:101CA000BEFF3B484030029002A93D485038FEF745
:101CB000B6FF38483430029002A939486438FEF73C
:101CC000AEFF012291020805FFF73DFC0122D1027F
:101CD000C804FFF738FC012251022D48FFF733FCFE
:101CE000012211032A48FFF72EFC01225102294844
:101CF000FFF729FC11208DF8040000208DF8050065
:101D00008DF8060001208DF8070001A8FFF742FAC0
:101D10000B208DF8040001A8FFF73CFA10208DF885
:101D2000040001A8FFF736FA0D208DF8040001A881
:101D3000FFF730FA0C208DF8040001A8FFF72AFA0B
:101D4000012206211648FEF761FF012206211448F0
:101D50007838FEF75BFF0122062111481438FEF7A0
:101D600055FF012206210E485038FEF74FFF012291
:101D700006210B486438FEF749FF15B000BD00008E
:101D800000080140000C01400000002000366E01F8
:101D900000040040002C01403800004050000020AA
:101DA000800002400948006868B90948006850B9D5
:101DB0000848006838B90848006820B90748006832
:101DC00008B9012070470020FCE700001C0000203B
:101DD00018000020200000202400002028000020FF
:101DE00000000000000000000000000001010101EF
:101DF00001010101020202020202030303030404BF
:101E0000040405050505060606070707080808096E
:101E100009090A0A0B0B0B0C0C0D0D0E0E0F0F10FF
:101E20001011111212131314141515161717181870
:101E3000191A1A1B1C1C1D1E1E1F202021222323C1
:101E4000242526262728292A2A2B2C2D2E2F2F30F1
:101E5000313233343536373838393A3B3C3D3E3F02
:101E60004041424344454647494A4B4C4D4E4F50F2
:101E700051525455565758595B5C5D5E5F616263C1
:101E800064666768696B6C6D6F7071737475777871
:101E9000797B7C7E7F808283858688898B8C8E8F00
:101EA0009192949597989A9B9D9EA0A2A3A5A6A86F
:101EB000AAABADAFB0B2B4B5B7B9BABCBEC0C1C3BE
:101EC000C5C7C8CACCCECFD1D3D5D7D9DADCDEE0EE
:101ED000E2E4E6E8E9EBEDEFF1F3F5F7F9FBFDFFFE
:101EE000FF00000000FF00000032000001010000C0
:101EF00000000000000000000000000000000000E2
:101F000000000000000000000000010101010101CB
:101F100001010000000000000000000000000000BF
:101F200000000000010101010101010101010000A7
:101F3000000101010100000000000000000000009D
:101F4000000001010100000000000001010000008C
:101F5000000000000101010000000000000000007E
:101F6000010101000000000000000001010100006B
:101F7000000000000000010101000000000000015D
:101F8000010000000000000001010101010000014A
:101F9000010000000000000101010000000001013B
:101FA000000000000000010100000000000000002F
:101FB000000101000000000001010000000001011B
:101FC000000000000001000000000101000101000C
:101FD00000000101000000010101010101010101F6
:101FE00001010101010101000001000001010000E7
:101FF00000000000000000000000000000000000E1
:1020000000000000000000000000010101010101CA
:1020100001010000000000000000000000000000BE
:1020200000000000010101010101010101010000A6
:10203000000101010100000000000000000000009C
:10204000000001010100000000000001010000008B
:10205000000000000101010000000000000000007D
:10206000010101000000000000000001010100006A
:10207000000000000000010101000000000000015C
:102080000100000000000000010101010100000149
:10209000010000000000000101010000000001013A
:1020A000000000000000010100000000000000002E
:1020B000000101000000000001010000000001011A
:1020C000000000000001000000000101000101000B
:1020D00000000101000000010101010101010101F5
:1020E00001010101010101000001000001010000E6
:1020F00000000000000000000000000000000000E0
:1021000000000000000000000000010101010101C9
:1021100001010000000000000000000000000000BD
:1021200000000000010101010101010101010000A5
:10213000000101010100000000000000000000009B
:10214000000001010100000000000001010000008A
:10215000000000000101010000000000000000007C
:102160000101010000000000000000010101000069
:10217000000000000000010101000000000000015B
:102180000100000000000000010101010100000148
:102190000100000000000001010100000000010139
:1021A000000000000000010100000000000000002D
:1021B0000001010000000000010100000000010119
:1021C000000000000001000000000101000101000A
:1021D00000000101000000010101010101010101F4
:1021E00001010101010101000001000001010000E5
:1021F00000000000000000000000000000000000DF
:1022000000000000000000000000010101010101C8
:1022100001010000000000000000000000000000BC
:1022200000000000010101010101010101010000A4
:10223000000101010100000000000000000000009A
:102240000000010101000000000000010100000089
:10225000000000000101010000000000000000007B
:102260000101010000000000000000010101000068
:10227000000000000000010101000000000000015A
:102280000100000000000000010101010100000147
:102290000100000000000001010100000000010138
:1022A000000000000000010100000000000000002C
:1022B0000001010000000000010100000000010118
:1022C0000000000000010000000001010001010009
:1022D00000000101000000010101010101010101F3
:1022E00001010101010101000001000000000000E6
:1022F00000000000000000000000000000000000DE
:1023000000000000000000000000010101010101C7
:1023100001010000000000000000000000000000BB
:1023200000000000010101010101000000000000A7
:102330000001010101000000000000000000000099
:10234000000001010100000000000000000000008A
:10235000000000000101010000000000000000007A
:10236000010101000000000000000000000000006A
:102370000000000000000101010000000000000159
:10238000010000000000000000000000000000004C
:102390000000000000000001010100000000010138
:1023A000000000000000000000000000000000002D
:1023B0000000000000000000010100000000010119
:1023C000000000000000000000000000000000000D
:1023D00000000000000000000101010000010100F8
:1023E00000000000000000000000000000000000ED
:1023F00000000000000000000000000000000000DD
:1024000000000000000000000000010101010101C6
:1024100001010000000000000000000000000000BA
:1024200000000000010101010101000000000000A6
:102430000001010101000000000000000000000098
:102440000000010101000000000000000000000089
:102450000000000001010100000000000000000079
:102460000101010000000000000000000000000069
:102470000000000000000101010000000000000158
:10248000010000000000000000000000000000004B
:102490000000000000000001010100000000010137
:1024A000000000000000000000000000000000002C
:1024B0000000000000000000010100000000010118
:1024C000000000000000000000000000000000000C
:1024D00000000000000000000101010000010100F7
:1024E00000000000000000000000000000000000EC
:1024F00000000000000000000000000000000000DC
:1025000000000000000000000000010101010101C5
:1025100001010000000000000000000000000000B9
:1025200000000000010101010101000000000000A5
:102530000001010101000000000000000000000097
:102540000000010101000000000000000000000088
:102550000000000001010100000000000000000078
:102560000101010000000000000000000000000068
:102570000000000000000101010000000000000157
:10258000010000000000000000000000000000004A
:102590000000000000000001010100000000010136
:1025A000000000000000000000000000000000002B
:1025B0000000000000000000010100000000010117
:1025C000000000000000000000000000000000000B
:1025D00000000000000000000101010000010100F6
:1025E00000000000000000000000000000000000EB
:1025F00000000000000000000000000000000000DB
:1026000000000000000000000000010101010101C4
:1026100001010000000000000000000000000000B8
:1026200000000000010101010101000000000000A4
:102630000001010101000000000000000000000096
:102640000000010101000000000000000000000087
:102650000000000001010100000000000000000077
:102660000101010000000000000000000000000067
:102670000000000000000101010000000000000156
:102680000100000000000000000000000000000049
:102690000000000000000001010100000000010135
:1026A000000000000000000000000000000000002A
:1026B0000000000000000000010100000000010116
:1026C000000000000000000000000000000000000A
:1026D00000000000000000000101010000010100F5
:1026E00000000000000000000000000000000000EA
:1026F00000000000000000000000000000000000DA
:1027000000000000000000000000000000000000C9
:1027100000000000000000000000000000000000B9
:1027200000000000000000000000000000000000A9
:102730000000000000000000000000000000000099
:102740000000000000000000000101010000010184
:102750000101000000000000000000000000000077
:102760000000000000010100000000000000000067
:102770000000010100000000000000000000000057
:102780000000000101000000000000000000000047
:102790000000000001010000000000000000000037
:1027A0000000010000000000000000000000000028
:1027B0000000000000010000000000000000000018
:1027C0000001010000000000000000000000000007
:1027D00000000000000001000000000000000000F8
:1027E00000010000000000000000000000000000E8
:1027F00000000000000000000000000000000000D9
:1028000000000000000000000000000000000000C8
:1028100000000000000000000000000000000000B8
:1028200000000000000000000000000000000000A8
:102830000000000000000000000000000000000098
:102840000000000000000000000101010000010183
:102850000101000000000000000000000000000076
:102860000000000000010100000000000000000066
:102870000000010100000000000000000000000056
:102880000000000101000000000000000000000046
:102890000000000001010000000000000000000036
:1028A0000000010000000000000000000000000027
:1028B0000000000000010000000000000000000017
:1028C0000001010000000000000000000000000006
:1028D00000000000000001000000000000000000F7
:1028E00000010000000000000000000000000000E7
:1028F00000000000000000000000000000000000D8
:1029000000000000000000000000000000000000C7
:1029100000000000000000000000000000000000B7
:1029200000000000000000000000000000000000A7
:102930000000000000000000000000000000000097
:102940000000000000000000000101010000010182
:102950000101000000000000000000000000000075
:102960000000000000010100000000000000000065
:102970000000010100000000000000000000000055
:102980000000000101000000000000000000000045
:102990000000000001010000000000000000000035
:1029A0000000010000000000000000000000000026
:1029B0000000000000010000000000000000000016
:1029C0000001010000000000000000000000000005
:1029D00000000000000001000000000000000000F6
:1029E00000010000000000000000000000000000E6
:1029F00000000000000000000000000000000000D7
:102A000000000000000000000000000000000000C6
:102A100000000000000000000000000000000000B6
:102A200000000000000000000000000000000000A6
:102A30000000000000000000000000000000000096
:102A40000000000000000000000101010000010181
:102A50000101000000000000000000000000000074
:102A60000000000000010100000000000000000064
:102A70000000010100000000000000000000000054
:102A80000000000101000000000000000000000044
:102A90000000000001010000000000000000000034
:102AA0000000010000000000000000000000000025
:102AB0000000000000010000000000000000000015
:102AC0000001010000000000000000000000000004
:102AD00000000000000001000000000000000000F5
:102AE00000010000000000000000000000000000E5
:102AF00000000000000000000000000000000000D6
:102B000000000000000000000000000000000000C5
:102B100000000000000000000000000000000000B5
:102B200000000000000000000000000000000000A5
:102B30000000000000000000000000000000000095
:102B40000000000000000000000000000000000085
:102B50000000000000000000000000000000000075
:102B60000000000000000000000000000000000065
:102B70000000000000000000000000000000000055
:102B80000000000000000000000001010001010140
:102B90000000000000000000000000000000000035
:102BA0000000000000000001010000000000000023
:102BB0000101000000000000000000000000000013
:102BC0000000000000000100000000000000000004
:102BD00000010100000000000000000000000000F3
:102BE00000000000000100000000000000000000E4
:102BF00000000000000000000000000000000000D5
:102C000000000000000000000000000000000000C4
:102C100000000000000000000000000000000000B4
:102C200000000000000000000000000000000000A4
:102C30000000000000000000000000000000000094
:102C40000000000000000000000000000000000084
:102C50000000000000000000000000000000000074
:102C60000000000000000000000000000000000064
:102C70000000000000000000000000000000000054
:102C8000000000000000000000000101000101013F
:102C90000000000000000000000000000000000034
:102CA0000000000000000001010000000000000022
:102CB0000101000000000000000000000000000012
:102CC0000000000000000100000000000000000003
:102CD00000010100000000000000000000000000F2
:102CE00000000000000100000000000000000000E3
:102CF00000000000000000000000000000000000D4
:102D000000000000000000000000000000000000C3
:102D100000000000000000000000000000000000B3
:102D200000000000000000000000000000000000A3
:102D30000000000000000000000000000000000093
:102D40000000000000000000000000000000000083
:102D50000000000000000000000000000000000073
:102D60000000000000000000000000000000000063
:102D70000000000000000000000000000000000053
:102D8000000000000000000000000101000101013E
:102D90000000000000000000000000000000000033
:102DA0000000000000000001010000000000000021
:102DB0000101000000000000000000000000000011
:102DC0000000000000000100000000000000000002
:102DD00000010100000000000000000000000000F1
:102DE00000000000000100000000000000000000E2
:102DF00000000000000000000000000000000000D3
:102E000000000000000000000000000000000000C2
:102E100000000000000000000000000000000000B2
:102E200000000000000000000000000000000000A2
:102E30000000000000000000000000000000000092
:102E40000000000000000000000000000000000082
:102E50000000000000000000000000000000000072
:102E60000000000000000000000000000000000062
:102E70000000000000000000000000000000000052
:102E8000000000000000000000000101000101013D
:102E90000000000000000000000000000000000032
:102EA0000000000000000001010000000000000020
:102EB0000101000000000000000000000000000010
:102EC0000000000000000100000000000000000001
:102ED00000010100000000000000000000000000F0
:102EE00000000000000100000000000000000000E1
:102EF00000000000000000000000000000000000D2
:102F000000000000000000000000000000000000C1
:102F100000000000000000000000000000000000B1
:102F200000000000000000000000000000000000A1
:102F30000000000000000000000000000000000091
:102F40000000000000000000000000000000000081
:102F50000000000000000000000000000000000071
:102F60000000000000000000000000000000000061
:102F70000000000000000000000000000000000051
:102F80000000000000000000000000000000000041
:102F90000000000000000000000000000000000031
:102FA000000000000000000000010101000001011C
:102FB0000000000000000000000000000000000011
:102FC00000000000000000010100000000000000FF
:102FD00001000000000000000000000000000000F0
:102FE00000000000000000010000000000000000E0
:102FF00000000000000000000000000000000000D1
:1030000000000000000000000000000000000000C0
:1030100000000000000000000000000000000000B0
:1030200000000000000000000000000000000000A0
:103030000000000000000000000000000000000090
:103040000000000000000000000000000000000080
:103050000000000000000000000000000000000070
:103060000000000000000000000000000000000060
:103070000000000000000000000000000000000050
:103080000000000000000000000000000000000040
:103090000000000000000000000000000000000030
:1030A000000000000000000000010101000001011B
:1030B0000000000000000000000000000000000010
:1030C00000000000000000010100000000000000FE
:1030D00001000000000000000000000000000000EF
:1030E00000000000000000010000000000000000DF
:1030F00000000000000000000000000000000000D0
:1031000000000000000000000000000000000000BF
:1031100000000000000000000000000000000000AF
:10312000000000000000000000000000000000009F
:10313000000000000000000000000000000000008F
:10314000000000000000000000000000000000007F
:10315000000000000000000000000000000000006F
:10316000000000000000000000000000000000005F
:10317000000000000000000000000000000000004F
:10318000000000000000000000000000000000003F
:10319000000000000000000000000000000000002F
:1031A000000000000000000000010101000001011A
:1031B000000000000000000000000000000000000F
:1031C00000000000000000010100000000000000FD
:1031D00001000000000000000000000000000000EE
:1031E00000000000000000010000000000000000DE
:1031F00000000000000000000000000000000000CF
:1032000000000000000000000000000000000000BE
:1032100000000000000000000000000000000000AE
:10322000000000000000000000000000000000009E
:10323000000000000000000000000000000000008E
:10324000000000000000000000000000000000007E
:10325000000000000000000000000000000000006E
:10326000000000000000000000000000000000005E
:10327000000000000000000000000000000000004E
:10328000000000000000000000000000000000003E
:10329000000000000000000000000000000000002E
:1032A0000000000000000000000101010000010119
:1032B000000000000000000000000000000000000E
:1032C00000000000000000010100000000000000FC
:1032D00001000000000000000000000000000000ED
:1032E00000000000000000010000000000000000DD
:1032F00000000000000000000000000000000000CE
:1033000000000000000000000000000000000000BD
:1033100000000000000000000000000000000000AD
:10332000000000000000000000000000000000009D
:10333000000000000000000000000000000000008D
:10334000000000000000000000000000000000007D
:10335000000000000000000000000000000000006D
:10336000000000000000000000000000000000005D
:10337000000000000000000000000000000000004D
:10338000000000000000000000000000000000003D
:10339000000000000000000000000000000000002D
:1033A000000000000000000000000000000000001D
:1033B000000000000000000000000000000000000D
:1033C00000000000000000000000000001000000FC
:1033D00000000000000000000000000000000000ED
:1033E00000000000000000000000010000000000DC
:1033F00000000000000000000000000000000000CD
:1034000000000000000000000000000000000000BC
:1034100000000000000000000000000000000000AC
:10342000000000000000000000000000000000009C
:10343000000000000000000000000000000000008C
:10344000000000000000000000000000000000007C
:10345000000000000000000000000000000000006C
:10346000000000000000000000000000000000005C
:10347000000000000000000000000000000000004C
:10348000000000000000000000000000000000003C
:10349000000000000000000000000000000000002C
:1034A000000000000000000000000000000000001C
:1034B000000000000000000000000000000000000C
:1034C00000000000000000000000000001000000FB
:1034D00000000000000000000000000000000000EC
:1034E00000000000000000000000010000000000DB
:1034F00000000000000000000000000000000000CC
:1035000000000000000000000000000000000000BB
:1035100000000000000000000000000000000000AB
:10352000000000000000000000000000000000009B
:10353000000000000000000000000000000000008B
:10354000000000000000000000000000000000007B
:10355000000000000000000000000000000000006B
:10356000000000000000000000000000000000005B
:10357000000000000000000000000000000000004B
:10358000000000000000000000000000000000003B
:10359000000000000000000000000000000000002B
:1035A000000000000000000000000000000000001B
:1035B000000000000000000000000000000000000B
:1035C00000000000000000000000000001000000FA
:1035D00000000000000000000000000000000000EB
:1035E00000000000000000000000010000000000DA
:1035F00000000000000000000000000000000000CB
:1036000000000000000000000000000000000000BA
:1036100000000000000000000000000000000000AA
:10362000000000000000000000000000000000009A
:10363000000000000000000000000000000000008A
:10364000000000000000000000000000000000007A
:10365000000000000000000000000000000000006A
:10366000000000000000000000000000000000005A
:10367000000000000000000000000000000000004A
:10368000000000000000000000000000000000003A
:10369000000000000000000000000000000000002A
:1036A000000000000000000000000000000000001A
:1036B000000000000000000000000000000000000A
:1036C00000000000000000000000000001000000F9
:1036D00000000000000000000000000000000000EA
:1036E00000000000000000000000010000000001D8
:1036F00001000000000100000000010000010100C5
:1037000000010100000001010101000000000001B2
:1037100001000000000100000000010000010100A4
:103720000001010000000101010100000000000192
:103730000100000000010000000001000001010084
:103740000001010000000101010100000000000172
:103750000100000000010000000001000001010064
:103760000001010000000101010100000000000152
:103770000100000000010000000001000001010044
:103780000001010000000101010100000000000132
:103790000100000000010000000001000001010024
:1037A0000001010000000101010100000000000112
:1037B0000100000000010000000001000001010004
:1037C00000010100000001010101000000000001F2
:1037D00001000000000100000000010000010100E4
:1037E0000001010000000101010100000C38000887
:1037F0000000002050000000280100085C3800088C
:1038000050000020202500004401000800A24A04C6
:103810000000000000000000010203040607080980
:103820000000000000000000000000000000000098
:103830000000000000000000000000000000000088
:103840000000000000000000000000000000000078
:0C38500000000000000004000000000068
:04000005080000ED02
:00000001FF
